{
  "_format": "hh-sol-artifact-1",
  "contractName": "FansDAO",
  "sourceName": "contracts/FansDAO.sol",
  "abi": [
    {
      "inputs": [
        {
          "internalType": "uint256",
          "name": "_id",
          "type": "uint256"
        },
        {
          "internalType": "uint256",
          "name": "_creationTime",
          "type": "uint256"
        },
        {
          "internalType": "address",
          "name": "_owner",
          "type": "address"
        },
        {
          "internalType": "string",
          "name": "_ownerName",
          "type": "string"
        },
        {
          "internalType": "string",
          "name": "_nameOfDAO",
          "type": "string"
        },
        {
          "internalType": "string",
          "name": "_story",
          "type": "string"
        },
        {
          "internalType": "string",
          "name": "_logoDAO",
          "type": "string"
        },
        {
          "internalType": "string",
          "name": "_bannerDAO",
          "type": "string"
        }
      ],
      "stateMutability": "nonpayable",
      "type": "constructor"
    },
    {
      "inputs": [],
      "name": "become_memeber",
      "outputs": [],
      "stateMutability": "nonpayable",
      "type": "function"
    },
    {
      "inputs": [
        {
          "internalType": "address",
          "name": "_consignor",
          "type": "address"
        },
        {
          "internalType": "uint128",
          "name": "_royaltyPercent",
          "type": "uint128"
        },
        {
          "internalType": "string",
          "name": "_promotionLogo",
          "type": "string"
        },
        {
          "internalType": "uint256",
          "name": "_threshold",
          "type": "uint256"
        },
        {
          "internalType": "string",
          "name": "_promotionName",
          "type": "string"
        },
        {
          "internalType": "string",
          "name": "_NFTsymbol",
          "type": "string"
        }
      ],
      "name": "create_promotion",
      "outputs": [
        {
          "internalType": "uint256",
          "name": "",
          "type": "uint256"
        }
      ],
      "stateMutability": "nonpayable",
      "type": "function"
    },
    {
      "inputs": [],
      "name": "get_memebers",
      "outputs": [
        {
          "internalType": "address[]",
          "name": "",
          "type": "address[]"
        },
        {
          "internalType": "uint256[]",
          "name": "",
          "type": "uint256[]"
        }
      ],
      "stateMutability": "view",
      "type": "function"
    },
    {
      "inputs": [],
      "name": "numberOfPromotions",
      "outputs": [
        {
          "internalType": "uint256",
          "name": "",
          "type": "uint256"
        }
      ],
      "stateMutability": "view",
      "type": "function"
    },
    {
      "inputs": [
        {
          "internalType": "address",
          "name": "",
          "type": "address"
        }
      ],
      "name": "promotionContracts",
      "outputs": [
        {
          "internalType": "address",
          "name": "consignor",
          "type": "address"
        },
        {
          "internalType": "address",
          "name": "NFTAddress",
          "type": "address"
        },
        {
          "internalType": "uint128",
          "name": "royaltyPercent",
          "type": "uint128"
        },
        {
          "internalType": "string",
          "name": "promotionLogo",
          "type": "string"
        },
        {
          "internalType": "uint256",
          "name": "threshold",
          "type": "uint256"
        },
        {
          "internalType": "uint256",
          "name": "promotionCreationTime",
          "type": "uint256"
        },
        {
          "internalType": "uint256",
          "name": "promotionID",
          "type": "uint256"
        },
        {
          "internalType": "string",
          "name": "promotionName",
          "type": "string"
        },
        {
          "internalType": "string",
          "name": "NFTsymbol",
          "type": "string"
        }
      ],
      "stateMutability": "view",
      "type": "function"
    }
  ],
  "bytecode": "0x60806040526000600d553480156200001657600080fd5b50604051620037ca380380620037ca83398101604081905262000039916200026a565b6000879055600180546001600160a01b0319166001600160a01b0388161790556003889055845162000073906002906020880190620000da565b50835162000089906004906020870190620000da565b5082516200009f906005906020860190620000da565b508151620000b5906006906020850190620000da565b508051620000cb906007906020840190620000da565b505050505050505050620003af565b828054620000e89062000372565b90600052602060002090601f0160209004810192826200010c576000855562000157565b82601f106200012757805160ff191683800117855562000157565b8280016001018555821562000157579182015b82811115620001575782518255916020019190600101906200013a565b506200016592915062000169565b5090565b5b808211156200016557600081556001016200016a565b80516001600160a01b03811681146200019857600080fd5b919050565b634e487b7160e01b600052604160045260246000fd5b600082601f830112620001c557600080fd5b81516001600160401b0380821115620001e257620001e26200019d565b604051601f8301601f19908116603f011681019082821181831017156200020d576200020d6200019d565b816040528381526020925086838588010111156200022a57600080fd5b600091505b838210156200024e57858201830151818301840152908201906200022f565b83821115620002605760008385830101525b9695505050505050565b600080600080600080600080610100898b0312156200028857600080fd5b8851975060208901519650620002a160408a0162000180565b60608a01519096506001600160401b0380821115620002bf57600080fd5b620002cd8c838d01620001b3565b965060808b0151915080821115620002e457600080fd5b620002f28c838d01620001b3565b955060a08b01519150808211156200030957600080fd5b620003178c838d01620001b3565b945060c08b01519150808211156200032e57600080fd5b6200033c8c838d01620001b3565b935060e08b01519150808211156200035357600080fd5b50620003628b828c01620001b3565b9150509295985092959890939650565b600181811c908216806200038757607f821691505b60208210811415620003a957634e487b7160e01b600052602260045260246000fd5b50919050565b61340b80620003bf6000396000f3fe60806040523480156200001157600080fd5b50600436106200005e5760003560e01c806322d9c455146200006357806331d3eb0b146200008d5780634093dfaa14620000a757806373d6b24e14620000b1578063cc015b6a146200012a575b600080fd5b6200007a620000743660046200074c565b62000158565b6040519081526020015b60405180910390f35b6200009762000300565b6040516200008492919062000819565b6200007a600d5481565b620001286008805460018181019092557ff3f7a9fe364faab93b216da50a3214154f22a0a2b415b23a84c8169e8b636ee30180546001600160a01b0319163317905560098054918201815560009081527f6e1540171b6c0c960b71a7020d9f60077f6af931a8bbf590da0223dacf75c7af90910155565b005b620001416200013b366004620008a1565b620003c1565b604051620000849998979695949392919062000916565b6001546000906001600160a01b03163314620001d25760405162461bcd60e51b815260206004820152602f60248201527f4f6e6c792074686520636f6e7472616374206f776e65722063616e2063616c6c60448201526e103a3434b990333ab731ba34b7b71760891b606482015260840160405180910390fd5b6000429050600084848a8a604051620001eb90620005d0565b620001fa9493929190620009a3565b604051809103906000f08015801562000217573d6000803e3d6000fd5b506001600160a01b038181166000908152600e602090815260409091206005810186905580546001600160a01b031916928d16929092178255600d546006830155895192935083926200027192600301918b0190620005de565b506001600160a01b0381166000818152600e602052604081206002810180546fffffffffffffffffffffffffffffffff19166001600160801b038e16179055600481018a905560010180546001600160a01b031916909217909155600d805491620002dc8362000a0d565b91905055506001600d54620002f2919062000a2b565b9a9950505050505050505050565b60608060086009818054806020026020016040519081016040528092919081815260200182805480156200035e57602002820191906000526020600020905b81546001600160a01b031681526001909101906020018083116200033f575b5050505050915080805480602002602001604051908101604052809291908181526020018280548015620003b257602002820191906000526020600020905b8154815260200190600101908083116200039d575b50505050509050915091509091565b600e6020526000908152604090208054600182015460028301546003840180546001600160a01b039485169594909316936001600160801b0390921692620004099062000a45565b80601f0160208091040260200160405190810160405280929190818152602001828054620004379062000a45565b8015620004885780601f106200045c5761010080835404028352916020019162000488565b820191906000526020600020905b8154815290600101906020018083116200046a57829003601f168201915b505050505090806004015490806005015490806006015490806007018054620004b19062000a45565b80601f0160208091040260200160405190810160405280929190818152602001828054620004df9062000a45565b8015620005305780601f10620005045761010080835404028352916020019162000530565b820191906000526020600020905b8154815290600101906020018083116200051257829003601f168201915b505050505090806008018054620005479062000a45565b80601f0160208091040260200160405190810160405280929190818152602001828054620005759062000a45565b8015620005c65780601f106200059a57610100808354040283529160200191620005c6565b820191906000526020600020905b815481529060010190602001808311620005a857829003601f168201915b5050505050905089565b6129538062000a8383390190565b828054620005ec9062000a45565b90600052602060002090601f0160209004810192826200061057600085556200065b565b82601f106200062b57805160ff19168380011785556200065b565b828001600101855582156200065b579182015b828111156200065b5782518255916020019190600101906200063e565b50620006699291506200066d565b5090565b5b808211156200066957600081556001016200066e565b80356001600160a01b03811681146200069c57600080fd5b919050565b634e487b7160e01b600052604160045260246000fd5b600082601f830112620006c957600080fd5b813567ffffffffffffffff80821115620006e757620006e7620006a1565b604051601f8301601f19908116603f01168101908282118183101715620007125762000712620006a1565b816040528381528660208588010111156200072c57600080fd5b836020870160208301376000602085830101528094505050505092915050565b60008060008060008060c087890312156200076657600080fd5b620007718762000684565b955060208701356001600160801b03811681146200078e57600080fd5b9450604087013567ffffffffffffffff80821115620007ac57600080fd5b620007ba8a838b01620006b7565b9550606089013594506080890135915080821115620007d857600080fd5b620007e68a838b01620006b7565b935060a0890135915080821115620007fd57600080fd5b506200080c89828a01620006b7565b9150509295509295509295565b604080825283519082018190526000906020906060840190828701845b828110156200085d5781516001600160a01b03168452928401929084019060010162000836565b5050508381038285015284518082528583019183019060005b81811015620008945783518352928401929184019160010162000876565b5090979650505050505050565b600060208284031215620008b457600080fd5b620008bf8262000684565b9392505050565b6000815180845260005b81811015620008ee57602081850181015186830182015201620008d0565b8181111562000901576000602083870101525b50601f01601f19169290920160200192915050565b6001600160a01b038a81168252891660208201526001600160801b038816604082015261012060608201819052600090620009548382018a620008c6565b90508760808401528660a08401528560c084015282810360e08401526200097c8186620008c6565b9050828103610100840152620009938185620008c6565b9c9b505050505050505050505050565b608081526000620009b86080830187620008c6565b8281036020840152620009cc8187620008c6565b6001600160a01b0395909516604084015250506001600160801b039190911660609091015292915050565b634e487b7160e01b600052601160045260246000fd5b600060001982141562000a245762000a24620009f7565b5060010190565b60008282101562000a405762000a40620009f7565b500390565b600181811c9082168062000a5a57607f821691505b6020821081141562000a7c57634e487b7160e01b600052602260045260246000fd5b5091905056fe60806040523480156200001157600080fd5b50604051620029533803806200295383398101604081905262000034916200030d565b8383838383838160029080519060200190620000529291906200019a565b508051620000689060039060208401906200019a565b505060008055506200007a336200009d565b6200008f826001600160801b038316620000ef565b5050505050505050620003f6565b600980546001600160a01b038381166001600160a01b0319831681179093556040519116919082907f8292fce18fa69edf4db7b94ea2e58241df0ae57f97e0a6c9b29067028bf92d7690600090a35050565b612710811115620001385760405162461bcd60e51b815260206004820152600f60248201526e45786365656473206d61782062707360881b604482015260640160405180910390fd5b600a80546001600160a01b0384166001600160b01b03199091168117600160a01b61ffff851602179091556040518281527f90d7ec04bcb8978719414f82e52e4cb651db41d0e6f8cea6118c2191e6183adb9060200160405180910390a25050565b828054620001a890620003b9565b90600052602060002090601f016020900481019282620001cc576000855562000217565b82601f10620001e757805160ff191683800117855562000217565b8280016001018555821562000217579182015b8281111562000217578251825591602001919060010190620001fa565b506200022592915062000229565b5090565b5b808211156200022557600081556001016200022a565b634e487b7160e01b600052604160045260246000fd5b600082601f8301126200026857600080fd5b81516001600160401b038082111562000285576200028562000240565b604051601f8301601f19908116603f01168101908282118183101715620002b057620002b062000240565b81604052838152602092508683858801011115620002cd57600080fd5b600091505b83821015620002f15785820183015181830184015290820190620002d2565b83821115620003035760008385830101525b9695505050505050565b600080600080608085870312156200032457600080fd5b84516001600160401b03808211156200033c57600080fd5b6200034a8883890162000256565b955060208701519150808211156200036157600080fd5b50620003708782880162000256565b604087015190945090506001600160a01b03811681146200039057600080fd5b60608601519092506001600160801b0381168114620003ae57600080fd5b939692955090935050565b600181811c90821680620003ce57607f821691505b60208210811415620003f057634e487b7160e01b600052602260045260246000fd5b50919050565b61254d80620004066000396000f3fe608060405234801561001057600080fd5b50600436106101e45760003560e01c8063600dd5ea1161010f5780639bcf7a15116100a2578063b88d4fde11610071578063b88d4fde14610454578063c87b56dd14610467578063e8a3d4851461047a578063e985e9c51461048257600080fd5b80639bcf7a15146103f0578063a22cb46514610403578063ac9650d814610416578063b24f2d391461043657600080fd5b8063754a81d9116100de578063754a81d9146103b15780638da5cb5b146103c4578063938e3d7b146103d557806395d89b41146103e857600080fd5b8063600dd5ea146103705780636352211e1461038357806363b45e2d1461039657806370a082311461039e57600080fd5b806323b872dd1161018757806342842e0e1161015657806342842e0e1461030257806342966c6814610315578063430c2081146103285780634cc157df1461033b57600080fd5b806323b872dd146102a25780632419f51b146102b55780632a55205a146102c85780633b1475a7146102fa57600080fd5b8063081812fc116101c3578063081812fc1461023b578063095ea7b31461026657806313af40351461027957806318160ddd1461028c57600080fd5b806275a317146101e957806301ffc9a7146101fe57806306fdde0314610226575b600080fd5b6101fc6101f7366004611e67565b6104be565b005b61021161020c366004611eca565b610542565b60405190151581526020015b60405180910390f35b61022e6105af565b60405161021d9190611f3f565b61024e610249366004611f52565b610641565b6040516001600160a01b03909116815260200161021d565b6101fc610274366004611f6b565b610685565b6101fc610287366004611f95565b61070c565b600154600054035b60405190815260200161021d565b6101fc6102b0366004611fb0565b61073c565b6102946102c3366004611f52565b610747565b6102db6102d6366004611fec565b6107b5565b604080516001600160a01b03909316835260208301919091520161021d565b600054610294565b6101fc610310366004611fb0565b6107f2565b6101fc610323366004611f52565b61080d565b610211610336366004611f6b565b610818565b61034e610349366004611f52565b610897565b604080516001600160a01b03909316835261ffff90911660208301520161021d565b6101fc61037e366004611f6b565b610902565b61024e610391366004611f52565b610930565b600c54610294565b6102946103ac366004611f95565b610942565b6101fc6103bf36600461200e565b610990565b6009546001600160a01b031661024e565b6101fc6103e336600461208b565b610a04565b61022e610a31565b6101fc6103fe3660046120bf565b610a40565b6101fc6104113660046120e4565b610a6f565b610429610424366004612120565b610b05565b60405161021d9190612194565b600a546001600160a01b03811690600160a01b900461ffff1661034e565b6101fc6104623660046121f6565b610bf9565b61022e610475366004611f52565b610c3d565b61022e610d2b565b610211610490366004612251565b6001600160a01b03918216600090815260076020908152604080832093909416825291909152205460ff1690565b6104c6610db9565b6105115760405162461bcd60e51b81526020600482015260176024820152762737ba1030baba3437b934bd32b2103a379036b4b73a1760491b60448201526064015b60405180910390fd5b61052361051d60005490565b82610de6565b61053e82600160405180602001604052806000815250610e5f565b5050565b60006301ffc9a760e01b6001600160e01b03198316148061057357506380ac58cd60e01b6001600160e01b03198316145b8061058e5750635b5e139f60e01b6001600160e01b03198316145b806105a957506001600160e01b0319821663152a902d60e11b145b92915050565b6060600280546105be90612284565b80601f01602080910402602001604051908101604052809291908181526020018280546105ea90612284565b80156106375780601f1061060c57610100808354040283529160200191610637565b820191906000526020600020905b81548152906001019060200180831161061a57829003601f168201915b5050505050905090565b600061064c82610fff565b610669576040516333d1c03960e21b815260040160405180910390fd5b506000908152600660205260409020546001600160a01b031690565b600061069082610930565b9050806001600160a01b0316836001600160a01b031614156106c55760405163250fdee360e21b815260040160405180910390fd5b336001600160a01b038216146106fc576106df8133610490565b6106fc576040516367d9dca160e11b815260040160405180910390fd5b61070783838361102a565b505050565b610714610db9565b6107305760405162461bcd60e51b8152600401610508906122bf565b61073981611086565b50565b6107078383836110d8565b6000610752600c5490565b82106107905760405162461bcd60e51b815260206004820152600d60248201526c092dcecc2d8d2c840d2dcc8caf609b1b6044820152606401610508565b600c82815481106107a3576107a36122e7565b90600052602060002001549050919050565b6000806000806107c486610897565b90945084925061ffff1690506127106107dd8287612313565b6107e79190612348565b925050509250929050565b61070783838360405180602001604052806000815250610bf9565b6107398160016112b3565b60008061082483610930565b9050806001600160a01b0316846001600160a01b0316148061086b57506001600160a01b0380821660009081526007602090815260408083209388168352929052205460ff165b8061088f5750836001600160a01b031661088484610641565b6001600160a01b0316145b949350505050565b6000818152600b60209081526040808320815180830190925280546001600160a01b0316808352600190910154928201929092528291156108de57805160208201516108f8565b600a546001600160a01b03811690600160a01b900461ffff165b9250925050915091565b61090a610db9565b6109265760405162461bcd60e51b8152600401610508906122bf565b61053e8282611466565b600061093b8261150c565b5192915050565b60006001600160a01b03821661096b576040516323d3ad8160e21b815260040160405180910390fd5b506001600160a01b03166000908152600560205260409020546001600160401b031690565b610998610db9565b6109de5760405162461bcd60e51b81526020600482015260176024820152762737ba1030baba3437b934bd32b2103a379036b4b73a1760491b6044820152606401610508565b6109f16109ea60005490565b8484611626565b50506109fe848483610e5f565b50505050565b610a0c610db9565b610a285760405162461bcd60e51b8152600401610508906122bf565b61073981611693565b6060600380546105be90612284565b610a48610db9565b610a645760405162461bcd60e51b8152600401610508906122bf565b610707838383611775565b6001600160a01b038216331415610a995760405163b06307db60e01b815260040160405180910390fd5b3360008181526007602090815260408083206001600160a01b03871680855290835292819020805460ff191686151590811790915590519081529192917f17307eab39ab6107e8899845ad3d59bd9653f200f220920489ca2b5937696c31910160405180910390a35050565b6060816001600160401b03811115610b1f57610b1f611dc5565b604051908082528060200260200182016040528015610b5257816020015b6060815260200190600190039081610b3d5790505b50905060005b82811015610bf257610bc230858584818110610b7657610b766122e7565b9050602002810190610b88919061235c565b8080601f01602080910402602001604051908101604052809392919081815260200183838082843760009201919091525061183e92505050565b828281518110610bd457610bd46122e7565b60200260200101819052508080610bea906123a9565b915050610b58565b5092915050565b610c048484846110d8565b6001600160a01b0383163b156109fe57610c208484848461186a565b6109fe576040516368d2bf6b60e11b815260040160405180910390fd5b6000818152600e6020526040812080546060929190610c5b90612284565b80601f0160208091040260200160405190810160405280929190818152602001828054610c8790612284565b8015610cd45780601f10610ca957610100808354040283529160200191610cd4565b820191906000526020600020905b815481529060010190602001808311610cb757829003601f168201915b50505050509050600081511115610ceb5792915050565b6000610cf684611961565b905080610d0285611afd565b604051602001610d139291906123c4565b60405160208183030381529060405292505050919050565b60088054610d3890612284565b80601f0160208091040260200160405190810160405280929190818152602001828054610d6490612284565b8015610db15780601f10610d8657610100808354040283529160200191610db1565b820191906000526020600020905b815481529060010190602001808311610d9457829003601f168201915b505050505081565b6000610dcd6009546001600160a01b031690565b6001600160a01b0316336001600160a01b031614905090565b6000828152600e602052604090208054610dff90612284565b159050610e405760405162461bcd60e51b815260206004820152600f60248201526e15549248185b1c9958591e481cd95d608a1b6044820152606401610508565b6000828152600e60209081526040909120825161070792840190611d10565b6000546001600160a01b038416610e8857604051622e076360e81b815260040160405180910390fd5b82610ea65760405163b562e8dd60e01b815260040160405180910390fd5b6001600160a01b038416600081815260056020908152604080832080546fffffffffffffffffffffffffffffffff1981166001600160401b038083168b0181169182176801000000000000000067ffffffffffffffff1990941690921783900481168b01811690920217909155858452600490925290912080546001600160e01b0319168317600160a01b42909316929092029190911790558190818501903b15610fbc575b60405182906001600160a01b038816906000906000805160206124f8833981519152908290a4610f85600087848060010195508761186a565b610fa2576040516368d2bf6b60e11b815260040160405180910390fd5b808210610f4c578260005414610fb757600080fd5b610fef565b5b6040516001830192906001600160a01b038816906000906000805160206124f8833981519152908290a4808210610fbd575b5060009081556109fe9085838684565b60008054821080156105a9575050600090815260046020526040902054600160e01b900460ff161590565b60008281526006602052604080822080546001600160a01b0319166001600160a01b0387811691821790925591518593918516917f8c5be1e5ebec7d5bd14f71427d1e84f3dd0314c0f7b2291e5b200ac8c7c3b92591a4505050565b600980546001600160a01b038381166001600160a01b0319831681179093556040519116919082907f8292fce18fa69edf4db7b94ea2e58241df0ae57f97e0a6c9b29067028bf92d7690600090a35050565b60006110e38261150c565b9050836001600160a01b031681600001516001600160a01b03161461111a5760405162a1148160e81b815260040160405180910390fd5b6000336001600160a01b038616148061113857506111388533610490565b8061115357503361114884610641565b6001600160a01b0316145b90508061117357604051632ce44b5f60e11b815260040160405180910390fd5b6001600160a01b03841661119a57604051633a954ecd60e21b815260040160405180910390fd5b6111a66000848761102a565b6001600160a01b038581166000908152600560209081526040808320805467ffffffffffffffff198082166001600160401b0392831660001901831617909255898616808652838620805493841693831660019081018416949094179055898652600490945282852080546001600160e01b031916909417600160a01b4290921691909102178355870180845292208054919390911661127a57600054821461127a57805460208601516001600160401b0316600160a01b026001600160e01b03199091166001600160a01b038a16171781555b50505082846001600160a01b0316866001600160a01b03166000805160206124f883398151915260405160405180910390a45050505050565b60006112be8361150c565b80519091508215611324576000336001600160a01b03831614806112e757506112e78233610490565b806113025750336112f786610641565b6001600160a01b0316145b90508061132257604051632ce44b5f60e11b815260040160405180910390fd5b505b6113306000858361102a565b6001600160a01b0380821660008181526005602090815260408083208054600160801b6000196001600160401b0380841691909101811667ffffffffffffffff198416811783900482166001908101831690930277ffffffffffffffff0000000000000000ffffffffffffffff19909416179290921783558b86526004909452828520805460ff60e01b1942909316600160a01b026001600160e01b03199091169097179690961716600160e01b17855591890180845292208054919490911661142e57600054821461142e57805460208701516001600160401b0316600160a01b026001600160e01b03199091166001600160a01b038716171781555b5050604051869250600091506001600160a01b038416906000805160206124f8833981519152908390a4505060018054810190555050565b6127108111156114aa5760405162461bcd60e51b815260206004820152600f60248201526e45786365656473206d61782062707360881b6044820152606401610508565b600a80546001600160a01b0384166001600160b01b03199091168117600160a01b61ffff851602179091556040518281527f90d7ec04bcb8978719414f82e52e4cb651db41d0e6f8cea6118c2191e6183adb9060200160405180910390a25050565b60408051606081018252600080825260208201819052918101919091528160005481101561160d57600081815260046020908152604091829020825160608101845290546001600160a01b0381168252600160a01b81046001600160401b031692820192909252600160e01b90910460ff1615159181018290529061160b5780516001600160a01b0316156115a2579392505050565b5060001901600081815260046020908152604091829020825160608101845290546001600160a01b038116808352600160a01b82046001600160401b031693830193909352600160e01b900460ff1615159281019290925215611606579392505050565b6115a2565b505b604051636f96cda160e11b815260040160405180910390fd5b60008061163384866123f3565b600c8054600181019091557fdf6966c971051c3d54ec59162606531493a51404a002842f56009d7e5cf4a8c7018190556000818152600d60209081526040909120855192945084935061168a929091860190611d10565b50935093915050565b6000600880546116a290612284565b80601f01602080910402602001604051908101604052809291908181526020018280546116ce90612284565b801561171b5780601f106116f05761010080835404028352916020019161171b565b820191906000526020600020905b8154815290600101906020018083116116fe57829003601f168201915b5050855193945061173793600893506020870192509050611d10565b507fc9c7c3fe08b88b4df9d4d47ef47d2c43d55c025a0ba88ca442580ed9e7348a16818360405161176992919061240b565b60405180910390a15050565b6127108111156117b95760405162461bcd60e51b815260206004820152600f60248201526e45786365656473206d61782062707360881b6044820152606401610508565b6040805180820182526001600160a01b0384811680835260208084018681526000898152600b8352869020945185546001600160a01b031916941693909317845591516001909301929092559151838152909185917f7365cf4122f072a3365c20d54eff9b38d73c096c28e1892ec8f5b0e403a0f12d910160405180910390a3505050565b606061186383836040518060600160405280602781526020016124d160279139611bfa565b9392505050565b604051630a85bd0160e11b81526000906001600160a01b0385169063150b7a029061189f903390899088908890600401612439565b602060405180830381600087803b1580156118b957600080fd5b505af19250505080156118e9575060408051601f3d908101601f191682019092526118e69181019061246c565b60015b611944573d808015611917576040519150601f19603f3d011682016040523d82523d6000602084013e61191c565b606091505b50805161193c576040516368d2bf6b60e11b815260040160405180910390fd5b805181602001fd5b6001600160e01b031916630a85bd0160e11b149050949350505050565b6060600061196e600c5490565b90506000600c8054806020026020016040519081016040528092919081815260200182805480156119be57602002820191906000526020600020905b8154815260200190600101908083116119aa575b5050505050905060005b82811015611ac2578181815181106119e2576119e26122e7565b6020026020010151851015611ab057600d6000838381518110611a0757611a076122e7565b602002602001015181526020019081526020016000208054611a2890612284565b80601f0160208091040260200160405190810160405280929190818152602001828054611a5490612284565b8015611aa15780601f10611a7657610100808354040283529160200191611aa1565b820191906000526020600020905b815481529060010190602001808311611a8457829003601f168201915b50505050509350505050919050565b611abb6001826123f3565b90506119c8565b5060405162461bcd60e51b815260206004820152600f60248201526e125b9d985b1a59081d1bdad95b9259608a1b6044820152606401610508565b606081611b215750506040805180820190915260018152600360fc1b602082015290565b8160005b8115611b4b5780611b35816123a9565b9150611b449050600a83612348565b9150611b25565b6000816001600160401b03811115611b6557611b65611dc5565b6040519080825280601f01601f191660200182016040528015611b8f576020820181803683370190505b5090505b841561088f57611ba4600183612489565b9150611bb1600a866124a0565b611bbc9060306123f3565b60f81b818381518110611bd157611bd16122e7565b60200101906001600160f81b031916908160001a905350611bf3600a86612348565b9450611b93565b60606001600160a01b0384163b611c625760405162461bcd60e51b815260206004820152602660248201527f416464726573733a2064656c65676174652063616c6c20746f206e6f6e2d636f6044820152651b9d1c9858dd60d21b6064820152608401610508565b600080856001600160a01b031685604051611c7d91906124b4565b600060405180830381855af49150503d8060008114611cb8576040519150601f19603f3d011682016040523d82523d6000602084013e611cbd565b606091505b5091509150611ccd828286611cd7565b9695505050505050565b60608315611ce6575081611863565b825115611cf65782518084602001fd5b8160405162461bcd60e51b81526004016105089190611f3f565b828054611d1c90612284565b90600052602060002090601f016020900481019282611d3e5760008555611d84565b82601f10611d5757805160ff1916838001178555611d84565b82800160010185558215611d84579182015b82811115611d84578251825591602001919060010190611d69565b50611d90929150611d94565b5090565b5b80821115611d905760008155600101611d95565b80356001600160a01b0381168114611dc057600080fd5b919050565b634e487b7160e01b600052604160045260246000fd5b600082601f830112611dec57600080fd5b81356001600160401b0380821115611e0657611e06611dc5565b604051601f8301601f19908116603f01168101908282118183101715611e2e57611e2e611dc5565b81604052838152866020858801011115611e4757600080fd5b836020870160208301376000602085830101528094505050505092915050565b60008060408385031215611e7a57600080fd5b611e8383611da9565b915060208301356001600160401b03811115611e9e57600080fd5b611eaa85828601611ddb565b9150509250929050565b6001600160e01b03198116811461073957600080fd5b600060208284031215611edc57600080fd5b813561186381611eb4565b60005b83811015611f02578181015183820152602001611eea565b838111156109fe5750506000910152565b60008151808452611f2b816020860160208601611ee7565b601f01601f19169290920160200192915050565b6020815260006118636020830184611f13565b600060208284031215611f6457600080fd5b5035919050565b60008060408385031215611f7e57600080fd5b611f8783611da9565b946020939093013593505050565b600060208284031215611fa757600080fd5b61186382611da9565b600080600060608486031215611fc557600080fd5b611fce84611da9565b9250611fdc60208501611da9565b9150604084013590509250925092565b60008060408385031215611fff57600080fd5b50508035926020909101359150565b6000806000806080858703121561202457600080fd5b61202d85611da9565b93506020850135925060408501356001600160401b038082111561205057600080fd5b61205c88838901611ddb565b9350606087013591508082111561207257600080fd5b5061207f87828801611ddb565b91505092959194509250565b60006020828403121561209d57600080fd5b81356001600160401b038111156120b357600080fd5b61088f84828501611ddb565b6000806000606084860312156120d457600080fd5b83359250611fdc60208501611da9565b600080604083850312156120f757600080fd5b61210083611da9565b91506020830135801515811461211557600080fd5b809150509250929050565b6000806020838503121561213357600080fd5b82356001600160401b038082111561214a57600080fd5b818501915085601f83011261215e57600080fd5b81358181111561216d57600080fd5b8660208260051b850101111561218257600080fd5b60209290920196919550909350505050565b6000602080830181845280855180835260408601915060408160051b870101925083870160005b828110156121e957603f198886030184526121d7858351611f13565b945092850192908501906001016121bb565b5092979650505050505050565b6000806000806080858703121561220c57600080fd5b61221585611da9565b935061222360208601611da9565b92506040850135915060608501356001600160401b0381111561224557600080fd5b61207f87828801611ddb565b6000806040838503121561226457600080fd5b61226d83611da9565b915061227b60208401611da9565b90509250929050565b600181811c9082168061229857607f821691505b602082108114156122b957634e487b7160e01b600052602260045260246000fd5b50919050565b6020808252600e908201526d139bdd08185d5d1a1bdc9a5e995960921b604082015260600190565b634e487b7160e01b600052603260045260246000fd5b634e487b7160e01b600052601160045260246000fd5b600081600019048311821515161561232d5761232d6122fd565b500290565b634e487b7160e01b600052601260045260246000fd5b60008261235757612357612332565b500490565b6000808335601e1984360301811261237357600080fd5b8301803591506001600160401b0382111561238d57600080fd5b6020019150368190038213156123a257600080fd5b9250929050565b60006000198214156123bd576123bd6122fd565b5060010190565b600083516123d6818460208801611ee7565b8351908301906123ea818360208801611ee7565b01949350505050565b60008219821115612406576124066122fd565b500190565b60408152600061241e6040830185611f13565b82810360208401526124308185611f13565b95945050505050565b6001600160a01b0385811682528416602082015260408101839052608060608201819052600090611ccd90830184611f13565b60006020828403121561247e57600080fd5b815161186381611eb4565b60008282101561249b5761249b6122fd565b500390565b6000826124af576124af612332565b500690565b600082516124c6818460208701611ee7565b919091019291505056fe416464726573733a206c6f772d6c6576656c2064656c65676174652063616c6c206661696c6564ddf252ad1be2c89b69c2b068fc378daa952ba7f163c4a11628f55a4df523b3efa26469706673582212201d6c314a535e6d06af73acb83ba7cc83e88cd4a53982504c2edd396526f7c27064736f6c63430008090033a2646970667358221220662b0dbbe718305e384a74fdb6d6ad61e6e1cf1d101f1636d7a680348f577ed064736f6c63430008090033",
  "linkReferences": {},
  "deployedLinkReferences": {}
}