{
  "contractName": "BalckListProxy",
  "abi": [
    {
      "inputs": [
        {
          "internalType": "address",
          "name": "logic",
          "type": "address"
        },
        {
          "internalType": "address",
          "name": "admin",
          "type": "address"
        }
      ],
      "stateMutability": "nonpayable",
      "type": "constructor"
    },
    {
      "anonymous": false,
      "inputs": [
        {
          "indexed": false,
          "internalType": "address",
          "name": "previousAdmin",
          "type": "address"
        },
        {
          "indexed": false,
          "internalType": "address",
          "name": "newAdmin",
          "type": "address"
        }
      ],
      "name": "AdminChanged",
      "type": "event"
    },
    {
      "anonymous": false,
      "inputs": [
        {
          "indexed": true,
          "internalType": "address",
          "name": "beacon",
          "type": "address"
        }
      ],
      "name": "BeaconUpgraded",
      "type": "event"
    },
    {
      "anonymous": false,
      "inputs": [
        {
          "indexed": true,
          "internalType": "address",
          "name": "implementation",
          "type": "address"
        }
      ],
      "name": "Upgraded",
      "type": "event"
    },
    {
      "stateMutability": "payable",
      "type": "fallback",
      "payable": true
    },
    {
      "inputs": [],
      "name": "DEFAULT_DATA",
      "outputs": [
        {
          "internalType": "bytes",
          "name": "",
          "type": "bytes"
        }
      ],
      "stateMutability": "view",
      "type": "function",
      "constant": true
    },
    {
      "inputs": [],
      "name": "LASTEST_VERSION",
      "outputs": [
        {
          "internalType": "string",
          "name": "",
          "type": "string"
        }
      ],
      "stateMutability": "view",
      "type": "function",
      "constant": true
    },
    {
      "inputs": [],
      "name": "admin",
      "outputs": [
        {
          "internalType": "address",
          "name": "admin_",
          "type": "address"
        }
      ],
      "stateMutability": "nonpayable",
      "type": "function"
    },
    {
      "inputs": [
        {
          "internalType": "address",
          "name": "newAdmin",
          "type": "address"
        }
      ],
      "name": "changeAdmin",
      "outputs": [],
      "stateMutability": "nonpayable",
      "type": "function"
    },
    {
      "inputs": [],
      "name": "implementation",
      "outputs": [
        {
          "internalType": "address",
          "name": "implementation_",
          "type": "address"
        }
      ],
      "stateMutability": "nonpayable",
      "type": "function"
    },
    {
      "inputs": [
        {
          "internalType": "address",
          "name": "newImplementation",
          "type": "address"
        }
      ],
      "name": "upgradeTo",
      "outputs": [],
      "stateMutability": "nonpayable",
      "type": "function"
    },
    {
      "inputs": [
        {
          "internalType": "address",
          "name": "newImplementation",
          "type": "address"
        },
        {
          "internalType": "bytes",
          "name": "data",
          "type": "bytes"
        }
      ],
      "name": "upgradeToAndCall",
      "outputs": [],
      "stateMutability": "payable",
      "type": "function",
      "payable": true
    },
    {
      "stateMutability": "payable",
      "type": "receive",
      "payable": true
    },
    {
      "inputs": [],
      "name": "getImplementation",
      "outputs": [
        {
          "internalType": "address",
          "name": "",
          "type": "address"
        }
      ],
      "stateMutability": "view",
      "type": "function",
      "constant": true
    }
  ],
  "bytecode": "0x60806040523480156200001157600080fd5b5060405162000e7e38038062000e7e833981016040819052620000349162000483565b81816040518060200160405280600081525082816200005c828260006200007560201b60201c565b506200006a905082620000b2565b505050505062000534565b62000080836200010d565b6000825111806200008e5750805b15620000ad57620000ab83836200014f60201b620002e51760201c565b505b505050565b7f7e644d79422f17c01e4894b5f4f588d331ebfa28653d42ae832dc59e38c9798f620000dd6200017e565b604080516001600160a01b03928316815291841660208301520160405180910390a16200010a81620001b7565b50565b62000118816200026c565b6040516001600160a01b038216907fbc7cd75a20ee27fd9adebab32041f755214dbc6bffa90cc0225b39da2e5c2d3b90600090a250565b606062000177838360405180606001604052806027815260200162000e576027913962000320565b9392505050565b6000620001a860008051602062000e3783398151915260001b6200039f60201b620002971760201c565b546001600160a01b0316919050565b6001600160a01b038116620002225760405162461bcd60e51b815260206004820152602660248201527f455243313936373a206e65772061646d696e20697320746865207a65726f206160448201526564647265737360d01b60648201526084015b60405180910390fd5b806200024b60008051602062000e3783398151915260001b6200039f60201b620002971760201c565b80546001600160a01b0319166001600160a01b039290921691909117905550565b6200028281620003a260201b620003111760201c565b620002e65760405162461bcd60e51b815260206004820152602d60248201527f455243313936373a206e657720696d706c656d656e746174696f6e206973206e60448201526c1bdd08184818dbdb9d1c9858dd609a1b606482015260840162000219565b806200024b7f360894a13ba1a3210667c828492db98dca3e2076cc3735a920a3ca505d382bbc60001b6200039f60201b620002971760201c565b6060600080856001600160a01b0316856040516200033f9190620004e1565b600060405180830381855af49150503d80600081146200037c576040519150601f19603f3d011682016040523d82523d6000602084013e62000381565b606091505b5090925090506200039586838387620003b1565b9695505050505050565b90565b6001600160a01b03163b151590565b60608315620004255782516000036200041d576001600160a01b0385163b6200041d5760405162461bcd60e51b815260206004820152601d60248201527f416464726573733a2063616c6c20746f206e6f6e2d636f6e7472616374000000604482015260640162000219565b508162000431565b62000431838362000439565b949350505050565b8151156200044a5781518083602001fd5b8060405162461bcd60e51b8152600401620002199190620004ff565b80516001600160a01b03811681146200047e57600080fd5b919050565b600080604083850312156200049757600080fd5b620004a28362000466565b9150620004b26020840162000466565b90509250929050565b60005b83811015620004d8578181015183820152602001620004be565b50506000910152565b60008251620004f5818460208701620004bb565b9190910192915050565b602081526000825180602084015262000520816040850160208701620004bb565b601f01601f19169190910160400192915050565b6108f380620005446000396000f3fe60806040526004361061007f5760003560e01c80638f2839701161004e5780638f2839701461013e5780639a0704d31461015e578063aaf10f4214610181578063f851a440146101965761008e565b80633659cfe61461009657806341e0c7d4146100b65780634f1ef286146100fe5780635c60da1b146101115761008e565b3661008e5761008c6101ab565b005b61008c6101ab565b3480156100a257600080fd5b5061008c6100b1366004610779565b6101c5565b3480156100c257600080fd5b506100e86040518060400160405280600681526020016576312e302e3160d01b81525081565b6040516100f591906107e4565b60405180910390f35b61008c61010c3660046107f7565b610202565b34801561011d57600080fd5b50610126610269565b6040516001600160a01b0390911681526020016100f5565b34801561014a57600080fd5b5061008c610159366004610779565b61029a565b34801561016a57600080fd5b506100e86040518060200160405280600081525081565b34801561018d57600080fd5b506101266102ba565b3480156101a257600080fd5b506101266102c4565b6101b3610320565b6101c36101be6103b5565b6103bf565b565b6101cd6103e3565b6001600160a01b031633036101fa576101f781604051806020016040528060008152506000610416565b50565b6101f76101ab565b61020a6103e3565b6001600160a01b031633036102615761025c8383838080601f01602080910402602001604051908101604052809392919081815260200183838082843760009201919091525060019250610416915050565b505050565b61025c6101ab565b60006102736103e3565b6001600160a01b0316330361028f5761028a6103b5565b905090565b6102976101ab565b90565b6102a26103e3565b6001600160a01b031633036101fa576101f781610441565b600061028a6103b5565b60006102ce6103e3565b6001600160a01b0316330361028f5761028a6103e3565b606061030a838360405180606001604052806027815260200161089760279139610495565b9392505050565b6001600160a01b03163b151590565b6103286103e3565b6001600160a01b031633036101c35760405162461bcd60e51b815260206004820152604260248201527f5472616e73706172656e745570677261646561626c6550726f78793a2061646d60448201527f696e2063616e6e6f742066616c6c6261636b20746f2070726f78792074617267606482015261195d60f21b608482015260a4015b60405180910390fd5b600061028a61050d565b3660008037600080366000845af43d6000803e8080156103de573d6000f35b3d6000fd5b60007fb53127684a568b3173ae13b9f8a6016e243e63b6e8ee1178d6a717850b5d61035b546001600160a01b0316919050565b61041f83610535565b60008251118061042c5750805b1561025c5761043b83836102e5565b50505050565b7f7e644d79422f17c01e4894b5f4f588d331ebfa28653d42ae832dc59e38c9798f61046a6103e3565b604080516001600160a01b03928316815291841660208301520160405180910390a16101f781610575565b6060600080856001600160a01b0316856040516104b2919061087a565b600060405180830381855af49150503d80600081146104ed576040519150601f19603f3d011682016040523d82523d6000602084013e6104f2565b606091505b50915091506105038683838761061e565b9695505050505050565b60007f360894a13ba1a3210667c828492db98dca3e2076cc3735a920a3ca505d382bbc610407565b61053e8161069f565b6040516001600160a01b038216907fbc7cd75a20ee27fd9adebab32041f755214dbc6bffa90cc0225b39da2e5c2d3b90600090a250565b6001600160a01b0381166105da5760405162461bcd60e51b815260206004820152602660248201527f455243313936373a206e65772061646d696e20697320746865207a65726f206160448201526564647265737360d01b60648201526084016103ac565b807fb53127684a568b3173ae13b9f8a6016e243e63b6e8ee1178d6a717850b5d61035b80546001600160a01b0319166001600160a01b039290921691909117905550565b6060831561068d578251600003610686576001600160a01b0385163b6106865760405162461bcd60e51b815260206004820152601d60248201527f416464726573733a2063616c6c20746f206e6f6e2d636f6e747261637400000060448201526064016103ac565b5081610697565b6106978383610733565b949350505050565b6001600160a01b0381163b61070c5760405162461bcd60e51b815260206004820152602d60248201527f455243313936373a206e657720696d706c656d656e746174696f6e206973206e60448201526c1bdd08184818dbdb9d1c9858dd609a1b60648201526084016103ac565b807f360894a13ba1a3210667c828492db98dca3e2076cc3735a920a3ca505d382bbc6105fd565b8151156107435781518083602001fd5b8060405162461bcd60e51b81526004016103ac91906107e4565b80356001600160a01b038116811461077457600080fd5b919050565b60006020828403121561078b57600080fd5b61030a8261075d565b60005b838110156107af578181015183820152602001610797565b50506000910152565b600081518084526107d0816020860160208601610794565b601f01601f19169290920160200192915050565b60208152600061030a60208301846107b8565b60008060006040848603121561080c57600080fd5b6108158461075d565b9250602084013567ffffffffffffffff8082111561083257600080fd5b818601915086601f83011261084657600080fd5b81358181111561085557600080fd5b87602082850101111561086757600080fd5b6020830194508093505050509250925092565b6000825161088c818460208701610794565b919091019291505056fe416464726573733a206c6f772d6c6576656c2064656c65676174652063616c6c206661696c6564a26469706673582212201000a605c4bdaf762b52b501fa278ab90d5cc8b87a5654d207906aa70f38d13164736f6c63430008100033b53127684a568b3173ae13b9f8a6016e243e63b6e8ee1178d6a717850b5d6103416464726573733a206c6f772d6c6576656c2064656c65676174652063616c6c206661696c6564",
  "immutableReferences": {},
  "source": "// SPDX-License-Identifier: SimPL-2.0\n\npragma solidity ^0.8.0;\n\nimport \"@openzeppelin/contracts/proxy/transparent/TransparentUpgradeableProxy.sol\";\n\n/**\n * @title Major Factory Contract\n * @notice HorseRace is a NFT horse racing metaverse based on pylogon\n * @notice ....\n *\n * @notice Website: https://horse-racing.io/\n * @notice Docs: https://horse-racing.gitbook.io/horse-racing-docs/\n * \n * @dev Version: v1.0.1\n */\ncontract BalckListProxy is TransparentUpgradeableProxy {\n    /** @notice Version of contract */\n    string constant public LASTEST_VERSION = \"v1.0.1\";\n\n    /** @notice Zero bytes for transparent upgradeable proxy data */\n    bytes constant public DEFAULT_DATA = \"\";\n\n    constructor(\n        address logic, address admin\n    ) TransparentUpgradeableProxy(logic, admin, DEFAULT_DATA) {\n\n    }\n\n    function getImplementation() public view returns (address) {\n        return _implementation();\n    }\n}",
  "sourcePath": "/Users/cea/Projects/myself/knowlage-dapp/contracts/know-proxy/BlackListProxy.sol",
  "compiler": {
    "name": "solc",
    "version": "0.8.16+commit.07a7930e.Emscripten.clang"
  },
  "schemaVersion": "3.4.9",
  "updatedAt": "2022-12-15T08:49:32.644Z",
  "networkType": "ethereum",
  "devdoc": {
    "details": "Version: v1.0.1",
    "kind": "dev",
    "methods": {
      "admin()": {
        "details": "Returns the current admin. NOTE: Only the admin can call this function. See {ProxyAdmin-getProxyAdmin}. TIP: To get this value clients can read directly from the storage slot shown below (specified by EIP1967) using the https://eth.wiki/json-rpc/API#eth_getstorageat[`eth_getStorageAt`] RPC call. `0xb53127684a568b3173ae13b9f8a6016e243e63b6e8ee1178d6a717850b5d6103`"
      },
      "changeAdmin(address)": {
        "details": "Changes the admin of the proxy. Emits an {AdminChanged} event. NOTE: Only the admin can call this function. See {ProxyAdmin-changeProxyAdmin}."
      },
      "implementation()": {
        "details": "Returns the current implementation. NOTE: Only the admin can call this function. See {ProxyAdmin-getProxyImplementation}. TIP: To get this value clients can read directly from the storage slot shown below (specified by EIP1967) using the https://eth.wiki/json-rpc/API#eth_getstorageat[`eth_getStorageAt`] RPC call. `0x360894a13ba1a3210667c828492db98dca3e2076cc3735a920a3ca505d382bbc`"
      },
      "upgradeTo(address)": {
        "details": "Upgrade the implementation of the proxy. NOTE: Only the admin can call this function. See {ProxyAdmin-upgrade}."
      },
      "upgradeToAndCall(address,bytes)": {
        "details": "Upgrade the implementation of the proxy, and then call a function from the new implementation as specified by `data`, which should be an encoded function call. This is useful to initialize new storage variables in the proxied contract. NOTE: Only the admin can call this function. See {ProxyAdmin-upgradeAndCall}."
      }
    },
    "title": "Major Factory Contract",
    "version": 1
  },
  "userdoc": {
    "kind": "user",
    "methods": {
      "DEFAULT_DATA()": {
        "notice": "Zero bytes for transparent upgradeable proxy data "
      },
      "LASTEST_VERSION()": {
        "notice": "Version of contract "
      }
    },
    "notice": "HorseRace is a NFT horse racing metaverse based on pylogon....Website: https://horse-racing.io/Docs: https://horse-racing.gitbook.io/horse-racing-docs/ ",
    "version": 1
  }
}