{
  "contractName": "MajorFactory",
  "abi": [
    {
      "inputs": [
        {
          "internalType": "address",
          "name": "tmpl",
          "type": "address"
        },
        {
          "internalType": "address[5]",
          "name": "addrs",
          "type": "address[5]"
        }
      ],
      "stateMutability": "nonpayable",
      "type": "constructor"
    },
    {
      "anonymous": false,
      "inputs": [
        {
          "indexed": false,
          "internalType": "address",
          "name": "subject",
          "type": "address"
        },
        {
          "indexed": false,
          "internalType": "address",
          "name": "admin",
          "type": "address"
        },
        {
          "indexed": false,
          "internalType": "uint256",
          "name": "blockNumber",
          "type": "uint256"
        }
      ],
      "name": "AddSubjectForMajor",
      "type": "event"
    },
    {
      "anonymous": false,
      "inputs": [
        {
          "indexed": false,
          "internalType": "bytes32",
          "name": "majorId",
          "type": "bytes32"
        },
        {
          "indexed": false,
          "internalType": "address",
          "name": "admin",
          "type": "address"
        },
        {
          "indexed": false,
          "internalType": "uint256",
          "name": "blockNumber",
          "type": "uint256"
        }
      ],
      "name": "OpenMajor",
      "type": "event"
    },
    {
      "anonymous": false,
      "inputs": [
        {
          "indexed": false,
          "internalType": "address",
          "name": "account",
          "type": "address"
        }
      ],
      "name": "Paused",
      "type": "event"
    },
    {
      "anonymous": false,
      "inputs": [
        {
          "indexed": true,
          "internalType": "bytes32",
          "name": "role",
          "type": "bytes32"
        },
        {
          "indexed": true,
          "internalType": "bytes32",
          "name": "previousAdminRole",
          "type": "bytes32"
        },
        {
          "indexed": true,
          "internalType": "bytes32",
          "name": "newAdminRole",
          "type": "bytes32"
        }
      ],
      "name": "RoleAdminChanged",
      "type": "event"
    },
    {
      "anonymous": false,
      "inputs": [
        {
          "indexed": true,
          "internalType": "bytes32",
          "name": "role",
          "type": "bytes32"
        },
        {
          "indexed": true,
          "internalType": "address",
          "name": "account",
          "type": "address"
        },
        {
          "indexed": true,
          "internalType": "address",
          "name": "sender",
          "type": "address"
        }
      ],
      "name": "RoleGranted",
      "type": "event"
    },
    {
      "anonymous": false,
      "inputs": [
        {
          "indexed": true,
          "internalType": "bytes32",
          "name": "role",
          "type": "bytes32"
        },
        {
          "indexed": true,
          "internalType": "address",
          "name": "account",
          "type": "address"
        },
        {
          "indexed": true,
          "internalType": "address",
          "name": "sender",
          "type": "address"
        }
      ],
      "name": "RoleRevoked",
      "type": "event"
    },
    {
      "anonymous": false,
      "inputs": [
        {
          "indexed": false,
          "internalType": "bytes32",
          "name": "majorId",
          "type": "bytes32"
        },
        {
          "indexed": false,
          "internalType": "address",
          "name": "admin",
          "type": "address"
        },
        {
          "indexed": false,
          "internalType": "uint256",
          "name": "status",
          "type": "uint256"
        }
      ],
      "name": "ToggleMajorStatus",
      "type": "event"
    },
    {
      "anonymous": false,
      "inputs": [
        {
          "indexed": false,
          "internalType": "bytes32",
          "name": "majorId",
          "type": "bytes32"
        },
        {
          "indexed": false,
          "internalType": "address",
          "name": "admin",
          "type": "address"
        },
        {
          "indexed": false,
          "internalType": "address",
          "name": "subject",
          "type": "address"
        },
        {
          "indexed": false,
          "internalType": "uint256",
          "name": "status",
          "type": "uint256"
        }
      ],
      "name": "ToggleSubjectStatus",
      "type": "event"
    },
    {
      "anonymous": false,
      "inputs": [
        {
          "indexed": false,
          "internalType": "address",
          "name": "account",
          "type": "address"
        }
      ],
      "name": "Unpaused",
      "type": "event"
    },
    {
      "inputs": [],
      "name": "ADMIN_ROLE",
      "outputs": [
        {
          "internalType": "bytes32",
          "name": "",
          "type": "bytes32"
        }
      ],
      "stateMutability": "view",
      "type": "function",
      "constant": true
    },
    {
      "inputs": [],
      "name": "DEFAULT_ADMIN_ROLE",
      "outputs": [
        {
          "internalType": "bytes32",
          "name": "",
          "type": "bytes32"
        }
      ],
      "stateMutability": "view",
      "type": "function",
      "constant": true
    },
    {
      "inputs": [],
      "name": "LASTEST_VERSION",
      "outputs": [
        {
          "internalType": "string",
          "name": "",
          "type": "string"
        }
      ],
      "stateMutability": "view",
      "type": "function",
      "constant": true
    },
    {
      "inputs": [
        {
          "internalType": "bytes32",
          "name": "role",
          "type": "bytes32"
        }
      ],
      "name": "getRoleAdmin",
      "outputs": [
        {
          "internalType": "bytes32",
          "name": "",
          "type": "bytes32"
        }
      ],
      "stateMutability": "view",
      "type": "function",
      "constant": true
    },
    {
      "inputs": [
        {
          "internalType": "bytes32",
          "name": "role",
          "type": "bytes32"
        },
        {
          "internalType": "address",
          "name": "account",
          "type": "address"
        }
      ],
      "name": "grantRole",
      "outputs": [],
      "stateMutability": "nonpayable",
      "type": "function"
    },
    {
      "inputs": [
        {
          "internalType": "bytes32",
          "name": "role",
          "type": "bytes32"
        },
        {
          "internalType": "address",
          "name": "account",
          "type": "address"
        }
      ],
      "name": "hasRole",
      "outputs": [
        {
          "internalType": "bool",
          "name": "",
          "type": "bool"
        }
      ],
      "stateMutability": "view",
      "type": "function",
      "constant": true
    },
    {
      "inputs": [],
      "name": "paused",
      "outputs": [
        {
          "internalType": "bool",
          "name": "",
          "type": "bool"
        }
      ],
      "stateMutability": "view",
      "type": "function",
      "constant": true
    },
    {
      "inputs": [
        {
          "internalType": "uint256",
          "name": "",
          "type": "uint256"
        }
      ],
      "name": "proxys",
      "outputs": [
        {
          "internalType": "address",
          "name": "",
          "type": "address"
        }
      ],
      "stateMutability": "view",
      "type": "function",
      "constant": true
    },
    {
      "inputs": [
        {
          "internalType": "bytes32",
          "name": "role",
          "type": "bytes32"
        },
        {
          "internalType": "address",
          "name": "account",
          "type": "address"
        }
      ],
      "name": "renounceRole",
      "outputs": [],
      "stateMutability": "nonpayable",
      "type": "function"
    },
    {
      "inputs": [
        {
          "internalType": "bytes32",
          "name": "role",
          "type": "bytes32"
        },
        {
          "internalType": "address",
          "name": "account",
          "type": "address"
        }
      ],
      "name": "revokeRole",
      "outputs": [],
      "stateMutability": "nonpayable",
      "type": "function"
    },
    {
      "inputs": [],
      "name": "subjectTemplate",
      "outputs": [
        {
          "internalType": "address",
          "name": "",
          "type": "address"
        }
      ],
      "stateMutability": "view",
      "type": "function",
      "constant": true
    },
    {
      "inputs": [
        {
          "internalType": "bytes4",
          "name": "interfaceId",
          "type": "bytes4"
        }
      ],
      "name": "supportsInterface",
      "outputs": [
        {
          "internalType": "bool",
          "name": "",
          "type": "bool"
        }
      ],
      "stateMutability": "view",
      "type": "function",
      "constant": true
    },
    {
      "inputs": [],
      "name": "getMajors",
      "outputs": [
        {
          "internalType": "string[]",
          "name": "majorURIs",
          "type": "string[]"
        },
        {
          "internalType": "bytes32[]",
          "name": "majorIds",
          "type": "bytes32[]"
        }
      ],
      "stateMutability": "view",
      "type": "function",
      "constant": true
    },
    {
      "inputs": [
        {
          "internalType": "bytes32",
          "name": "majorId",
          "type": "bytes32"
        }
      ],
      "name": "getSubjects",
      "outputs": [
        {
          "internalType": "string[]",
          "name": "subjectURIs",
          "type": "string[]"
        },
        {
          "internalType": "address[]",
          "name": "subjectAddrs",
          "type": "address[]"
        }
      ],
      "stateMutability": "view",
      "type": "function",
      "constant": true
    },
    {
      "inputs": [
        {
          "internalType": "address",
          "name": "templ",
          "type": "address"
        }
      ],
      "name": "setSubjectTemplate",
      "outputs": [],
      "stateMutability": "nonpayable",
      "type": "function"
    },
    {
      "inputs": [
        {
          "internalType": "string",
          "name": "majorURI",
          "type": "string"
        }
      ],
      "name": "openMajor",
      "outputs": [],
      "stateMutability": "nonpayable",
      "type": "function"
    },
    {
      "inputs": [
        {
          "internalType": "bytes32",
          "name": "majorId",
          "type": "bytes32"
        },
        {
          "internalType": "uint256",
          "name": "status",
          "type": "uint256"
        }
      ],
      "name": "toggleMajorStatus",
      "outputs": [],
      "stateMutability": "nonpayable",
      "type": "function"
    },
    {
      "inputs": [
        {
          "internalType": "bytes32",
          "name": "majorId",
          "type": "bytes32"
        },
        {
          "internalType": "string",
          "name": "subjectURI",
          "type": "string"
        }
      ],
      "name": "addSubjectForMajor",
      "outputs": [],
      "stateMutability": "nonpayable",
      "type": "function"
    },
    {
      "inputs": [
        {
          "internalType": "bytes32",
          "name": "majorId",
          "type": "bytes32"
        },
        {
          "internalType": "address",
          "name": "subject",
          "type": "address"
        },
        {
          "internalType": "uint256",
          "name": "status",
          "type": "uint256"
        }
      ],
      "name": "toggleSubjectStatus",
      "outputs": [],
      "stateMutability": "nonpayable",
      "type": "function"
    }
  ],
  "bytecode": "0x60806040523480156200001157600080fd5b5060405162001c7d38038062001c7d8339810160408190526200003491620001ec565b600180546001600160a81b0319166101006001600160a01b0385160217905562000062600282600562000145565b506200008f7fa49807205ce4d355092ef5a8a18f56e8913cf4a201fbe287825b095693c2177533620000a4565b6200009c600033620000a4565b50506200028f565b6000828152602081815260408083206001600160a01b038516845290915290205460ff1662000141576000828152602081815260408083206001600160a01b03851684529091529020805460ff19166001179055620001003390565b6001600160a01b0316816001600160a01b0316837f2f8788117e7eff1d82e926ec794901d17c78024a50270940304540a733656f0d60405160405180910390a45b5050565b826005810192821562000190579160200282015b828111156200019057825182546001600160a01b0319166001600160a01b0390911617825560209092019160019091019062000159565b506200019e929150620001a2565b5090565b5b808211156200019e5760008155600101620001a3565b80516001600160a01b0381168114620001d157600080fd5b919050565b634e487b7160e01b600052604160045260246000fd5b60008060c083850312156200020057600080fd5b6200020b83620001b9565b9150602084603f8501126200021f57600080fd5b60405160a081016001600160401b0381118282101715620002445762000244620001d6565b6040528060c08601878111156200025a57600080fd5b8387015b8181101562000280576200027281620001b9565b83529184019184016200025e565b50505080925050509250929050565b6119de806200029f6000396000f3fe608060405234801561001057600080fd5b50600436106101205760003560e01c8063584db37d116100ad578063a217fddf11610071578063a217fddf146102ab578063aff84ece146102b3578063d547741f146102c6578063e0f0a20f146102d9578063fe5eee73146102ec57600080fd5b8063584db37d146102525780635c975abb1461026557806375b238fc1461027057806391d14854146102855780639eaf24981461029857600080fd5b80631c585e67116100f45780631c585e67146101a8578063248a9ca3146101c95780632f2ff15d146101fa57806336568abe1461020d57806341e0c7d41461022057600080fd5b80625f61591461012557806301ffc9a71461013a5780631296278114610162578063147075c314610178575b600080fd5b610138610133366004611321565b6102ff565b005b61014d61014836600461133e565b610364565b60405190151581526020015b60405180910390f35b61016a61039b565b604051610159929190611410565b6001546101909061010090046001600160a01b031681565b6040516001600160a01b039091168152602001610159565b6101bb6101b636600461145a565b610564565b604051610159929190611473565b6101ec6101d736600461145a565b60009081526020819052604090206001015490565b604051908152602001610159565b6101386102083660046114c6565b610766565b61013861021b3660046114c6565b610790565b6102456040518060400160405280600681526020016576312e302e3160d01b81525081565b60405161015991906114f6565b6101386102603660046115ac565b61080e565b60015460ff1661014d565b6101ec60008051602061198983398151915281565b61014d6102933660046114c6565b610ae9565b6101386102a63660046115f3565b610b12565b6101ec600081565b6101906102c136600461145a565b610bed565b6101386102d43660046114c6565b610c0d565b6101386102e7366004611615565b610c32565b6101386102fa36600461164d565b610d7e565b61031760008051602061198983398151915233610ae9565b61033c5760405162461bcd60e51b81526004016103339061168a565b60405180910390fd5b600180546001600160a01b0390921661010002610100600160a81b0319909216919091179055565b60006001600160e01b03198216637965db0b60e01b148061039557506301ffc9a760e01b6001600160e01b03198316145b92915050565b6060806103a86007610e84565b67ffffffffffffffff8111156103c0576103c0611509565b6040519080825280602002602001820160405280156103f357816020015b60608152602001906001900390816103de5790505b509150815167ffffffffffffffff81111561041057610410611509565b604051908082528060200260200182016040528015610439578160200160208202803683370190505b50905060005b825181101561055f576000610455600783610e8e565b60008181526009602052604090206001015490915015610475575061054d565b80838381518110610488576104886116ae565b602090810291909101810191909152600082815260099091526040902080546104b0906116c4565b80601f01602080910402602001604051908101604052809291908181526020018280546104dc906116c4565b80156105295780601f106104fe57610100808354040283529160200191610529565b820191906000526020600020905b81548152906001019060200180831161050c57829003601f168201915b5050505050848381518110610540576105406116ae565b6020026020010181905250505b8061055781611714565b91505061043f565b509091565b6000818152600960205260409020606090819061058390600201610e84565b67ffffffffffffffff81111561059b5761059b611509565b6040519080825280602002602001820160405280156105ce57816020015b60608152602001906001900390816105b95790505b509150815167ffffffffffffffff8111156105eb576105eb611509565b604051908082528060200260200182016040528015610614578160200160208202803683370190505b50905060005b825181101561076057600084815260096020526040812061063e9060020183610e8e565b6001600160a01b0381166000908152600a602052604090206001015490915015610668575061074e565b8083838151811061067b5761067b6116ae565b6001600160a01b039283166020918202929092018101919091529082166000908152600a9091526040902080546106b1906116c4565b80601f01602080910402602001604051908101604052809291908181526020018280546106dd906116c4565b801561072a5780601f106106ff5761010080835404028352916020019161072a565b820191906000526020600020905b81548152906001019060200180831161070d57829003601f168201915b5050505050848381518110610741576107416116ae565b6020026020010181905250505b8061075881611714565b91505061061a565b50915091565b60008281526020819052604090206001015461078181610ea1565b61078b8383610eae565b505050565b6001600160a01b03811633146108005760405162461bcd60e51b815260206004820152602f60248201527f416363657373436f6e74726f6c3a2063616e206f6e6c792072656e6f756e636560448201526e103937b632b9903337b91039b2b63360891b6064820152608401610333565b61080a8282610f32565b5050565b61082660008051602061198983398151915233610ae9565b6108425760405162461bcd60e51b81526004016103339061168a565b61084d600783610f97565b6108865760405162461bcd60e51b815260206004820152600a6024820152694e4f545f45584953545360b01b6044820152606401610333565b60006108a460018054906101000a90046001600160a01b0316610faf565b604051631fb4172760e31b81529091506001600160a01b0382169063fda0b938906108d8903390600290879060040161172d565b600060405180830381600087803b1580156108f257600080fd5b505af1158015610906573d6000803e3d6000fd5b5050506000848152600960205260409020610925915060020182611049565b506001600160a01b0381166000908152600a6020526040902061094883826117d4565b506002546040805163557887a160e11b815290516000926001600160a01b03169163aaf10f429160048083019260209291908290030181865afa158015610993573d6000803e3d6000fd5b505050506040513d601f19601f820116820180604052508101906109b79190611894565b90506000819050806001600160a01b0316632f2ff15d826001600160a01b031663d53913936040518163ffffffff1660e01b8152600401602060405180830381865afa158015610a0b573d6000803e3d6000fd5b505050506040513d601f19601f82011682018060405250810190610a2f91906118b1565b6040516001600160e01b031960e084901b16815260048101919091526001600160a01b0386166024820152604401600060405180830381600087803b158015610a7757600080fd5b505af1158015610a8b573d6000803e3d6000fd5b505050507fd444671749eb9978b9c5ef890c5b62d1b31af912414bc0c20368520146e4158283610ab83390565b604080516001600160a01b039384168152929091166020830152439082015260600160405180910390a15050505050565b6000918252602082815260408084206001600160a01b0393909316845291905290205460ff1690565b610b2a60008051602061198983398151915233610ae9565b610b465760405162461bcd60e51b81526004016103339061168a565b610b51600783610f97565b610b8a5760405162461bcd60e51b815260206004820152600a6024820152694e4f545f45584953545360b01b6044820152606401610333565b60008281526009602052604090206001018190557f72546cbc50f82bde8eed98ecbb15238d8ecbc676bd52689b944e4a7de04807a58233604080519283526001600160a01b03909116602083015281018390526060015b60405180910390a15050565b60028160058110610bfd57600080fd5b01546001600160a01b0316905081565b600082815260208190526040902060010154610c2881610ea1565b61078b8383610f32565b610c4a60008051602061198983398151915233610ae9565b610c665760405162461bcd60e51b81526004016103339061168a565b610c71600784610f97565b610cb05760405162461bcd60e51b815260206004820152601060248201526f4d414a4f525f4e4f545f45584953545360801b6044820152606401610333565b6000838152600960205260409020610ccb906002018361105e565b610d085760405162461bcd60e51b815260206004820152600e60248201526d5355425f4e4f545f45584953545360901b6044820152606401610333565b6001600160a01b0382166000908152600a602052604090206001018190557fbd933b5fe427f9e9fe1007d29f099192b7a0d215eac4cc011924dff30fa8f1248333604080519283526001600160a01b039182166020840152908516908201526060810183905260800160405180910390a1505050565b610d9660008051602061198983398151915233610ae9565b610db25760405162461bcd60e51b81526004016103339061168a565b600081604051602001610dc591906114f6565b60408051601f1981840301815291905280516020909101209050610dea600782610f97565b15610e205760405162461bcd60e51b815260206004820152600660248201526513d41153915160d21b6044820152606401610333565b610e2b600782611080565b506000818152600960205260409020610e4483826117d4565b506040805182815233602082015243918101919091527f4ea21d6023706592c96c804c6c29bd4f700b59700edd0fe88432193201a9ae3690606001610be1565b6000610395825490565b6000610e9a838361108c565b9392505050565b610eab81336110b6565b50565b610eb88282610ae9565b61080a576000828152602081815260408083206001600160a01b03851684529091529020805460ff19166001179055610eee3390565b6001600160a01b0316816001600160a01b0316837f2f8788117e7eff1d82e926ec794901d17c78024a50270940304540a733656f0d60405160405180910390a45050565b610f3c8282610ae9565b1561080a576000828152602081815260408083206001600160a01b0385168085529252808320805460ff1916905551339285917ff6391f5c32d9c69d2a47ea670b442974b53935d1edc7fd64eb21e047a839171b9190a45050565b60008181526001830160205260408120541515610e9a565b6000763d602d80600a3d3981f3363d3d373d3d3d363d730000008260601b60e81c176000526e5af43d82803e903d91602b57fd5bf38260781b17602052603760096000f090506001600160a01b0381166110445760405162461bcd60e51b8152602060048201526016602482015275115490cc4c4d8dce8818dc99585d194819985a5b195960521b6044820152606401610333565b919050565b6000610e9a836001600160a01b03841661110f565b6001600160a01b03811660009081526001830160205260408120541515610e9a565b6000610e9a838361110f565b60008260000182815481106110a3576110a36116ae565b9060005260206000200154905092915050565b6110c08282610ae9565b61080a576110cd8161115e565b6110d8836020611170565b6040516020016110e99291906118ca565b60408051601f198184030181529082905262461bcd60e51b8252610333916004016114f6565b600081815260018301602052604081205461115657508154600181810184556000848152602080822090930184905584548482528286019093526040902091909155610395565b506000610395565b60606103956001600160a01b03831660145b6060600061117f83600261193f565b61118a90600261195e565b67ffffffffffffffff8111156111a2576111a2611509565b6040519080825280601f01601f1916602001820160405280156111cc576020820181803683370190505b509050600360fc1b816000815181106111e7576111e76116ae565b60200101906001600160f81b031916908160001a905350600f60fb1b81600181518110611216576112166116ae565b60200101906001600160f81b031916908160001a905350600061123a84600261193f565b61124590600161195e565b90505b60018111156112bd576f181899199a1a9b1b9c1cb0b131b232b360811b85600f1660108110611279576112796116ae565b1a60f81b82828151811061128f5761128f6116ae565b60200101906001600160f81b031916908160001a90535060049490941c936112b681611971565b9050611248565b508315610e9a5760405162461bcd60e51b815260206004820181905260248201527f537472696e67733a20686578206c656e67746820696e73756666696369656e746044820152606401610333565b6001600160a01b0381168114610eab57600080fd5b60006020828403121561133357600080fd5b8135610e9a8161130c565b60006020828403121561135057600080fd5b81356001600160e01b031981168114610e9a57600080fd5b60005b8381101561138357818101518382015260200161136b565b50506000910152565b600081518084526113a4816020860160208601611368565b601f01601f19169290920160200192915050565b600082825180855260208086019550808260051b84010181860160005b8481101561140357601f198684030189526113f183835161138c565b988401989250908301906001016113d5565b5090979650505050505050565b60408152600061142360408301856113b8565b82810360208481019190915284518083528582019282019060005b818110156114035784518352938301939183019160010161143e565b60006020828403121561146c57600080fd5b5035919050565b60408152600061148660408301856113b8565b82810360208481019190915284518083528582019282019060005b818110156114035784516001600160a01b0316835293830193918301916001016114a1565b600080604083850312156114d957600080fd5b8235915060208301356114eb8161130c565b809150509250929050565b602081526000610e9a602083018461138c565b634e487b7160e01b600052604160045260246000fd5b600082601f83011261153057600080fd5b813567ffffffffffffffff8082111561154b5761154b611509565b604051601f8301601f19908116603f0116810190828211818310171561157357611573611509565b8160405283815286602085880101111561158c57600080fd5b836020870160208301376000602085830101528094505050505092915050565b600080604083850312156115bf57600080fd5b82359150602083013567ffffffffffffffff8111156115dd57600080fd5b6115e98582860161151f565b9150509250929050565b6000806040838503121561160657600080fd5b50508035926020909101359150565b60008060006060848603121561162a57600080fd5b83359250602084013561163c8161130c565b929592945050506040919091013590565b60006020828403121561165f57600080fd5b813567ffffffffffffffff81111561167657600080fd5b6116828482850161151f565b949350505050565b6020808252600a908201526927a7262cafa0a226a4a760b11b604082015260600190565b634e487b7160e01b600052603260045260246000fd5b600181811c908216806116d857607f821691505b6020821081036116f857634e487b7160e01b600052602260045260246000fd5b50919050565b634e487b7160e01b600052601160045260246000fd5b600060018201611726576117266116fe565b5060010190565b6001600160a01b038481168252600090602080840186845b6005811015611764578154851683529183019160019182019101611745565b505050505060e060c083015261177d60e083018461138c565b95945050505050565b601f82111561078b57600081815260208120601f850160051c810160208610156117ad5750805b601f850160051c820191505b818110156117cc578281556001016117b9565b505050505050565b815167ffffffffffffffff8111156117ee576117ee611509565b611802816117fc84546116c4565b84611786565b602080601f831160018114611837576000841561181f5750858301515b600019600386901b1c1916600185901b1785556117cc565b600085815260208120601f198616915b8281101561186657888601518255948401946001909101908401611847565b50858210156118845787850151600019600388901b60f8161c191681555b5050505050600190811b01905550565b6000602082840312156118a657600080fd5b8151610e9a8161130c565b6000602082840312156118c357600080fd5b5051919050565b7f416363657373436f6e74726f6c3a206163636f756e7420000000000000000000815260008351611902816017850160208801611368565b7001034b99036b4b9b9b4b733903937b6329607d1b6017918401918201528351611933816028840160208801611368565b01602801949350505050565b6000816000190483118215151615611959576119596116fe565b500290565b80820180821115610395576103956116fe565b600081611980576119806116fe565b50600019019056fea49807205ce4d355092ef5a8a18f56e8913cf4a201fbe287825b095693c21775a26469706673582212201d252ff8d61271c9b76d598b2fa6cfaa6e9f9299069a12485c9874f9d93c2a8264736f6c63430008100033",
  "immutableReferences": {},
  "source": "// SPDX-License-Identifier: SimPL-2.0\n\npragma solidity ^0.8.0;\n\nimport \"../know-token/KnowlageToken.sol\";\nimport \"../know-proxy/TokenProxy.sol\";\nimport \"../know-template/SubjectTemplate.sol\";\n\nimport \"@openzeppelin/contracts/access/AccessControl.sol\";\nimport \"@openzeppelin/contracts/security/Pausable.sol\";\n\nimport \"@openzeppelin/contracts/utils/structs/EnumerableSet.sol\";\nimport \"@openzeppelin/contracts/proxy/Clones.sol\";\n\n/**\n * @title Major Factory Contract\n * @notice HorseRace is a NFT horse racing metaverse based on pylogon\n * @notice ....\n *\n * @notice Website: https://horse-racing.io/\n * @notice Docs: https://horse-racing.gitbook.io/horse-racing-docs/\n * \n * @dev Version: v1.0.1\n */\ncontract MajorFactory is AccessControl, Pausable {\n    using EnumerableSet for EnumerableSet.Bytes32Set;\n    using EnumerableSet for EnumerableSet.AddressSet;\n\n    /**\n     * @notice Major Struct - Major Detail\n     *\n     * @dev majorURI The json URI of major detail\n     * @dev status The status of major (0: Normal 1: Abnormal)\n     * @dev subjects The subject contract address of major\n     */\n    struct Major {\n        string majorURI; uint256 status; EnumerableSet.AddressSet subjects;\n    }\n\n    /**\n     * @notice Subject Struct - Subject Detail\n     *\n     * @dev subjectURI The json URI of subject detail\n     * @dev status The status of subject (0: Normal 1: Abnormal)\n     */\n    struct Subject { string subjectURI; uint256 status; }\n\n    /** @notice Version of contract */\n    string constant public LASTEST_VERSION = \"v1.0.1\";\n\n    /** @notice The role of access control - (admin role) */\n    bytes32 constant public ADMIN_ROLE = keccak256(\"ADMIN_ROLE\");\n\n    /** @notice Subject contract template address - For add new subject contract */\n    address public subjectTemplate;\n\n    /**\n     * @notice Proxy Address List - (Upgradeable)\n     *\n     * @dev 0 - Address of token proxy contract - For subject mint token\n     * @dev 1 - Address of transfer proxy contract - For subject transfer token\n     * @dev 2 - Address of black list proxy contract - For subject black list\n     * @dev 3 - Address of fee receiver proxy contract - For subject transfer fee\n     * @dev 4 - Address of ticket lp token contract - For subject transfer ticket token\n     */\n    address[5] public proxys;\n\n    /** @notice Major's id list - For get major uri list */\n    EnumerableSet.Bytes32Set private _majorIds;\n\n    /** @notice The map of all major. See { MajorFactory - Major } */\n    mapping (bytes32 => Major) private _majors;\n\n    /** @notice The map of all subject. See { MajorFactory - Subject } */\n    mapping (address => Subject) private _subjects;\n\n    event OpenMajor(bytes32 majorId, address admin, uint256 blockNumber);\n    event ToggleMajorStatus(bytes32 majorId, address admin, uint256 status);\n    event AddSubjectForMajor(address subject, address admin, uint256 blockNumber);\n    event ToggleSubjectStatus(bytes32 majorId, address admin, address subject, uint256 status);\n\n\n    constructor(address tmpl, address[5] memory addrs) {\n        subjectTemplate = tmpl;\n        proxys = addrs;\n\n        _grantRole(ADMIN_ROLE, _msgSender());\n        _grantRole(DEFAULT_ADMIN_ROLE, _msgSender());\n    }\n\n    /** @notice Get all major's json URIs */\n    function getMajors() public view returns (\n        string[] memory majorURIs, bytes32[] memory majorIds\n    ) {\n        majorURIs = new string[](_majorIds.length());\n        majorIds = new bytes32[](majorURIs.length);\n\n        for (uint256 index = 0; index < majorURIs.length; index++) {\n            bytes32 majorId = _majorIds.at(index);\n            if (_majors[majorId].status != 0) continue;\n\n            majorIds[index] = majorId;\n            majorURIs[index] = _majors[majorId].majorURI;\n        }\n    }\n\n    function getSubjects(bytes32 majorId) public view returns (\n        string[] memory subjectURIs, address[] memory subjectAddrs\n    ) {\n        subjectURIs = new string[](_majors[majorId].subjects.length());\n        subjectAddrs = new address[](subjectURIs.length);\n\n        for (uint256 index = 0; index < subjectURIs.length; index++) {\n            address subject = _majors[majorId].subjects.at(index);\n            if (_subjects[subject].status != 0) continue;\n\n            subjectAddrs[index] = subject;\n            subjectURIs[index] = _subjects[subject].subjectURI;\n        }\n    }\n\n    function setSubjectTemplate(address templ) public {\n        require(hasRole(ADMIN_ROLE, _msgSender()), \"ONLY_ADMIN\");\n        subjectTemplate = templ;\n    }\n\n    function openMajor(string memory majorURI) public {\n        require(hasRole(ADMIN_ROLE, _msgSender()), \"ONLY_ADMIN\");\n        bytes32 majorId = keccak256(abi.encode(majorURI));\n        require(!_majorIds.contains(majorId), \"OPENED\");\n\n        _majorIds.add(majorId);\n        _majors[majorId].majorURI = majorURI;\n\n        emit OpenMajor(majorId, _msgSender(), block.number);\n    }\n\n    function toggleMajorStatus(bytes32 majorId, uint256 status) public {\n        require(hasRole(ADMIN_ROLE, _msgSender()), \"ONLY_ADMIN\");\n        require(_majorIds.contains(majorId), \"NOT_EXISTS\");\n\n        _majors[majorId].status = status;\n\n        emit ToggleMajorStatus(majorId, _msgSender(), status);\n    }\n\n    function addSubjectForMajor(bytes32 majorId, string memory subjectURI) public {\n        require(hasRole(ADMIN_ROLE, _msgSender()), \"ONLY_ADMIN\");\n        require(_majorIds.contains(majorId), \"NOT_EXISTS\");\n\n        address newSubject = Clones.clone(subjectTemplate);\n        SubjectTemplate(newSubject).initialize(_msgSender(), proxys, subjectURI);\n\n        _majors[majorId].subjects.add(newSubject);\n        _subjects[newSubject].subjectURI = subjectURI;\n\n        // Grant mint role for subject contract\n        address token = TokenProxy(payable(proxys[0])).getImplementation();\n        KnowlageToken know = KnowlageToken(token);\n        know.grantRole(know.MINTER_ROLE(), newSubject);\n\n        emit AddSubjectForMajor(newSubject, _msgSender(), block.number);\n    }\n\n    function toggleSubjectStatus(bytes32 majorId, address subject, uint256 status) public {\n        require(hasRole(ADMIN_ROLE, _msgSender()), \"ONLY_ADMIN\");\n        require(_majorIds.contains(majorId), \"MAJOR_NOT_EXISTS\");\n        require(_majors[majorId].subjects.contains(subject), \"SUB_NOT_EXISTS\");\n\n        _subjects[subject].status = status;\n        \n        emit ToggleSubjectStatus(majorId, _msgSender(), subject, status);\n    }\n}",
  "sourcePath": "/Users/cea/Projects/myself/knowlage-dapp/contracts/know-core/MajorFactory.sol",
  "compiler": {
    "name": "solc",
    "version": "0.8.16+commit.07a7930e.Emscripten.clang"
  },
  "schemaVersion": "3.4.9",
  "updatedAt": "2022-12-15T08:49:32.673Z",
  "networkType": "ethereum",
  "devdoc": {
    "details": "Version: v1.0.1",
    "kind": "dev",
    "methods": {
      "getRoleAdmin(bytes32)": {
        "details": "Returns the admin role that controls `role`. See {grantRole} and {revokeRole}. To change a role's admin, use {_setRoleAdmin}."
      },
      "grantRole(bytes32,address)": {
        "details": "Grants `role` to `account`. If `account` had not been already granted `role`, emits a {RoleGranted} event. Requirements: - the caller must have ``role``'s admin role. May emit a {RoleGranted} event."
      },
      "hasRole(bytes32,address)": {
        "details": "Returns `true` if `account` has been granted `role`."
      },
      "paused()": {
        "details": "Returns true if the contract is paused, and false otherwise."
      },
      "renounceRole(bytes32,address)": {
        "details": "Revokes `role` from the calling account. Roles are often managed via {grantRole} and {revokeRole}: this function's purpose is to provide a mechanism for accounts to lose their privileges if they are compromised (such as when a trusted device is misplaced). If the calling account had been revoked `role`, emits a {RoleRevoked} event. Requirements: - the caller must be `account`. May emit a {RoleRevoked} event."
      },
      "revokeRole(bytes32,address)": {
        "details": "Revokes `role` from `account`. If `account` had been granted `role`, emits a {RoleRevoked} event. Requirements: - the caller must have ``role``'s admin role. May emit a {RoleRevoked} event."
      },
      "supportsInterface(bytes4)": {
        "details": "See {IERC165-supportsInterface}."
      }
    },
    "stateVariables": {
      "proxys": {
        "details": "0 - Address of token proxy contract - For subject mint token1 - Address of transfer proxy contract - For subject transfer token2 - Address of black list proxy contract - For subject black list3 - Address of fee receiver proxy contract - For subject transfer fee4 - Address of ticket lp token contract - For subject transfer ticket token"
      }
    },
    "title": "Major Factory Contract",
    "version": 1
  },
  "userdoc": {
    "kind": "user",
    "methods": {
      "ADMIN_ROLE()": {
        "notice": "The role of access control - (admin role) "
      },
      "LASTEST_VERSION()": {
        "notice": "Version of contract "
      },
      "getMajors()": {
        "notice": "Get all major's json URIs "
      },
      "proxys(uint256)": {
        "notice": "Proxy Address List - (Upgradeable)"
      },
      "subjectTemplate()": {
        "notice": "Subject contract template address - For add new subject contract "
      }
    },
    "notice": "HorseRace is a NFT horse racing metaverse based on pylogon....Website: https://horse-racing.io/Docs: https://horse-racing.gitbook.io/horse-racing-docs/ ",
    "version": 1
  }
}