{
  "contractName": "ReceiveFee",
  "abi": [
    {
      "inputs": [
        {
          "internalType": "address[]",
          "name": "payees",
          "type": "address[]"
        },
        {
          "internalType": "uint256[]",
          "name": "shares",
          "type": "uint256[]"
        }
      ],
      "stateMutability": "nonpayable",
      "type": "constructor"
    },
    {
      "anonymous": false,
      "inputs": [
        {
          "indexed": false,
          "internalType": "address",
          "name": "token",
          "type": "address"
        },
        {
          "indexed": false,
          "internalType": "uint256",
          "name": "amount",
          "type": "uint256"
        },
        {
          "indexed": false,
          "internalType": "uint256",
          "name": "payees",
          "type": "uint256"
        }
      ],
      "name": "Claim",
      "type": "event"
    },
    {
      "anonymous": false,
      "inputs": [
        {
          "indexed": true,
          "internalType": "bytes32",
          "name": "role",
          "type": "bytes32"
        },
        {
          "indexed": true,
          "internalType": "bytes32",
          "name": "previousAdminRole",
          "type": "bytes32"
        },
        {
          "indexed": true,
          "internalType": "bytes32",
          "name": "newAdminRole",
          "type": "bytes32"
        }
      ],
      "name": "RoleAdminChanged",
      "type": "event"
    },
    {
      "anonymous": false,
      "inputs": [
        {
          "indexed": true,
          "internalType": "bytes32",
          "name": "role",
          "type": "bytes32"
        },
        {
          "indexed": true,
          "internalType": "address",
          "name": "account",
          "type": "address"
        },
        {
          "indexed": true,
          "internalType": "address",
          "name": "sender",
          "type": "address"
        }
      ],
      "name": "RoleGranted",
      "type": "event"
    },
    {
      "anonymous": false,
      "inputs": [
        {
          "indexed": true,
          "internalType": "bytes32",
          "name": "role",
          "type": "bytes32"
        },
        {
          "indexed": true,
          "internalType": "address",
          "name": "account",
          "type": "address"
        },
        {
          "indexed": true,
          "internalType": "address",
          "name": "sender",
          "type": "address"
        }
      ],
      "name": "RoleRevoked",
      "type": "event"
    },
    {
      "anonymous": false,
      "inputs": [
        {
          "indexed": false,
          "internalType": "uint256",
          "name": "payees",
          "type": "uint256"
        },
        {
          "indexed": false,
          "internalType": "uint256",
          "name": "totalShares",
          "type": "uint256"
        }
      ],
      "name": "SetPayees",
      "type": "event"
    },
    {
      "inputs": [],
      "name": "ADMIN_ROLE",
      "outputs": [
        {
          "internalType": "bytes32",
          "name": "",
          "type": "bytes32"
        }
      ],
      "stateMutability": "view",
      "type": "function",
      "constant": true
    },
    {
      "inputs": [],
      "name": "DEFAULT_ADMIN_ROLE",
      "outputs": [
        {
          "internalType": "bytes32",
          "name": "",
          "type": "bytes32"
        }
      ],
      "stateMutability": "view",
      "type": "function",
      "constant": true
    },
    {
      "inputs": [],
      "name": "LASTEST_VERSION",
      "outputs": [
        {
          "internalType": "string",
          "name": "",
          "type": "string"
        }
      ],
      "stateMutability": "view",
      "type": "function",
      "constant": true
    },
    {
      "inputs": [
        {
          "internalType": "bytes32",
          "name": "role",
          "type": "bytes32"
        }
      ],
      "name": "getRoleAdmin",
      "outputs": [
        {
          "internalType": "bytes32",
          "name": "",
          "type": "bytes32"
        }
      ],
      "stateMutability": "view",
      "type": "function",
      "constant": true
    },
    {
      "inputs": [
        {
          "internalType": "bytes32",
          "name": "role",
          "type": "bytes32"
        },
        {
          "internalType": "address",
          "name": "account",
          "type": "address"
        }
      ],
      "name": "grantRole",
      "outputs": [],
      "stateMutability": "nonpayable",
      "type": "function"
    },
    {
      "inputs": [
        {
          "internalType": "bytes32",
          "name": "role",
          "type": "bytes32"
        },
        {
          "internalType": "address",
          "name": "account",
          "type": "address"
        }
      ],
      "name": "hasRole",
      "outputs": [
        {
          "internalType": "bool",
          "name": "",
          "type": "bool"
        }
      ],
      "stateMutability": "view",
      "type": "function",
      "constant": true
    },
    {
      "inputs": [
        {
          "internalType": "bytes32",
          "name": "role",
          "type": "bytes32"
        },
        {
          "internalType": "address",
          "name": "account",
          "type": "address"
        }
      ],
      "name": "renounceRole",
      "outputs": [],
      "stateMutability": "nonpayable",
      "type": "function"
    },
    {
      "inputs": [
        {
          "internalType": "bytes32",
          "name": "role",
          "type": "bytes32"
        },
        {
          "internalType": "address",
          "name": "account",
          "type": "address"
        }
      ],
      "name": "revokeRole",
      "outputs": [],
      "stateMutability": "nonpayable",
      "type": "function"
    },
    {
      "inputs": [
        {
          "internalType": "bytes4",
          "name": "interfaceId",
          "type": "bytes4"
        }
      ],
      "name": "supportsInterface",
      "outputs": [
        {
          "internalType": "bool",
          "name": "",
          "type": "bool"
        }
      ],
      "stateMutability": "view",
      "type": "function",
      "constant": true
    },
    {
      "inputs": [],
      "name": "getReceiver",
      "outputs": [
        {
          "internalType": "address",
          "name": "",
          "type": "address"
        },
        {
          "internalType": "uint256",
          "name": "",
          "type": "uint256"
        }
      ],
      "stateMutability": "view",
      "type": "function",
      "constant": true
    },
    {
      "inputs": [
        {
          "internalType": "address",
          "name": "payee",
          "type": "address"
        },
        {
          "internalType": "uint256",
          "name": "shares",
          "type": "uint256"
        }
      ],
      "name": "setPayees",
      "outputs": [],
      "stateMutability": "nonpayable",
      "type": "function"
    },
    {
      "inputs": [
        {
          "internalType": "address",
          "name": "token",
          "type": "address"
        },
        {
          "internalType": "uint256",
          "name": "amount",
          "type": "uint256"
        }
      ],
      "name": "claim",
      "outputs": [],
      "stateMutability": "nonpayable",
      "type": "function"
    }
  ],
  "bytecode": "0x60806040523480156200001157600080fd5b50604051620011303803806200113083398101604081905262000034916200031b565b60005b8251811015620000f157620000788382815181106200005a576200005a620003f9565b602002602001015160026200012660201b620006741790919060201c565b508181815181106200008e576200008e620003f9565b602002602001015160046000858481518110620000af57620000af620003f9565b60200260200101516001600160a01b03166001600160a01b03168152602001908152602001600020819055508080620000e8906200040f565b91505062000037565b506200011e7fa49807205ce4d355092ef5a8a18f56e8913cf4a201fbe287825b095693c217753362000146565b505062000437565b60006200013d836001600160a01b038416620001e7565b90505b92915050565b6000828152602081815260408083206001600160a01b038516845290915290205460ff16620001e3576000828152602081815260408083206001600160a01b03851684529091529020805460ff19166001179055620001a23390565b6001600160a01b0316816001600160a01b0316837f2f8788117e7eff1d82e926ec794901d17c78024a50270940304540a733656f0d60405160405180910390a45b5050565b6000818152600183016020526040812054620002305750815460018181018455600084815260208082209093018490558454848252828601909352604090209190915562000140565b50600062000140565b634e487b7160e01b600052604160045260246000fd5b604051601f8201601f191681016001600160401b03811182821017156200027a576200027a62000239565b604052919050565b60006001600160401b038211156200029e576200029e62000239565b5060051b60200190565b600082601f830112620002ba57600080fd5b81516020620002d3620002cd8362000282565b6200024f565b82815260059290921b84018101918181019086841115620002f357600080fd5b8286015b84811015620003105780518352918301918301620002f7565b509695505050505050565b600080604083850312156200032f57600080fd5b82516001600160401b03808211156200034757600080fd5b818501915085601f8301126200035c57600080fd5b815160206200036f620002cd8362000282565b82815260059290921b840181019181810190898411156200038f57600080fd5b948201945b83861015620003c65785516001600160a01b0381168114620003b65760008081fd5b8252948201949082019062000394565b91880151919650909350505080821115620003e057600080fd5b50620003ef85828601620002a8565b9150509250929050565b634e487b7160e01b600052603260045260246000fd5b6000600182016200043057634e487b7160e01b600052601160045260246000fd5b5060010190565b610ce980620004476000396000f3fe608060405234801561001057600080fd5b50600436106100b45760003560e01c80637e94cc48116100715780637e94cc481461019357806391d14854146101a657806398aca922146101b9578063a217fddf146101e2578063aad3ec96146101ea578063d547741f146101fd57600080fd5b806301ffc9a7146100b9578063248a9ca3146100e15780632f2ff15d1461011257806336568abe1461012757806341e0c7d41461013a57806375b238fc1461016c575b600080fd5b6100cc6100c7366004610a4a565b610210565b60405190151581526020015b60405180910390f35b6101046100ef366004610a74565b60009081526020819052604090206001015490565b6040519081526020016100d8565b610125610120366004610aa9565b610247565b005b610125610135366004610aa9565b610271565b61015f6040518060400160405280600681526020016576312e302e3160d01b81525081565b6040516100d89190610af9565b6101047fa49807205ce4d355092ef5a8a18f56e8913cf4a201fbe287825b095693c2177581565b6101256101a1366004610b2c565b6102f4565b6100cc6101b4366004610aa9565b61047a565b6101c36001543091565b604080516001600160a01b0390931683526020830191909152016100d8565b610104600081565b6101256101f8366004610b2c565b6104a3565b61012561020b366004610aa9565b61064f565b60006001600160e01b03198216637965db0b60e01b148061024157506301ffc9a760e01b6001600160e01b03198316145b92915050565b60008281526020819052604090206001015461026281610690565b61026c838361069d565b505050565b6001600160a01b03811633146102e65760405162461bcd60e51b815260206004820152602f60248201527f416363657373436f6e74726f6c3a2063616e206f6e6c792072656e6f756e636560448201526e103937b632b9903337b91039b2b63360891b60648201526084015b60405180910390fd5b6102f08282610721565b5050565b7fa49807205ce4d355092ef5a8a18f56e8913cf4a201fbe287825b095693c2177561031e81610690565b6001600160a01b0383166103645760405162461bcd60e51b815260206004820152600d60248201526c494e56414c49445f504159454560981b60448201526064016102dd565b81156103a35760405162461bcd60e51b815260206004820152600e60248201526d494e56414c49445f53484152455360901b60448201526064016102dd565b6103ae600284610786565b6103bf576103bd600284610674565b505b6001600160a01b0383166000908152600460205260408120839055806103e560026107a8565b905060005b8181101561043957600460006104016002846107b2565b6001600160a01b031681526020810191909152604001600020546104259084610b6c565b92508061043181610b7f565b9150506103ea565b5060408051828152602081018490527f99f84d321aebd97671734f6d1cf147bb6806bc845fb5c45543110378fcd25a3c910160405180910390a15050505050565b6000918252602082815260408084206001600160a01b0393909316845291905290205460ff1690565b7fa49807205ce4d355092ef5a8a18f56e8913cf4a201fbe287825b095693c217756104cd81610690565b60006104d960026107a8565b905060005b818110156105fe5760006104f36002836107b2565b6001600160a01b0381166000908152600460205260408120549192509061051b9087906107be565b90506001600160a01b038716610574576105366002846107b2565b6001600160a01b03166108fc829081150290604051600060405180830381858888f1935050505015801561056e573d6000803e3d6000fd5b506105e9565b60405163a9059cbb60e01b81526001600160a01b0383811660048301526024820183905288169063a9059cbb906044016020604051808303816000875af11580156105c3573d6000803e3d6000fd5b505050506040513d601f19601f820116820180604052508101906105e79190610b98565b505b505080806105f690610b7f565b9150506104de565b50604080516001600160a01b0386168152602081018590529081018290527f34fcbac0073d7c3d388e51312faf357774904998eeb8fca628b9e6f65ee1cbf79060600160405180910390a150505050565b60008281526020819052604090206001015461066a81610690565b61026c8383610721565b6000610689836001600160a01b0384166107ca565b9392505050565b61069a8133610819565b50565b6106a7828261047a565b6102f0576000828152602081815260408083206001600160a01b03851684529091529020805460ff191660011790556106dd3390565b6001600160a01b0316816001600160a01b0316837f2f8788117e7eff1d82e926ec794901d17c78024a50270940304540a733656f0d60405160405180910390a45050565b61072b828261047a565b156102f0576000828152602081815260408083206001600160a01b0385168085529252808320805460ff1916905551339285917ff6391f5c32d9c69d2a47ea670b442974b53935d1edc7fd64eb21e047a839171b9190a45050565b6001600160a01b03811660009081526001830160205260408120541515610689565b6000610241825490565b60006106898383610872565b60006106898284610bba565b600081815260018301602052604081205461081157508154600181810184556000848152602080822090930184905584548482528286019093526040902091909155610241565b506000610241565b610823828261047a565b6102f0576108308161089c565b61083b8360206108ae565b60405160200161084c929190610bdc565b60408051601f198184030181529082905262461bcd60e51b82526102dd91600401610af9565b600082600001828154811061088957610889610c51565b9060005260206000200154905092915050565b60606102416001600160a01b03831660145b606060006108bd836002610c67565b6108c8906002610b6c565b67ffffffffffffffff8111156108e0576108e0610c86565b6040519080825280601f01601f19166020018201604052801561090a576020820181803683370190505b509050600360fc1b8160008151811061092557610925610c51565b60200101906001600160f81b031916908160001a905350600f60fb1b8160018151811061095457610954610c51565b60200101906001600160f81b031916908160001a9053506000610978846002610c67565b610983906001610b6c565b90505b60018111156109fb576f181899199a1a9b1b9c1cb0b131b232b360811b85600f16601081106109b7576109b7610c51565b1a60f81b8282815181106109cd576109cd610c51565b60200101906001600160f81b031916908160001a90535060049490941c936109f481610c9c565b9050610986565b5083156106895760405162461bcd60e51b815260206004820181905260248201527f537472696e67733a20686578206c656e67746820696e73756666696369656e7460448201526064016102dd565b600060208284031215610a5c57600080fd5b81356001600160e01b03198116811461068957600080fd5b600060208284031215610a8657600080fd5b5035919050565b80356001600160a01b0381168114610aa457600080fd5b919050565b60008060408385031215610abc57600080fd5b82359150610acc60208401610a8d565b90509250929050565b60005b83811015610af0578181015183820152602001610ad8565b50506000910152565b6020815260008251806020840152610b18816040850160208701610ad5565b601f01601f19169190910160400192915050565b60008060408385031215610b3f57600080fd5b610b4883610a8d565b946020939093013593505050565b634e487b7160e01b600052601160045260246000fd5b8082018082111561024157610241610b56565b600060018201610b9157610b91610b56565b5060010190565b600060208284031215610baa57600080fd5b8151801515811461068957600080fd5b600082610bd757634e487b7160e01b600052601260045260246000fd5b500490565b7f416363657373436f6e74726f6c3a206163636f756e7420000000000000000000815260008351610c14816017850160208801610ad5565b7001034b99036b4b9b9b4b733903937b6329607d1b6017918401918201528351610c45816028840160208801610ad5565b01602801949350505050565b634e487b7160e01b600052603260045260246000fd5b6000816000190483118215151615610c8157610c81610b56565b500290565b634e487b7160e01b600052604160045260246000fd5b600081610cab57610cab610b56565b50600019019056fea2646970667358221220fe2d5b43d8033b2aa0c43fbffd8282f0ef76143f0f7f38b96fd21c5d870d43a364736f6c63430008100033",
  "immutableReferences": {},
  "source": "// SPDX-License-Identifier: SimPL-2.0\n\npragma solidity ^0.8.0;\n\nimport \"../know-interface/IReceiver.sol\";\n\nimport \"@openzeppelin/contracts/access/AccessControl.sol\";\nimport \"@openzeppelin/contracts/utils/structs/EnumerableSet.sol\";\nimport \"@openzeppelin/contracts/token/ERC20/IERC20.sol\";\nimport \"@openzeppelin/contracts/utils/math/SafeMath.sol\";\n\n/**\n * @title Major Factory Contract\n * @notice HorseRace is a NFT horse racing metaverse based on pylogon\n * @notice ....\n *\n * @notice Website: https://horse-racing.io/\n * @notice Docs: https://horse-racing.gitbook.io/horse-racing-docs/\n * \n * @dev Version: v1.0.1\n */\ncontract ReceiveFee is AccessControl, IReceiver {\n    using SafeMath for uint256;\n    using EnumerableSet for EnumerableSet.AddressSet;\n\n    /** @notice Version of contract */\n    string constant public LASTEST_VERSION = \"v1.0.1\";\n\n    /** @notice The role of access control - (admin role) */\n    bytes32 constant public ADMIN_ROLE = keccak256(\"ADMIN_ROLE\");\n\n    uint256 private feeRate;\n    \n    EnumerableSet.AddressSet private _payees;\n\n    mapping (address => uint256) private _shares;\n\n    event SetPayees(uint256 payees, uint256 totalShares);\n    event Claim(address token, uint256 amount, uint256 payees);\n\n    constructor(address[] memory payees, uint256[] memory shares) {\n        for (uint256 index = 0; index < payees.length; index++) {\n            _payees.add(payees[index]);\n            _shares[payees[index]] = shares[index];\n        }\n\n        _grantRole(ADMIN_ROLE, _msgSender());\n    }\n\n    function getReceiver() override public view returns (address, uint256) {\n        return (address(this), feeRate);\n    }\n\n    function setPayees(address payee, uint256 shares) public onlyRole(ADMIN_ROLE) {\n        require(payee != address(0), \"INVALID_PAYEE\");\n        require(shares <= 0, \"INVALID_SHARES\");\n\n        if (!_payees.contains(payee)) _payees.add(payee);\n        _shares[payee] = shares;\n\n        uint256 totalShares = 0; uint256 payees = _payees.length();\n\n        for (uint256 index = 0; index < payees; index++) {\n            totalShares = totalShares + _shares[_payees.at(index)];\n        }\n\n        emit SetPayees(payees, totalShares);\n    }\n\n    function claim(address token, uint256 amount) public onlyRole(ADMIN_ROLE) {\n        uint256 payees = _payees.length();\n\n        for (uint256 index = 0; index < payees; index++) {\n            address payee = _payees.at(index);\n            uint256 uintAmount = amount.div(_shares[payee]);\n\n            if (token == address(0)) {\n                payable(_payees.at(index)).transfer(uintAmount);\n            } else {\n                IERC20(token).transfer(payee, uintAmount);\n            }\n        }\n\n        emit Claim(token, amount, payees);\n    }\n}",
  "sourcePath": "/Users/cea/Projects/myself/knowlage-dapp/contracts/know-core/ReceiveFee.sol",
  "compiler": {
    "name": "solc",
    "version": "0.8.16+commit.07a7930e.Emscripten.clang"
  },
  "schemaVersion": "3.4.9",
  "updatedAt": "2022-12-15T08:49:31.198Z",
  "networkType": "ethereum",
  "devdoc": {
    "details": "Version: v1.0.1",
    "kind": "dev",
    "methods": {
      "getRoleAdmin(bytes32)": {
        "details": "Returns the admin role that controls `role`. See {grantRole} and {revokeRole}. To change a role's admin, use {_setRoleAdmin}."
      },
      "grantRole(bytes32,address)": {
        "details": "Grants `role` to `account`. If `account` had not been already granted `role`, emits a {RoleGranted} event. Requirements: - the caller must have ``role``'s admin role. May emit a {RoleGranted} event."
      },
      "hasRole(bytes32,address)": {
        "details": "Returns `true` if `account` has been granted `role`."
      },
      "renounceRole(bytes32,address)": {
        "details": "Revokes `role` from the calling account. Roles are often managed via {grantRole} and {revokeRole}: this function's purpose is to provide a mechanism for accounts to lose their privileges if they are compromised (such as when a trusted device is misplaced). If the calling account had been revoked `role`, emits a {RoleRevoked} event. Requirements: - the caller must be `account`. May emit a {RoleRevoked} event."
      },
      "revokeRole(bytes32,address)": {
        "details": "Revokes `role` from `account`. If `account` had been granted `role`, emits a {RoleRevoked} event. Requirements: - the caller must have ``role``'s admin role. May emit a {RoleRevoked} event."
      },
      "supportsInterface(bytes4)": {
        "details": "See {IERC165-supportsInterface}."
      }
    },
    "title": "Major Factory Contract",
    "version": 1
  },
  "userdoc": {
    "kind": "user",
    "methods": {
      "ADMIN_ROLE()": {
        "notice": "The role of access control - (admin role) "
      },
      "LASTEST_VERSION()": {
        "notice": "Version of contract "
      }
    },
    "notice": "HorseRace is a NFT horse racing metaverse based on pylogon....Website: https://horse-racing.io/Docs: https://horse-racing.gitbook.io/horse-racing-docs/ ",
    "version": 1
  }
}