{
  "contractName": "SubjectTemplate",
  "abi": [
    {
      "anonymous": false,
      "inputs": [
        {
          "indexed": false,
          "internalType": "bytes32",
          "name": "subjectId",
          "type": "bytes32"
        },
        {
          "indexed": false,
          "internalType": "address",
          "name": "tuitionToken",
          "type": "address"
        },
        {
          "indexed": false,
          "internalType": "address",
          "name": "ticketToken",
          "type": "address"
        }
      ],
      "name": "AskNewSubject",
      "type": "event"
    },
    {
      "anonymous": false,
      "inputs": [
        {
          "indexed": false,
          "internalType": "address",
          "name": "ticketToken",
          "type": "address"
        },
        {
          "indexed": false,
          "internalType": "uint256",
          "name": "amount",
          "type": "uint256"
        },
        {
          "indexed": false,
          "internalType": "uint256",
          "name": "members",
          "type": "uint256"
        }
      ],
      "name": "ExitSubject",
      "type": "event"
    },
    {
      "anonymous": false,
      "inputs": [
        {
          "indexed": false,
          "internalType": "uint8",
          "name": "version",
          "type": "uint8"
        }
      ],
      "name": "Initialized",
      "type": "event"
    },
    {
      "anonymous": false,
      "inputs": [
        {
          "indexed": false,
          "internalType": "address",
          "name": "ticketToken",
          "type": "address"
        },
        {
          "indexed": false,
          "internalType": "uint256",
          "name": "members",
          "type": "uint256"
        },
        {
          "indexed": false,
          "internalType": "uint256",
          "name": "teachers",
          "type": "uint256"
        }
      ],
      "name": "JoinSubject",
      "type": "event"
    },
    {
      "anonymous": false,
      "inputs": [
        {
          "indexed": false,
          "internalType": "address",
          "name": "account",
          "type": "address"
        }
      ],
      "name": "Paused",
      "type": "event"
    },
    {
      "anonymous": false,
      "inputs": [
        {
          "indexed": true,
          "internalType": "bytes32",
          "name": "role",
          "type": "bytes32"
        },
        {
          "indexed": true,
          "internalType": "bytes32",
          "name": "previousAdminRole",
          "type": "bytes32"
        },
        {
          "indexed": true,
          "internalType": "bytes32",
          "name": "newAdminRole",
          "type": "bytes32"
        }
      ],
      "name": "RoleAdminChanged",
      "type": "event"
    },
    {
      "anonymous": false,
      "inputs": [
        {
          "indexed": true,
          "internalType": "bytes32",
          "name": "role",
          "type": "bytes32"
        },
        {
          "indexed": true,
          "internalType": "address",
          "name": "account",
          "type": "address"
        },
        {
          "indexed": true,
          "internalType": "address",
          "name": "sender",
          "type": "address"
        }
      ],
      "name": "RoleGranted",
      "type": "event"
    },
    {
      "anonymous": false,
      "inputs": [
        {
          "indexed": true,
          "internalType": "bytes32",
          "name": "role",
          "type": "bytes32"
        },
        {
          "indexed": true,
          "internalType": "address",
          "name": "account",
          "type": "address"
        },
        {
          "indexed": true,
          "internalType": "address",
          "name": "sender",
          "type": "address"
        }
      ],
      "name": "RoleRevoked",
      "type": "event"
    },
    {
      "anonymous": false,
      "inputs": [
        {
          "indexed": false,
          "internalType": "uint256",
          "name": "amount",
          "type": "uint256"
        },
        {
          "indexed": false,
          "internalType": "uint256",
          "name": "fee",
          "type": "uint256"
        },
        {
          "indexed": false,
          "internalType": "address",
          "name": "tuitionToken",
          "type": "address"
        }
      ],
      "name": "SwapReward",
      "type": "event"
    },
    {
      "anonymous": false,
      "inputs": [
        {
          "indexed": false,
          "internalType": "address",
          "name": "account",
          "type": "address"
        }
      ],
      "name": "Unpaused",
      "type": "event"
    },
    {
      "anonymous": false,
      "inputs": [
        {
          "indexed": false,
          "internalType": "uint256",
          "name": "members",
          "type": "uint256"
        },
        {
          "indexed": false,
          "internalType": "uint256",
          "name": "coursewareURIs",
          "type": "uint256"
        }
      ],
      "name": "UploadCourseware",
      "type": "event"
    },
    {
      "anonymous": false,
      "inputs": [
        {
          "indexed": false,
          "internalType": "uint256",
          "name": "leftTickets",
          "type": "uint256"
        },
        {
          "indexed": false,
          "internalType": "uint256",
          "name": "knowAmount",
          "type": "uint256"
        }
      ],
      "name": "VoteTo",
      "type": "event"
    },
    {
      "inputs": [],
      "name": "ADMIN_ROLE",
      "outputs": [
        {
          "internalType": "bytes32",
          "name": "",
          "type": "bytes32"
        }
      ],
      "stateMutability": "view",
      "type": "function",
      "constant": true
    },
    {
      "inputs": [],
      "name": "DEFAULT_ADMIN_ROLE",
      "outputs": [
        {
          "internalType": "bytes32",
          "name": "",
          "type": "bytes32"
        }
      ],
      "stateMutability": "view",
      "type": "function",
      "constant": true
    },
    {
      "inputs": [],
      "name": "LASTEST_VERSION",
      "outputs": [
        {
          "internalType": "string",
          "name": "",
          "type": "string"
        }
      ],
      "stateMutability": "view",
      "type": "function",
      "constant": true
    },
    {
      "inputs": [],
      "name": "blackListProxy",
      "outputs": [
        {
          "internalType": "contract BalckListProxy",
          "name": "",
          "type": "address"
        }
      ],
      "stateMutability": "view",
      "type": "function",
      "constant": true
    },
    {
      "inputs": [
        {
          "internalType": "bytes32",
          "name": "role",
          "type": "bytes32"
        }
      ],
      "name": "getRoleAdmin",
      "outputs": [
        {
          "internalType": "bytes32",
          "name": "",
          "type": "bytes32"
        }
      ],
      "stateMutability": "view",
      "type": "function",
      "constant": true
    },
    {
      "inputs": [
        {
          "internalType": "bytes32",
          "name": "role",
          "type": "bytes32"
        },
        {
          "internalType": "address",
          "name": "account",
          "type": "address"
        }
      ],
      "name": "grantRole",
      "outputs": [],
      "stateMutability": "nonpayable",
      "type": "function"
    },
    {
      "inputs": [
        {
          "internalType": "bytes32",
          "name": "role",
          "type": "bytes32"
        },
        {
          "internalType": "address",
          "name": "account",
          "type": "address"
        }
      ],
      "name": "hasRole",
      "outputs": [
        {
          "internalType": "bool",
          "name": "",
          "type": "bool"
        }
      ],
      "stateMutability": "view",
      "type": "function",
      "constant": true
    },
    {
      "inputs": [],
      "name": "paused",
      "outputs": [
        {
          "internalType": "bool",
          "name": "",
          "type": "bool"
        }
      ],
      "stateMutability": "view",
      "type": "function",
      "constant": true
    },
    {
      "inputs": [],
      "name": "receiveFeeProxy",
      "outputs": [
        {
          "internalType": "contract ReceiveFeeProxy",
          "name": "",
          "type": "address"
        }
      ],
      "stateMutability": "view",
      "type": "function",
      "constant": true
    },
    {
      "inputs": [
        {
          "internalType": "bytes32",
          "name": "role",
          "type": "bytes32"
        },
        {
          "internalType": "address",
          "name": "account",
          "type": "address"
        }
      ],
      "name": "renounceRole",
      "outputs": [],
      "stateMutability": "nonpayable",
      "type": "function"
    },
    {
      "inputs": [
        {
          "internalType": "bytes32",
          "name": "role",
          "type": "bytes32"
        },
        {
          "internalType": "address",
          "name": "account",
          "type": "address"
        }
      ],
      "name": "revokeRole",
      "outputs": [],
      "stateMutability": "nonpayable",
      "type": "function"
    },
    {
      "inputs": [],
      "name": "subjectURI",
      "outputs": [
        {
          "internalType": "string",
          "name": "",
          "type": "string"
        }
      ],
      "stateMutability": "view",
      "type": "function",
      "constant": true
    },
    {
      "inputs": [
        {
          "internalType": "bytes4",
          "name": "interfaceId",
          "type": "bytes4"
        }
      ],
      "name": "supportsInterface",
      "outputs": [
        {
          "internalType": "bool",
          "name": "",
          "type": "bool"
        }
      ],
      "stateMutability": "view",
      "type": "function",
      "constant": true
    },
    {
      "inputs": [],
      "name": "ticketERC20Template",
      "outputs": [
        {
          "internalType": "address",
          "name": "",
          "type": "address"
        }
      ],
      "stateMutability": "view",
      "type": "function",
      "constant": true
    },
    {
      "inputs": [],
      "name": "tokenProxy",
      "outputs": [
        {
          "internalType": "contract TokenProxy",
          "name": "",
          "type": "address"
        }
      ],
      "stateMutability": "view",
      "type": "function",
      "constant": true
    },
    {
      "inputs": [],
      "name": "transferProxy",
      "outputs": [
        {
          "internalType": "contract TransferProxy",
          "name": "",
          "type": "address"
        }
      ],
      "stateMutability": "view",
      "type": "function",
      "constant": true
    },
    {
      "inputs": [
        {
          "internalType": "address",
          "name": "admin",
          "type": "address"
        },
        {
          "internalType": "address[5]",
          "name": "proxys",
          "type": "address[5]"
        },
        {
          "internalType": "string",
          "name": "_subjectURI",
          "type": "string"
        }
      ],
      "name": "initialize",
      "outputs": [],
      "stateMutability": "nonpayable",
      "type": "function"
    },
    {
      "inputs": [],
      "name": "getCourseList",
      "outputs": [
        {
          "internalType": "address[]",
          "name": "proposers",
          "type": "address[]"
        },
        {
          "internalType": "bytes32[]",
          "name": "subjectIds",
          "type": "bytes32[]"
        },
        {
          "internalType": "string[]",
          "name": "descriptionURIs",
          "type": "string[]"
        }
      ],
      "stateMutability": "view",
      "type": "function",
      "constant": true
    },
    {
      "inputs": [
        {
          "internalType": "bytes32",
          "name": "subjectId",
          "type": "bytes32"
        }
      ],
      "name": "getCourseDetail",
      "outputs": [
        {
          "internalType": "string",
          "name": "uri",
          "type": "string"
        },
        {
          "internalType": "address[3]",
          "name": "addrs",
          "type": "address[3]"
        },
        {
          "internalType": "uint256[6]",
          "name": "settings",
          "type": "uint256[6]"
        },
        {
          "internalType": "address[]",
          "name": "members",
          "type": "address[]"
        },
        {
          "internalType": "address[]",
          "name": "teachers",
          "type": "address[]"
        }
      ],
      "stateMutability": "view",
      "type": "function",
      "constant": true
    },
    {
      "inputs": [
        {
          "internalType": "bytes32",
          "name": "subjectId",
          "type": "bytes32"
        },
        {
          "internalType": "address",
          "name": "teacher",
          "type": "address"
        }
      ],
      "name": "getSubjectCourseware",
      "outputs": [
        {
          "internalType": "string",
          "name": "uri",
          "type": "string"
        },
        {
          "internalType": "bytes32[]",
          "name": "free",
          "type": "bytes32[]"
        },
        {
          "internalType": "bytes32[]",
          "name": "other",
          "type": "bytes32[]"
        }
      ],
      "stateMutability": "view",
      "type": "function",
      "constant": true
    },
    {
      "inputs": [
        {
          "internalType": "bool",
          "name": "status",
          "type": "bool"
        }
      ],
      "name": "togglePause",
      "outputs": [],
      "stateMutability": "nonpayable",
      "type": "function"
    },
    {
      "inputs": [
        {
          "internalType": "address",
          "name": "tuitionToken",
          "type": "address"
        },
        {
          "internalType": "uint256[5]",
          "name": "parms",
          "type": "uint256[5]"
        },
        {
          "internalType": "string",
          "name": "descriptionURI",
          "type": "string"
        }
      ],
      "name": "askNewSubject",
      "outputs": [],
      "stateMutability": "payable",
      "type": "function",
      "payable": true
    },
    {
      "inputs": [
        {
          "internalType": "bytes32",
          "name": "subjectId",
          "type": "bytes32"
        },
        {
          "internalType": "uint256",
          "name": "shares",
          "type": "uint256"
        }
      ],
      "name": "joinSubject",
      "outputs": [],
      "stateMutability": "payable",
      "type": "function",
      "payable": true
    },
    {
      "inputs": [
        {
          "internalType": "bytes32",
          "name": "subjectId",
          "type": "bytes32"
        }
      ],
      "name": "exitSubject",
      "outputs": [],
      "stateMutability": "payable",
      "type": "function",
      "payable": true
    },
    {
      "inputs": [
        {
          "internalType": "bytes32",
          "name": "subjectId",
          "type": "bytes32"
        },
        {
          "internalType": "string",
          "name": "descriptionURI",
          "type": "string"
        },
        {
          "internalType": "bytes32[]",
          "name": "freeCoursewareURIs",
          "type": "bytes32[]"
        },
        {
          "internalType": "bytes32[]",
          "name": "otherCoursewareURIs",
          "type": "bytes32[]"
        },
        {
          "internalType": "bool",
          "name": "isFreeWhenEnd",
          "type": "bool"
        }
      ],
      "name": "uploadCourseware",
      "outputs": [],
      "stateMutability": "nonpayable",
      "type": "function"
    },
    {
      "inputs": [
        {
          "internalType": "bytes32",
          "name": "subjectId",
          "type": "bytes32"
        },
        {
          "internalType": "address",
          "name": "teacher",
          "type": "address"
        },
        {
          "internalType": "uint256",
          "name": "ticket",
          "type": "uint256"
        }
      ],
      "name": "voteTo",
      "outputs": [],
      "stateMutability": "nonpayable",
      "type": "function"
    },
    {
      "inputs": [
        {
          "internalType": "bytes32",
          "name": "subjectId",
          "type": "bytes32"
        },
        {
          "internalType": "uint256",
          "name": "amount",
          "type": "uint256"
        }
      ],
      "name": "swapReward",
      "outputs": [],
      "stateMutability": "nonpayable",
      "type": "function"
    }
  ],
  "bytecode": "0x608060405234801561001057600080fd5b506002805460ff19169055613c268061002a6000396000f3fe60806040526004361061019c5760003560e01c80635c975abb116100ec578063a217fddf1161008a578063d54064a811610064578063d54064a8146104d3578063d547741f146104f7578063d7eb79f414610517578063fda0b9381461054657600080fd5b8063a217fddf1461047e578063b03499b014610493578063be0742cb146104b357600080fd5b806375b238fc116100c657806375b238fc146103d45780637f11d33f1461040857806391d148541461042d5780639c6079d61461044d57600080fd5b80635c975abb146103895780636e667db3146103a1578063747f02d0146103c157600080fd5b8063248a9ca31161015957806341e0c7d41161013357806341e0c7d414610304578063423ab485146103365780634f7304701461035657806357d159c61461036957600080fd5b8063248a9ca3146102855780632f2ff15d146102c457806336568abe146102e457600080fd5b806301ffc9a7146101a1578063105b2ba2146101d657806311c2e1281461020e57806311d7aa8a1461022357806319596cd514610243578063225118ba14610263575b600080fd5b3480156101ad57600080fd5b506101c16101bc3660046131fb565b610566565b60405190151581526020015b60405180910390f35b3480156101e257600080fd5b506006546101f6906001600160a01b031681565b6040516001600160a01b0390911681526020016101cd565b61022161021c366004613225565b61059d565b005b34801561022f57600080fd5b506005546101f6906001600160a01b031681565b34801561024f57600080fd5b506004546101f6906001600160a01b031681565b34801561026f57600080fd5b506102786109f6565b6040516101cd9190613297565b34801561029157600080fd5b506102b66102a03660046132aa565b6000908152600160208190526040909120015490565b6040519081526020016101cd565b3480156102d057600080fd5b506102216102df3660046132d8565b610a84565b3480156102f057600080fd5b506102216102ff3660046132d8565b610aaf565b34801561031057600080fd5b506102786040518060400160405280600681526020016576312e302e3160d01b81525081565b34801561034257600080fd5b50610221610351366004613308565b610b2d565b61022161036436600461341d565b610f84565b34801561037557600080fd5b506102216103843660046134c5565b6114be565b34801561039557600080fd5b5060025460ff166101c1565b3480156103ad57600080fd5b506003546101f6906001600160a01b031681565b6102216103cf3660046132aa565b6114fe565b3480156103e057600080fd5b506102b67fa49807205ce4d355092ef5a8a18f56e8913cf4a201fbe287825b095693c2177581565b34801561041457600080fd5b506002546101f69061010090046001600160a01b031681565b34801561043957600080fd5b506101c16104483660046132d8565b611801565b34801561045957600080fd5b5061046d6104683660046132aa565b61182c565b6040516101cd959493929190613526565b34801561048a57600080fd5b506102b6600081565b34801561049f57600080fd5b506102216104ae366004613225565b611ada565b3480156104bf57600080fd5b506102216104ce36600461364a565b611ef6565b3480156104df57600080fd5b506104e86121f0565b6040516101cd93929190613720565b34801561050357600080fd5b506102216105123660046132d8565b61243f565b34801561052357600080fd5b506105376105323660046132d8565b612465565b6040516101cd939291906137a7565b34801561055257600080fd5b506102216105613660046137ea565b6126e3565b60006001600160e01b03198216637965db0b60e01b148061059757506301ffc9a760e01b6001600160e01b03198316145b92915050565b6000600460009054906101000a90046001600160a01b03166001600160a01b031663aaf10f426040518163ffffffff1660e01b8152600401602060405180830381865afa1580156105f2573d6000803e3d6000fd5b505050506040513d601f19601f82011682018060405250810190610616919061385b565b90506001600160a01b03811663b36d6919336040516001600160e01b031960e084901b1681526001600160a01b039091166004820152602401602060405180830381865afa15801561066c573d6000803e3d6000fd5b505050506040513d601f19601f820116820180604052508101906106909190613878565b156106b65760405162461bcd60e51b81526004016106ad90613895565b60405180910390fd5b60025460ff16156106d95760405162461bcd60e51b81526004016106ad906138b9565b6000821161071a5760405162461bcd60e51b815260206004820152600e60248201526d494e56414c49445f53484152455360901b60448201526064016106ad565b6107256008846128a7565b6107415760405162461bcd60e51b81526004016106ad906138d9565b6000838152600a6020526040902060038101541580610767575080600301548160040154105b61079c5760405162461bcd60e51b81526004016106ad906020808252600490820152631195531360e21b604082015260600190565b6005810154156109125760058101546000846107b857816107c2565b6107c282866128c2565b83549091506107dd906001600160a01b0316335b30846128ce565b61081a5760405162461bcd60e51b815260206004820152600e60248201526d1514905394d1915497d19052531160921b60448201526064016106ad565b60018301546001600160a01b0316156108b65760018301546001600160a01b03168063a9059cbb336040516001600160e01b031960e084901b1681526001600160a01b039091166004820152602481018590526044016020604051808303816000875af115801561088f573d6000803e3d6000fd5b505050506040513d601f19601f820116820180604052508101906108b39190613878565b50505b60048301546108c590866129b0565b60048401556000868152600a60209081526040808320338452600f019091528120546108f190836129b0565b6000888152600a60209081526040808320338452600f019091529020555050505b61091f600a8201336129bc565b50336000908152600e8201602052604090205461093d9084906129b0565b336000818152600e84016020526040812083905591945061097e918691600c91905b6001600160a01b031681526020810191909152604001600020906129d1565b5060018101547f69b95071146e8e4f0782a283e5409a82fe6577e70e17bbb38355383b021306fb906001600160a01b03166109bb600a84016129dd565b6109c784600c016129dd565b604080516001600160a01b0390941684526020840192909252908201526060015b60405180910390a150505050565b60078054610a03906138fd565b80601f0160208091040260200160405190810160405280929190818152602001828054610a2f906138fd565b8015610a7c5780601f10610a5157610100808354040283529160200191610a7c565b820191906000526020600020905b815481529060010190602001808311610a5f57829003601f168201915b505050505081565b60008281526001602081905260409091200154610aa0816129e7565b610aaa83836129f4565b505050565b6001600160a01b0381163314610b1f5760405162461bcd60e51b815260206004820152602f60248201527f416363657373436f6e74726f6c3a2063616e206f6e6c792072656e6f756e636560448201526e103937b632b9903337b91039b2b63360891b60648201526084016106ad565b610b298282612a5f565b5050565b6000600460009054906101000a90046001600160a01b03166001600160a01b031663aaf10f426040518163ffffffff1660e01b8152600401602060405180830381865afa158015610b82573d6000803e3d6000fd5b505050506040513d601f19601f82011682018060405250810190610ba6919061385b565b90506001600160a01b03811663b36d6919336040516001600160e01b031960e084901b1681526001600160a01b039091166004820152602401602060405180830381865afa158015610bfc573d6000803e3d6000fd5b505050506040513d601f19601f82011682018060405250810190610c209190613878565b15610c3d5760405162461bcd60e51b81526004016106ad90613895565b60025460ff1615610c605760405162461bcd60e51b81526004016106ad906138b9565b610c6b6008856128a7565b610c875760405162461bcd60e51b81526004016106ad906138d9565b6000848152600a60205260409020610ca4335b600a830190612ac6565b610cdb5760405162461bcd60e51b81526020600482015260086024820152672727aa2fa527a4a760c11b60448201526064016106ad565b336000908152600f82016020526040902054610d275760405162461bcd60e51b815260206004820152600b60248201526a151250d2d15514d7d3d55560aa1b60448201526064016106ad565b336000908152600f820160205260409020546001600160a01b038516158015610d4e575083155b15610e47576000610d6183600c016129dd565b9050610d7981610d73846127106128c2565b90612ae8565b915060005b81811015610dc057610d93600c850182612af4565b8454909750610dad906001600160a01b03163389866128ce565b5080610db88161394d565b915050610d7e565b50336000818152600f85016020526040902054610ddd9190612b00565b336000908152600f8401602052604081208190557f2facdae94aa92b3c39fb9c489bcfac242d193416fbbd614ce9bf4ed19a7f440a90610e2983610e2386612710612ae8565b906128c2565b6040805192835260208301919091520160405180910390a150610f7c565b610e54600c830186612ac6565b610e955760405162461bcd60e51b8152602060048201526012602482015271544541434845525f4e4f545f45584953545360701b60448201526064016106ad565b600084118015610ea55750808411155b610ee35760405162461bcd60e51b815260206004820152600f60248201526e494e56414c49445f5449434b45545360881b60448201526064016106ad565b8154610f05906001600160a01b03163387610f00886127106128c2565b6128ce565b50610f103385612b00565b336000908152600f83016020526040902054610f2d908290613966565b336000908152600f84016020908152604091829020839055815192835282018690527f2facdae94aa92b3c39fb9c489bcfac242d193416fbbd614ce9bf4ed19a7f440a91015b60405180910390a15b505050505050565b6000600460009054906101000a90046001600160a01b03166001600160a01b031663aaf10f426040518163ffffffff1660e01b8152600401602060405180830381865afa158015610fd9573d6000803e3d6000fd5b505050506040513d601f19601f82011682018060405250810190610ffd919061385b565b90506001600160a01b03811663b36d6919336040516001600160e01b031960e084901b1681526001600160a01b039091166004820152602401602060405180830381865afa158015611053573d6000803e3d6000fd5b505050506040513d601f19601f820116820180604052508101906110779190613878565b156110945760405162461bcd60e51b81526004016106ad90613895565b60025460ff16156110b75760405162461bcd60e51b81526004016106ad906138b9565b60808301516110f95760405162461bcd60e51b815260206004820152600e60248201526d494e56414c49445f53484152455360901b60448201526064016106ad565b6111064262093a806129b0565b60408401511161114a5760405162461bcd60e51b815260206004820152600f60248201526e494e56414c49445f454e4454494d4560881b60448201526064016106ad565b81518290156111895760405162461bcd60e51b815260206004820152600b60248201526a494e56414c49445f55524960a81b60448201526064016106ad565b6000858460405160200161119e92919061398f565b60408051808303601f1901815291815281516020928301206000818152600a8085529083902080546001600160a01b03199081166001600160a01b038d16178255600282018054339216821790558a51600383015560808b01516004830155948a0151600582015592890151600684015560608901516007840155909350611228929101906129bc565b5060808501516000828152600a60208181526040808420338552600e81018352908420949094559184905290526009016112628582613a0d565b50602085015115611434576080850151600090611283576020860151611296565b60808601516020870151611296916128c2565b90506112a287336107d6565b6112df5760405162461bcd60e51b815260206004820152600e60248201526d1514905394d1915497d19052531160921b60448201526064016106ad565b6006546112f4906001600160a01b0316612be4565b6000838152600a60205260409081902060010180546001600160a01b0319166001600160a01b039390931692831790555163cd6dc68760e01b81523060048201526a52b7d2dcc80cd2e40000006024820152819063cd6dc68790604401600060405180830381600087803b15801561136b57600080fd5b505af115801561137f573d6000803e3d6000fd5b50505050806001600160a01b031663a9059cbb6113993390565b6113a5856127106128c2565b6040516001600160e01b031960e085901b1681526001600160a01b03909216600483015260248201526044016020604051808303816000875af11580156113f0573d6000803e3d6000fd5b505050506040513d601f19601f820116820180604052508101906114149190613878565b50506000828152600a60209081526040808320338452600f019091529020555b61144281600b60003361095f565b5061145181600c60003361095f565b5061145d6008826129d1565b506000818152600a60209081526040918290206001015482518481526001600160a01b03808b16938201939093529116918101919091527ff86dd263da3cbcb66b765236602805adf7b32c5486bb8be8bc6985402f170ca790606001610f73565b7fa49807205ce4d355092ef5a8a18f56e8913cf4a201fbe287825b095693c217756114e8816129e7565b81156114f657610b29612c7e565b610b29612cd8565b6000600460009054906101000a90046001600160a01b03166001600160a01b031663aaf10f426040518163ffffffff1660e01b8152600401602060405180830381865afa158015611553573d6000803e3d6000fd5b505050506040513d601f19601f82011682018060405250810190611577919061385b565b90506001600160a01b03811663b36d6919336040516001600160e01b031960e084901b1681526001600160a01b039091166004820152602401602060405180830381865afa1580156115cd573d6000803e3d6000fd5b505050506040513d601f19601f820116820180604052508101906115f19190613878565b1561160e5760405162461bcd60e51b81526004016106ad90613895565b60025460ff16156116315760405162461bcd60e51b81526004016106ad906138b9565b61163c6008836128a7565b6116585760405162461bcd60e51b81526004016106ad906138d9565b6000828152600a6020526040812061166f33610c9a565b6116a65760405162461bcd60e51b81526020600482015260086024820152672727aa2fa527a4a760c11b60448201526064016106ad565b600581015415611765576116e5816005015482600e0160006116c53390565b6001600160a01b03168152602081019190915260400160002054906128c2565b6001820154909250611708906001600160a01b03163330610f00866127106128c2565b6117455760405162461bcd60e51b815260206004820152600e60248201526d1253959053125117d51250d2d15560921b60448201526064016106ad565b805461175c906001600160a01b03163033856128ce565b61176557600080fd5b611772600a820133612d11565b50336000908152600c6020526040902061178c9085612d26565b50336000908152600e8201602052604090205460048201546117ad91612d32565b6004820155336000908152600e8201602052604081205560018101547f1ed432da3a887c0ce4a2225ec6121096dfbddca6f79c7a58c5ab5b2f800ed2fa906001600160a01b0316836109c7600a85016129dd565b60009182526001602090815260408084206001600160a01b0393909316845291905290205460ff1690565b6060611836613141565b61183e61315f565b6000848152600a602052604090206009018054606091829161185f906138fd565b80601f016020809104026020016040519081016040528092919081815260200182805461188b906138fd565b80156118d85780601f106118ad576101008083540402835291602001916118d8565b820191906000526020600020905b8154815290600101906020018083116118bb57829003601f168201915b5050506000898152600a6020818152604080842080546001600160a01b039081168d52600182015481168d8501526002820154168c83015260038101548b5260048101548b8401526005810154918b0191909152600681015460608b0152600781015460808b0152600881015460a08b01528c845290829052949950909361196393500190506129dd565b9050806001600160401b0381111561197d5761197d613340565b6040519080825280602002602001820160405280156119a6578160200160208202803683370190505b50925060005b81811015611a0c576000888152600a602081905260409091206119d0910182612af4565b8482815181106119e2576119e2613979565b6001600160a01b039092166020928302919091019091015280611a048161394d565b9150506119ac565b506000878152600a60205260409020611a2790600c016129dd565b9050806001600160401b03811115611a4157611a41613340565b604051908082528060200260200182016040528015611a6a578160200160208202803683370190505b50915060005b81811015611acf576000888152600a60205260409020611a9390600c0182612af4565b838281518110611aa557611aa5613979565b6001600160a01b039092166020928302919091019091015280611ac78161394d565b915050611a70565b505091939590929450565b6000600460009054906101000a90046001600160a01b03166001600160a01b031663aaf10f426040518163ffffffff1660e01b8152600401602060405180830381865afa158015611b2f573d6000803e3d6000fd5b505050506040513d601f19601f82011682018060405250810190611b53919061385b565b90506001600160a01b03811663b36d6919336040516001600160e01b031960e084901b1681526001600160a01b039091166004820152602401602060405180830381865afa158015611ba9573d6000803e3d6000fd5b505050506040513d601f19601f82011682018060405250810190611bcd9190613878565b15611bea5760405162461bcd60e51b81526004016106ad90613895565b60025460ff1615611c0d5760405162461bcd60e51b81526004016106ad906138b9565b611c186008846128a7565b611c345760405162461bcd60e51b81526004016106ad906138d9565b6000838152600a6020526040902060068101544210611c7f5760405162461bcd60e51b81526020600482015260076024820152661393d517d1539160ca1b60448201526064016106ad565b611c8c600c820133612ac6565b611ccd5760405162461bcd60e51b8152602060048201526012602482015271544541434845525f4e4f545f45584953545360701b60448201526064016106ad565b60008311611d0e5760405162461bcd60e51b815260206004820152600e60248201526d1253959053125117d05353d5539560921b60448201526064016106ad565b6001810154611d2e906001600160a01b03163330610f00876127106128c2565b611d6b5760405162461bcd60e51b815260206004820152600e60248201526d1253959053125117d51250d2d15560921b60448201526064016106ad565b6005546040805163557887a160e11b815290516000926001600160a01b03169163aaf10f429160048083019260209291908290030181865afa158015611db5573d6000803e3d6000fd5b505050506040513d601f19601f82011682018060405250810190611dd9919061385b565b9050600080826001600160a01b03166398aca9226040518163ffffffff1660e01b81526004016040805180830381865afa158015611e1b573d6000803e3d6000fd5b505050506040513d601f19601f82011682018060405250810190611e3f9190613acc565b90925090506000611e5682610d73896127106128c2565b8554909150611e74906001600160a01b03163033610f008b86612d32565b508454611e8c906001600160a01b03163085846128ce565b50611e973388612b00565b7fd1512bc414025eba1e89821afbb4a0c7eb82feedddf362500cb6e0517ae71a35611ec28883612d32565b865460408051928352602083018590526001600160a01b039091169082015260600160405180910390a15050505050505050565b6000600460009054906101000a90046001600160a01b03166001600160a01b031663aaf10f426040518163ffffffff1660e01b8152600401602060405180830381865afa158015611f4b573d6000803e3d6000fd5b505050506040513d601f19601f82011682018060405250810190611f6f919061385b565b90506001600160a01b03811663b36d6919336040516001600160e01b031960e084901b1681526001600160a01b039091166004820152602401602060405180830381865afa158015611fc5573d6000803e3d6000fd5b505050506040513d601f19601f82011682018060405250810190611fe99190613878565b156120065760405162461bcd60e51b81526004016106ad90613895565b60025460ff16156120295760405162461bcd60e51b81526004016106ad906138b9565b6120346008876128a7565b6120505760405162461bcd60e51b81526004016106ad906138d9565b336000908152600d6020526040902061206990876128a7565b156120c3576000868152600e6020908152604080832033845290915281206120969160019091019061317d565b6000868152600e6020908152604080832033845290915281206120be9160029091019061317d565b612113565b6120d186600d60003361095f565b506120ed336000888152600a60205260409020600c01906129bc565b506000868152600e6020908152604080832033845290915290206121118682613a0d565b505b6000868152600e60209081526040808320338452825290912060058101805460ff191685151517905585516121509260019092019187019061319b565b506000868152600e602090815260408083203384528252909120845161217e9260029092019186019061319b565b5060008351855161218f9190613afa565b90507f0ae69ab16381c95d20f2f4bde4d6a0484d4f18e6a3148d455f3444a0e6fe78dc6121d0600a60008a8152602001908152602001600020600a016129dd565b60408051918252602082018490520160405180910390a150505050505050565b60608060606121ff60086129dd565b6001600160401b0381111561221657612216613340565b60405190808252806020026020018201604052801561223f578160200160208202803683370190505b50925061224c60086129dd565b6001600160401b0381111561226357612263613340565b60405190808252806020026020018201604052801561228c578160200160208202803683370190505b50915082516001600160401b038111156122a8576122a8613340565b6040519080825280602002602001820160405280156122db57816020015b60608152602001906001900390816122c65790505b50905060005b83518110156124395760006122f7600883612af4565b6000818152600a602052604090206002015486519192506001600160a01b03169086908490811061232a5761232a613979565b60200260200101906001600160a01b031690816001600160a01b0316815250508084838151811061235d5761235d613979565b602002602001018181525050600a6000828152602001908152602001600020600901805461238a906138fd565b80601f01602080910402602001604051908101604052809291908181526020018280546123b6906138fd565b80156124035780601f106123d857610100808354040283529160200191612403565b820191906000526020600020905b8154815290600101906020018083116123e657829003601f168201915b505050505083838151811061241a5761241a613979565b60200260200101819052505080806124319061394d565b9150506122e1565b50909192565b6000828152600160208190526040909120015461245b816129e7565b610aaa8383612a5f565b6000828152600e602090815260408083206001600160a01b038516845290915290208054606091829182919061249a906138fd565b80601f01602080910402602001604051908101604052809291908181526020018280546124c6906138fd565b80156125135780601f106124e857610100808354040283529160200191612513565b820191906000526020600020905b8154815290600101906020018083116124f657829003601f168201915b5050506000888152600e602090815260408083206001600160a01b038b1684528252918290206001018054835181840281018401909452808452959850919491935090915083018282801561258757602002820191906000526020600020905b815481526020019060010190808311612573575b5050506000888152600a6020526040902060060154929450505042101561264b576000858152600e602090815260408083206001600160a01b038816845290915290206005015460ff1615612646576000858152600e602090815260408083206001600160a01b03881684528252918290206002018054835181840281018401909452808452909183018282801561263e57602002820191906000526020600020905b81548152602001906001019080831161262a575b505050505090505b6126dc565b612667336000878152600a602081905260409091200190612ac6565b156126dc576000858152600e602090815260408083206001600160a01b0388168452825291829020600201805483518184028101840190945280845290918301828280156126d457602002820191906000526020600020905b8154815260200190600101908083116126c0575b505050505090505b9250925092565b600054610100900460ff16158080156127035750600054600160ff909116105b8061271d5750303b15801561271d575060005460ff166001145b6127805760405162461bcd60e51b815260206004820152602e60248201527f496e697469616c697a61626c653a20636f6e747261637420697320616c72656160448201526d191e481a5b9a5d1a585b1a5e995960921b60648201526084016106ad565b6000805460ff1916600117905580156127a3576000805461ff0019166101001790555b6127cd7fa49807205ce4d355092ef5a8a18f56e8913cf4a201fbe287825b095693c21775856129f4565b6127d86000856129f4565b60076127e48382613a0d565b50825160028054610100600160a81b0319166101006001600160a01b03938416021790556020840151600380549183166001600160a01b031992831617905560408501516004805491841691831691909117905560608501516005805491841691831691909117905560808501516006805491909316911617905580156128a1576000805461ff0019169055604051600181527f7f26b83ff96e1f2b6a682f133852f6798a09c465da95921460cefb3847402498906020016109e8565b50505050565b600081815260018301602052604081205415155b9392505050565b60006128bb8284613b0d565b60006001600160a01b03851661291e576040516001600160a01b0385169083156108fc029084906000818181858888f19350505050158015612914573d6000803e3d6000fd5b50600190506129a8565b600354604051630aed65f560e11b81526001600160a01b0387811660048301528681166024830152858116604483015260648201859052909116906315dacbea906084016020604051808303816000875af1158015612981573d6000803e3d6000fd5b505050506040513d601f19601f820116820180604052508101906129a59190613878565b90505b949350505050565b60006128bb8284613afa565b60006128bb836001600160a01b038416612d3e565b60006128bb8383612d3e565b6000610597825490565b6129f18133612d8d565b50565b6129fe8282611801565b610b295760008281526001602081815260408084206001600160a01b0386168086529252808420805460ff19169093179092559051339285917f2f8788117e7eff1d82e926ec794901d17c78024a50270940304540a733656f0d9190a45050565b612a698282611801565b15610b295760008281526001602090815260408083206001600160a01b0385168085529252808320805460ff1916905551339285917ff6391f5c32d9c69d2a47ea670b442974b53935d1edc7fd64eb21e047a839171b9190a45050565b6001600160a01b038116600090815260018301602052604081205415156128bb565b60006128bb8284613b2c565b60006128bb8383612de6565b6000600260019054906101000a90046001600160a01b03166001600160a01b031663aaf10f426040518163ffffffff1660e01b8152600401602060405180830381865afa158015612b55573d6000803e3d6000fd5b505050506040513d601f19601f82011682018060405250810190612b79919061385b565b6040516308934a5f60e31b81526001600160a01b038581166004830152602482018590529192509082169063449a52f890604401600060405180830381600087803b158015612bc757600080fd5b505af1158015612bdb573d6000803e3d6000fd5b50505050505050565b6000763d602d80600a3d3981f3363d3d373d3d3d363d730000008260601b60e81c176000526e5af43d82803e903d91602b57fd5bf38260781b17602052603760096000f090506001600160a01b038116612c795760405162461bcd60e51b8152602060048201526016602482015275115490cc4c4d8dce8818dc99585d194819985a5b195960521b60448201526064016106ad565b919050565b612c86612e10565b6002805460ff191660011790557f62e78cea01bee320cd4e420270b5ea74000d11b0c9f74754ebdbfc544b05a258612cbb3390565b6040516001600160a01b03909116815260200160405180910390a1565b612ce0612e58565b6002805460ff191690557f5db9ee0a495bf2e6ff9c91a7834c1ba4fdd244a5e8aa4e537bd38aeae4b073aa33612cbb565b60006128bb836001600160a01b038416612ea1565b60006128bb8383612ea1565b60006128bb8284613966565b6000818152600183016020526040812054612d8557508154600181810184556000848152602080822090930184905584548482528286019093526040902091909155610597565b506000610597565b612d978282611801565b610b2957612da481612f94565b612daf836020612fa6565b604051602001612dc0929190613b4e565b60408051601f198184030181529082905262461bcd60e51b82526106ad91600401613297565b6000826000018281548110612dfd57612dfd613979565b9060005260206000200154905092915050565b60025460ff1615612e565760405162461bcd60e51b815260206004820152601060248201526f14185d5cd8589b194e881c185d5cd95960821b60448201526064016106ad565b565b60025460ff16612e565760405162461bcd60e51b815260206004820152601460248201527314185d5cd8589b194e881b9bdd081c185d5cd95960621b60448201526064016106ad565b60008181526001830160205260408120548015612f8a576000612ec5600183613966565b8554909150600090612ed990600190613966565b9050818114612f3e576000866000018281548110612ef957612ef9613979565b9060005260206000200154905080876000018481548110612f1c57612f1c613979565b6000918252602080832090910192909255918252600188019052604090208390555b8554869080612f4f57612f4f613bc3565b600190038181906000526020600020016000905590558560010160008681526020019081526020016000206000905560019350505050610597565b6000915050610597565b60606105976001600160a01b03831660145b60606000612fb5836002613b0d565b612fc0906002613afa565b6001600160401b03811115612fd757612fd7613340565b6040519080825280601f01601f191660200182016040528015613001576020820181803683370190505b509050600360fc1b8160008151811061301c5761301c613979565b60200101906001600160f81b031916908160001a905350600f60fb1b8160018151811061304b5761304b613979565b60200101906001600160f81b031916908160001a905350600061306f846002613b0d565b61307a906001613afa565b90505b60018111156130f2576f181899199a1a9b1b9c1cb0b131b232b360811b85600f16601081106130ae576130ae613979565b1a60f81b8282815181106130c4576130c4613979565b60200101906001600160f81b031916908160001a90535060049490941c936130eb81613bd9565b905061307d565b5083156128bb5760405162461bcd60e51b815260206004820181905260248201527f537472696e67733a20686578206c656e67746820696e73756666696369656e7460448201526064016106ad565b60405180606001604052806003906020820280368337509192915050565b6040518060c001604052806006906020820280368337509192915050565b50805460008255906000526020600020908101906129f191906131e6565b8280548282559060005260206000209081019282156131d6579160200282015b828111156131d65782518255916020019190600101906131bb565b506131e29291506131e6565b5090565b5b808211156131e257600081556001016131e7565b60006020828403121561320d57600080fd5b81356001600160e01b0319811681146128bb57600080fd5b6000806040838503121561323857600080fd5b50508035926020909101359150565b60005b8381101561326257818101518382015260200161324a565b50506000910152565b60008151808452613283816020860160208601613247565b601f01601f19169290920160200192915050565b6020815260006128bb602083018461326b565b6000602082840312156132bc57600080fd5b5035919050565b6001600160a01b03811681146129f157600080fd5b600080604083850312156132eb57600080fd5b8235915060208301356132fd816132c3565b809150509250929050565b60008060006060848603121561331d57600080fd5b83359250602084013561332f816132c3565b929592945050506040919091013590565b634e487b7160e01b600052604160045260246000fd5b60405160a081016001600160401b038111828210171561337857613378613340565b60405290565b604051601f8201601f191681016001600160401b03811182821017156133a6576133a6613340565b604052919050565b600082601f8301126133bf57600080fd5b81356001600160401b038111156133d8576133d8613340565b6133eb601f8201601f191660200161337e565b81815284602083860101111561340057600080fd5b816020850160208301376000918101602001919091529392505050565b600080600060e0848603121561343257600080fd5b833561343d816132c3565b92506020603f8501861361345057600080fd5b613458613356565b8060c087018881111561346a57600080fd5b8388015b81811015613485578035845292840192840161346e565b50909450359150506001600160401b038111156134a157600080fd5b6134ad868287016133ae565b9150509250925092565b80151581146129f157600080fd5b6000602082840312156134d757600080fd5b81356128bb816134b7565b600081518084526020808501945080840160005b8381101561351b5781516001600160a01b0316875295820195908201906001016134f6565b509495945050505050565b600061018080835261353a8184018961326b565b905060208084018860005b600381101561356b5781516001600160a01b031683529183019190830190600101613545565b505050608084018760005b600681101561359357815183529183019190830190600101613576565b505050508281036101408401526135aa81866134e2565b90508281036101608401526135bf81856134e2565b98975050505050505050565b600082601f8301126135dc57600080fd5b813560206001600160401b038211156135f7576135f7613340565b8160051b61360682820161337e565b928352848101820192828101908785111561362057600080fd5b83870192505b8483101561363f57823582529183019190830190613626565b979650505050505050565b600080600080600060a0868803121561366257600080fd5b8535945060208601356001600160401b038082111561368057600080fd5b61368c89838a016133ae565b955060408801359150808211156136a257600080fd5b6136ae89838a016135cb565b945060608801359150808211156136c457600080fd5b506136d1888289016135cb565b92505060808601356136e2816134b7565b809150509295509295909350565b600081518084526020808501945080840160005b8381101561351b57815187529582019590820190600101613704565b60608152600061373360608301866134e2565b60208382038185015261374682876136f0565b915083820360408501528185518084528284019150828160051b85010183880160005b8381101561379757601f1987840301855261378583835161326b565b94860194925090850190600101613769565b50909a9950505050505050505050565b6060815260006137ba606083018661326b565b82810360208401526137cc81866136f0565b905082810360408401526137e081856136f0565b9695505050505050565b600080600060e084860312156137ff57600080fd5b833561380a816132c3565b92506020603f8501861361381d57600080fd5b613825613356565b8060c087018881111561383757600080fd5b8388015b8181101561348557803561384e816132c3565b845292840192840161383b565b60006020828403121561386d57600080fd5b81516128bb816132c3565b60006020828403121561388a57600080fd5b81516128bb816134b7565b6020808252600a908201526910931050d2d7d31254d560b21b604082015260600190565b60208082526006908201526514105554d15160d21b604082015260600190565b6020808252600a90820152694e4f545f45584953545360b01b604082015260600190565b600181811c9082168061391157607f821691505b60208210810361393157634e487b7160e01b600052602260045260246000fd5b50919050565b634e487b7160e01b600052601160045260246000fd5b60006001820161395f5761395f613937565b5060010190565b8181038181111561059757610597613937565b634e487b7160e01b600052603260045260246000fd5b6bffffffffffffffffffffffff198360601b168152600082516139b9816014850160208701613247565b919091016014019392505050565b601f821115610aaa57600081815260208120601f850160051c810160208610156139ee5750805b601f850160051c820191505b81811015610f7c578281556001016139fa565b81516001600160401b03811115613a2657613a26613340565b613a3a81613a3484546138fd565b846139c7565b602080601f831160018114613a6f5760008415613a575750858301515b600019600386901b1c1916600185901b178555610f7c565b600085815260208120601f198616915b82811015613a9e57888601518255948401946001909101908401613a7f565b5085821015613abc5787850151600019600388901b60f8161c191681555b5050505050600190811b01905550565b60008060408385031215613adf57600080fd5b8251613aea816132c3565b6020939093015192949293505050565b8082018082111561059757610597613937565b6000816000190483118215151615613b2757613b27613937565b500290565b600082613b4957634e487b7160e01b600052601260045260246000fd5b500490565b7f416363657373436f6e74726f6c3a206163636f756e7420000000000000000000815260008351613b86816017850160208801613247565b7001034b99036b4b9b9b4b733903937b6329607d1b6017918401918201528351613bb7816028840160208801613247565b01602801949350505050565b634e487b7160e01b600052603160045260246000fd5b600081613be857613be8613937565b50600019019056fea264697066735822122062a0a1c25e77f8d8b757abf4b97dbf98868bd2ef9777421bbf088adc0448a36f64736f6c63430008100033",
  "immutableReferences": {},
  "source": "// SPDX-License-Identifier: SimPL-2.0\n\npragma solidity ^0.8.0;\n\nimport \"../know-token/KnowlageToken.sol\";\nimport \"../know-proxy/TokenProxy.sol\";\nimport \"../know-proxy/BlackListProxy.sol\";\nimport \"../know-proxy/TransferProxy.sol\";\nimport \"../know-proxy/ReceiveFeeProxy.sol\";\nimport \"../know-template/TicketERC20Template.sol\";\nimport \"../know-interface/IReceiver.sol\";\nimport \"../know-interface/IBlackList.sol\";\n\nimport \"@openzeppelin/contracts/access/AccessControl.sol\";\nimport \"@openzeppelin/contracts/security/Pausable.sol\";\n\nimport \"@openzeppelin/contracts/token/ERC20/IERC20.sol\";\nimport \"@openzeppelin/contracts/utils/structs/EnumerableSet.sol\";\nimport \"@openzeppelin/contracts/utils/math/SafeMath.sol\";\nimport \"@openzeppelin/contracts/proxy/Clones.sol\";\n\n/**\n * @title Major Factory Contract\n * @notice HorseRace is a NFT horse racing metaverse based on pylogon\n * @notice ....\n *\n * @notice Website: https://horse-racing.io/\n * @notice Docs: https://horse-racing.gitbook.io/horse-racing-docs/\n * \n * @dev Version: v1.0.1\n */\ncontract SubjectTemplate is Initializable, AccessControl, Pausable {\n    using SafeMath for uint256;\n    using EnumerableSet for EnumerableSet.Bytes32Set;\n    using EnumerableSet for EnumerableSet.AddressSet;\n\n    struct Subject {\n        /** @notice  */\n        address tuitionToken;\n        address ticketToken;\n        address creater;\n        uint256 totalShares;\n        uint256 joinShares;\n        uint256 uintTuitionAmount;\n        uint256 endTime;\n        uint256 freeTime;\n        uint256 status;\n        string descriptionURI;\n        EnumerableSet.AddressSet members;\n        EnumerableSet.AddressSet teachers;\n        mapping (address => uint256) shares;\n        mapping (address => uint256) tickets;\n    }\n\n    struct Courseware {\n        string descriptionURI;\n        bytes32[] freeCoursewareURIs;\n        bytes32[] otherCoursewareURIs;\n        uint256 reports;\n        uint256 status;\n        bool isFreeWhenEnd;\n    }\n\n    /** @notice Version of contract */\n    string constant public LASTEST_VERSION = \"v1.0.1\";\n\n    /** @notice The role of access control - (admin role) */\n    bytes32 constant public ADMIN_ROLE = keccak256(\"ADMIN_ROLE\");\n\n    /** @notice Address of token proxy contract - For subject mint token */\n    TokenProxy public tokenProxy;\n\n    /** @notice Address of transfer proxy contract - For subject transfer token */\n    TransferProxy public transferProxy;\n\n    /** @notice Address of black list proxy contract - For subject black list */\n    BalckListProxy public blackListProxy;\n\n    /** @notice Address of fee receiver proxy contract - For subject transfer fee */\n    ReceiveFeeProxy public receiveFeeProxy;\n\n    /** @notice Address of ticket lp token contract - For subject transfer ticket token */\n    address public ticketERC20Template;\n\n    string public subjectURI;\n\n    EnumerableSet.Bytes32Set private _subjectIds;\n\n    mapping (bytes32 => Subject) private _subjects;\n\n    mapping (address => EnumerableSet.Bytes32Set) private _applys;\n    mapping (address => EnumerableSet.Bytes32Set) private _joineds;\n\n    mapping (address => EnumerableSet.Bytes32Set) private _teaching;\n    mapping (bytes32 => mapping (address => Courseware)) private _coursewares;\n\n    event AskNewSubject(bytes32 subjectId, address tuitionToken, address ticketToken);\n    event JoinSubject(address ticketToken, uint256 members, uint256 teachers);\n    event ExitSubject(address ticketToken, uint256 amount, uint256 members);\n    event UploadCourseware(uint256 members, uint256 coursewareURIs);\n    event VoteTo(uint256 leftTickets, uint256 knowAmount);\n    event SwapReward(uint256 amount, uint256 fee, address tuitionToken);\n\n    function _transfer(\n        address tuitionToken, address from, address to, uint256 amount\n    ) private returns (bool) {\n        if (tuitionToken == address(0)) {\n            // require(msg.value >= amount, \"INVALID_AMOUNT\");\n            payable(from).transfer(amount);\n            return true;\n        } else {\n            return transferProxy.transferFrom(tuitionToken, from, to, amount);\n        }\n    }\n\n    function _mintKnowToken(address account, uint256 amount) private {\n        address token = tokenProxy.getImplementation();\n        KnowlageToken(token).mintTo(account, amount);\n    }\n\n    modifier isBlackList() {\n        address blackList = blackListProxy.getImplementation();\n        require(!IBlackList(blackList).isBlackList(_msgSender()), \"BLACK_LIST\");\n        require(!paused(), \"PAUSED\");\n\n        _;\n    }\n\n    function initialize(\n        address admin, address[5] memory proxys, string memory _subjectURI\n    ) public initializer {\n        _grantRole(ADMIN_ROLE, admin);\n        _grantRole(DEFAULT_ADMIN_ROLE, admin);\n\n        subjectURI = _subjectURI;\n\n        tokenProxy = TokenProxy(payable(proxys[0]));\n        transferProxy = TransferProxy(proxys[1]);\n        blackListProxy = BalckListProxy(payable(proxys[2]));\n        receiveFeeProxy = ReceiveFeeProxy(payable(proxys[3]));\n        ticketERC20Template = proxys[4];\n    }\n\n    function getCourseList() public view returns (\n        address[] memory proposers, bytes32[] memory subjectIds,\n        string[] memory descriptionURIs\n    ) {\n        proposers = new address[](_subjectIds.length());\n        subjectIds = new bytes32[](_subjectIds.length());\n        descriptionURIs = new string[](proposers.length);\n\n        for (uint256 index = 0; index < proposers.length; index++) {\n            bytes32 subjectId = _subjectIds.at(index);\n\n            proposers[index] = _subjects[subjectId].creater;\n            subjectIds[index] = subjectId;\n            descriptionURIs[index] = _subjects[subjectId].descriptionURI;\n        }\n    }\n\n    function getCourseDetail(bytes32 subjectId) public view returns (\n        string memory uri, address[3] memory addrs, uint256[6] memory settings,\n        address[] memory members, address[] memory teachers\n    ) {\n        uri = _subjects[subjectId].descriptionURI;\n\n        addrs[0] = _subjects[subjectId].tuitionToken;\n        addrs[1] = _subjects[subjectId].ticketToken;\n        addrs[2] = _subjects[subjectId].creater;\n\n        settings[0] = _subjects[subjectId].totalShares;\n        settings[1] = _subjects[subjectId].joinShares;\n        settings[2] = _subjects[subjectId].uintTuitionAmount;\n        settings[3] = _subjects[subjectId].endTime;\n        settings[4] = _subjects[subjectId].freeTime;\n        settings[5] = _subjects[subjectId].status;\n\n        uint256 length = _subjects[subjectId].members.length();\n        members = new address[](length);\n\n        for (uint256 index = 0; index < length; index++) {\n            members[index] = _subjects[subjectId].members.at(index);\n        }\n\n        length = _subjects[subjectId].teachers.length();\n        teachers = new address[](length);\n\n        for (uint256 index = 0; index < length; index++) {\n            teachers[index] = _subjects[subjectId].teachers.at(index);\n        }\n    }\n\n    function getSubjectCourseware(\n        bytes32 subjectId, address teacher\n    ) public view returns (string memory uri, bytes32[] memory free, bytes32[] memory other) {\n        uri = _coursewares[subjectId][teacher].descriptionURI;\n        free = _coursewares[subjectId][teacher].freeCoursewareURIs;\n\n        if (_subjects[subjectId].endTime > block.timestamp) {\n            if (_coursewares[subjectId][teacher].isFreeWhenEnd)\n                other =  _coursewares[subjectId][teacher].otherCoursewareURIs;\n        } else {\n            if (_subjects[subjectId].members.contains(_msgSender()))\n                other =  _coursewares[subjectId][teacher].otherCoursewareURIs;\n        }\n    }\n\n    function togglePause(bool status) public onlyRole(ADMIN_ROLE) {\n        if (status) _pause();\n        else _unpause();\n    }\n\n    function askNewSubject(\n        address tuitionToken, uint256[5] memory parms, string memory descriptionURI\n    ) public payable isBlackList {\n        require(parms[4] > 0, \"INVALID_SHARES\");\n        require(parms[2] > block.timestamp.add(7 days), \"INVALID_ENDTIME\");\n\n        bytes memory check = bytes(descriptionURI);\n        require(check.length == 0, \"INVALID_URI\");\n\n        bytes32 subjectId = keccak256(abi.encodePacked(tuitionToken, descriptionURI));\n\n        _subjects[subjectId].tuitionToken = tuitionToken;\n        _subjects[subjectId].creater = _msgSender();\n        _subjects[subjectId].totalShares = parms[0];\n        _subjects[subjectId].joinShares = parms[4];\n        _subjects[subjectId].uintTuitionAmount = parms[1];\n        _subjects[subjectId].endTime = parms[2];\n        _subjects[subjectId].freeTime = parms[3];\n        _subjects[subjectId].members.add(_msgSender());\n        _subjects[subjectId].shares[_msgSender()] = parms[4];\n        _subjects[subjectId].descriptionURI = descriptionURI;\n\n        if (parms[1] > 0) {\n            uint256 tuitionAmount = parms[4] > 0 ? parms[1].mul(parms[4]) : parms[1];\n            require(_transfer(tuitionToken, _msgSender(), address(this), tuitionAmount), \"TRANSFER_FAILD\");\n\n            _subjects[subjectId].ticketToken = Clones.clone(ticketERC20Template);\n            TicketERC20Template ticket = TicketERC20Template(_subjects[subjectId].ticketToken);\n            ticket.initialize(address(this), 100000000e18);\n            ticket.transfer(_msgSender(), tuitionAmount.mul(10000));\n            _subjects[subjectId].tickets[_msgSender()] = tuitionAmount;\n        }\n\n        _applys[_msgSender()].add(subjectId);\n        _joineds[_msgSender()].add(subjectId);\n        _subjectIds.add(subjectId);\n\n        emit AskNewSubject(subjectId, tuitionToken, _subjects[subjectId].ticketToken);\n    }\n\n    function joinSubject(bytes32 subjectId, uint256 shares) public payable isBlackList {\n        require(shares > 0, \"INVALID_SHARES\");\n        require(_subjectIds.contains(subjectId), \"NOT_EXISTS\");\n\n        Subject storage subject = _subjects[subjectId];\n        require(subject.totalShares == 0 || subject.joinShares < subject.totalShares, \"FULL\");\n\n        if (subject.uintTuitionAmount > 0) {\n            uint256 uintAmount = subject.uintTuitionAmount;\n            uint256 tuitionAmount = shares > 0 ? uintAmount.mul(shares) : uintAmount;\n\n            require(_transfer(\n                subject.tuitionToken, _msgSender(), address(this), tuitionAmount\n            ), \"TRANSFER_FAILD\");\n\n            if (subject.ticketToken != address(0)) {\n                TicketERC20Template ticketToken = TicketERC20Template(subject.ticketToken);\n                ticketToken.transfer(_msgSender(), tuitionAmount);\n            }\n\n            subject.joinShares = subject.joinShares.add(shares);\n            uint256 ticket = _subjects[subjectId].tickets[_msgSender()].add(tuitionAmount);\n            _subjects[subjectId].tickets[_msgSender()] = ticket;\n        }\n\n        subject.members.add(_msgSender());\n        shares = shares.add(subject.shares[_msgSender()]);\n        subject.shares[_msgSender()] = shares;\n        _joineds[_msgSender()].add(subjectId);\n\n        emit JoinSubject(subject.ticketToken, subject.members.length(), subject.teachers.length());\n    }\n\n    function exitSubject(bytes32 subjectId) public payable isBlackList {\n        require(_subjectIds.contains(subjectId), \"NOT_EXISTS\");\n\n        uint256 amount;\n        Subject storage subject = _subjects[subjectId];\n        require(subject.members.contains(_msgSender()), \"NOT_JOIN\");\n\n        if (subject.uintTuitionAmount > 0) {\n            amount = subject.shares[_msgSender()].mul(subject.uintTuitionAmount);\n\n            require(_transfer(\n                subject.ticketToken, _msgSender(), address(this), amount.mul(10000)\n            ), \"INVALID_TICKET\");\n\n            require(_transfer(subject.tuitionToken, address(this), _msgSender(), amount));\n        }\n\n        subject.members.remove(_msgSender());\n        _joineds[_msgSender()].remove(subjectId);\n\n        subject.joinShares = subject.joinShares.sub(subject.shares[_msgSender()]);\n        delete subject.shares[_msgSender()];\n\n        emit ExitSubject(subject.ticketToken, amount, subject.members.length());\n    }\n\n    function uploadCourseware(\n        bytes32 subjectId, string memory descriptionURI, bytes32[] memory freeCoursewareURIs,\n        bytes32[] memory otherCoursewareURIs, bool isFreeWhenEnd\n    ) public isBlackList {\n        require(_subjectIds.contains(subjectId), \"NOT_EXISTS\");\n        \n        if (_teaching[_msgSender()].contains(subjectId)) {\n            delete _coursewares[subjectId][_msgSender()].freeCoursewareURIs;\n            delete _coursewares[subjectId][_msgSender()].otherCoursewareURIs;\n        } else {\n            _teaching[_msgSender()].add(subjectId);\n            _subjects[subjectId].teachers.add(_msgSender());\n            _coursewares[subjectId][_msgSender()].descriptionURI = descriptionURI;\n        }\n\n        _coursewares[subjectId][_msgSender()].isFreeWhenEnd = isFreeWhenEnd;\n        _coursewares[subjectId][_msgSender()].freeCoursewareURIs = freeCoursewareURIs;\n        _coursewares[subjectId][_msgSender()].otherCoursewareURIs = otherCoursewareURIs;\n\n        uint256 coursewareURIs = freeCoursewareURIs.length + otherCoursewareURIs.length;\n\n        emit UploadCourseware(_subjects[subjectId].members.length(), coursewareURIs);\n    }\n\n    function voteTo(bytes32 subjectId, address teacher, uint256 ticket) public isBlackList {\n        require(_subjectIds.contains(subjectId), \"NOT_EXISTS\");\n\n        Subject storage subject = _subjects[subjectId];\n        require(subject.members.contains(_msgSender()), \"NOT_JOIN\");\n        require(subject.tickets[_msgSender()] > 0, \"TICKETS_OUT\");\n\n        uint256 amount = subject.tickets[_msgSender()];\n        \n        if (teacher == address(0) && ticket == 0) {\n            uint256 teachers = subject.teachers.length();\n            amount = amount.mul(10000).div(teachers);\n\n            for (uint256 index = 0; index < teachers; index++) {\n                teacher = subject.teachers.at(index);\n                _transfer(subject.tuitionToken, _msgSender(), teacher, amount);\n            }\n\n            _mintKnowToken(_msgSender(), subject.tickets[_msgSender()]);\n            subject.tickets[_msgSender()] = 0;\n\n            emit VoteTo(0, amount.div(10000).mul(teachers));\n        } else {\n            require(subject.teachers.contains(teacher), \"TEACHER_NOT_EXISTS\");\n            require(ticket > 0 && ticket <= amount, \"INVALID_TICKETS\");\n\n            _transfer(subject.tuitionToken, _msgSender(), teacher, ticket.mul(10000));\n\n            _mintKnowToken(_msgSender(), ticket);\n            subject.tickets[_msgSender()] = subject.tickets[_msgSender()] - amount;\n\n            emit VoteTo(subject.tickets[_msgSender()], ticket);\n        }\n    }\n\n    function swapReward(bytes32 subjectId, uint256 amount) public isBlackList {\n        require(_subjectIds.contains(subjectId), \"NOT_EXISTS\");\n\n        Subject storage subject = _subjects[subjectId];\n        require(subject.endTime > block.timestamp, \"NOT_END\");\n        require(subject.teachers.contains(_msgSender()), \"TEACHER_NOT_EXISTS\");\n        require(amount > 0, \"INVALID_AMOUNT\");\n\n        require(_transfer(\n            subject.ticketToken, _msgSender(), address(this), amount.mul(10000)\n        ), \"INVALID_TICKET\");\n\n        address receivePro = receiveFeeProxy.getImplementation();\n        (address to, uint256 rate) = IReceiver(receivePro).getReceiver();\n        uint256 fee = amount.mul(10000).div(rate);\n\n        _transfer(subject.tuitionToken, address(this), _msgSender(), amount.sub(fee));\n        _transfer(subject.tuitionToken, address(this), to, fee);\n        _mintKnowToken(_msgSender(), amount);\n\n        emit SwapReward(amount.sub(fee), fee, subject.tuitionToken);\n    }\n}",
  "sourcePath": "/Users/cea/Projects/myself/knowlage-dapp/contracts/know-template/SubjectTemplate.sol",
  "compiler": {
    "name": "solc",
    "version": "0.8.16+commit.07a7930e.Emscripten.clang"
  },
  "schemaVersion": "3.4.9",
  "updatedAt": "2022-12-15T08:49:32.506Z",
  "networkType": "ethereum",
  "devdoc": {
    "details": "Version: v1.0.1",
    "kind": "dev",
    "methods": {
      "getRoleAdmin(bytes32)": {
        "details": "Returns the admin role that controls `role`. See {grantRole} and {revokeRole}. To change a role's admin, use {_setRoleAdmin}."
      },
      "grantRole(bytes32,address)": {
        "details": "Grants `role` to `account`. If `account` had not been already granted `role`, emits a {RoleGranted} event. Requirements: - the caller must have ``role``'s admin role. May emit a {RoleGranted} event."
      },
      "hasRole(bytes32,address)": {
        "details": "Returns `true` if `account` has been granted `role`."
      },
      "paused()": {
        "details": "Returns true if the contract is paused, and false otherwise."
      },
      "renounceRole(bytes32,address)": {
        "details": "Revokes `role` from the calling account. Roles are often managed via {grantRole} and {revokeRole}: this function's purpose is to provide a mechanism for accounts to lose their privileges if they are compromised (such as when a trusted device is misplaced). If the calling account had been revoked `role`, emits a {RoleRevoked} event. Requirements: - the caller must be `account`. May emit a {RoleRevoked} event."
      },
      "revokeRole(bytes32,address)": {
        "details": "Revokes `role` from `account`. If `account` had been granted `role`, emits a {RoleRevoked} event. Requirements: - the caller must have ``role``'s admin role. May emit a {RoleRevoked} event."
      },
      "supportsInterface(bytes4)": {
        "details": "See {IERC165-supportsInterface}."
      }
    },
    "title": "Major Factory Contract",
    "version": 1
  },
  "userdoc": {
    "kind": "user",
    "methods": {
      "ADMIN_ROLE()": {
        "notice": "The role of access control - (admin role) "
      },
      "LASTEST_VERSION()": {
        "notice": "Version of contract "
      },
      "blackListProxy()": {
        "notice": "Address of black list proxy contract - For subject black list "
      },
      "receiveFeeProxy()": {
        "notice": "Address of fee receiver proxy contract - For subject transfer fee "
      },
      "ticketERC20Template()": {
        "notice": "Address of ticket lp token contract - For subject transfer ticket token "
      },
      "tokenProxy()": {
        "notice": "Address of token proxy contract - For subject mint token "
      },
      "transferProxy()": {
        "notice": "Address of transfer proxy contract - For subject transfer token "
      }
    },
    "notice": "HorseRace is a NFT horse racing metaverse based on pylogon....Website: https://horse-racing.io/Docs: https://horse-racing.gitbook.io/horse-racing-docs/ ",
    "version": 1
  }
}