{
  "contractName": "TechOrganization",
  "abi": [
    {
      "inputs": [],
      "stateMutability": "nonpayable",
      "type": "constructor"
    },
    {
      "anonymous": false,
      "inputs": [
        {
          "indexed": false,
          "internalType": "uint256",
          "name": "totalApply",
          "type": "uint256"
        },
        {
          "indexed": false,
          "internalType": "uint256",
          "name": "totalPass",
          "type": "uint256"
        }
      ],
      "name": "ApplyOrganization",
      "type": "event"
    },
    {
      "anonymous": false,
      "inputs": [
        {
          "indexed": true,
          "internalType": "bytes32",
          "name": "role",
          "type": "bytes32"
        },
        {
          "indexed": true,
          "internalType": "bytes32",
          "name": "previousAdminRole",
          "type": "bytes32"
        },
        {
          "indexed": true,
          "internalType": "bytes32",
          "name": "newAdminRole",
          "type": "bytes32"
        }
      ],
      "name": "RoleAdminChanged",
      "type": "event"
    },
    {
      "anonymous": false,
      "inputs": [
        {
          "indexed": true,
          "internalType": "bytes32",
          "name": "role",
          "type": "bytes32"
        },
        {
          "indexed": true,
          "internalType": "address",
          "name": "account",
          "type": "address"
        },
        {
          "indexed": true,
          "internalType": "address",
          "name": "sender",
          "type": "address"
        }
      ],
      "name": "RoleGranted",
      "type": "event"
    },
    {
      "anonymous": false,
      "inputs": [
        {
          "indexed": true,
          "internalType": "bytes32",
          "name": "role",
          "type": "bytes32"
        },
        {
          "indexed": true,
          "internalType": "address",
          "name": "account",
          "type": "address"
        },
        {
          "indexed": true,
          "internalType": "address",
          "name": "sender",
          "type": "address"
        }
      ],
      "name": "RoleRevoked",
      "type": "event"
    },
    {
      "inputs": [],
      "name": "DEFAULT_ADMIN_ROLE",
      "outputs": [
        {
          "internalType": "bytes32",
          "name": "",
          "type": "bytes32"
        }
      ],
      "stateMutability": "view",
      "type": "function"
    },
    {
      "inputs": [],
      "name": "LASTEST_VERSION",
      "outputs": [
        {
          "internalType": "string",
          "name": "",
          "type": "string"
        }
      ],
      "stateMutability": "view",
      "type": "function"
    },
    {
      "inputs": [
        {
          "internalType": "bytes32",
          "name": "role",
          "type": "bytes32"
        }
      ],
      "name": "getRoleAdmin",
      "outputs": [
        {
          "internalType": "bytes32",
          "name": "",
          "type": "bytes32"
        }
      ],
      "stateMutability": "view",
      "type": "function"
    },
    {
      "inputs": [
        {
          "internalType": "bytes32",
          "name": "role",
          "type": "bytes32"
        },
        {
          "internalType": "address",
          "name": "account",
          "type": "address"
        }
      ],
      "name": "grantRole",
      "outputs": [],
      "stateMutability": "nonpayable",
      "type": "function"
    },
    {
      "inputs": [
        {
          "internalType": "bytes32",
          "name": "role",
          "type": "bytes32"
        },
        {
          "internalType": "address",
          "name": "account",
          "type": "address"
        }
      ],
      "name": "hasRole",
      "outputs": [
        {
          "internalType": "bool",
          "name": "",
          "type": "bool"
        }
      ],
      "stateMutability": "view",
      "type": "function"
    },
    {
      "inputs": [
        {
          "internalType": "bytes32",
          "name": "role",
          "type": "bytes32"
        },
        {
          "internalType": "address",
          "name": "account",
          "type": "address"
        }
      ],
      "name": "renounceRole",
      "outputs": [],
      "stateMutability": "nonpayable",
      "type": "function"
    },
    {
      "inputs": [
        {
          "internalType": "bytes32",
          "name": "role",
          "type": "bytes32"
        },
        {
          "internalType": "address",
          "name": "account",
          "type": "address"
        }
      ],
      "name": "revokeRole",
      "outputs": [],
      "stateMutability": "nonpayable",
      "type": "function"
    },
    {
      "inputs": [
        {
          "internalType": "bytes4",
          "name": "interfaceId",
          "type": "bytes4"
        }
      ],
      "name": "supportsInterface",
      "outputs": [
        {
          "internalType": "bool",
          "name": "",
          "type": "bool"
        }
      ],
      "stateMutability": "view",
      "type": "function"
    },
    {
      "inputs": [
        {
          "internalType": "string",
          "name": "infomationURI",
          "type": "string"
        }
      ],
      "name": "applyOrganization",
      "outputs": [],
      "stateMutability": "nonpayable",
      "type": "function"
    },
    {
      "inputs": [
        {
          "internalType": "address",
          "name": "organization",
          "type": "address"
        },
        {
          "internalType": "bool",
          "name": "isPass",
          "type": "bool"
        }
      ],
      "name": "verifyApply",
      "outputs": [],
      "stateMutability": "nonpayable",
      "type": "function"
    }
  ],
  "bytecode": "0x608060405234801561001057600080fd5b50610d46806100206000396000f3fe608060405234801561001057600080fd5b506004361061009e5760003560e01c806336568abe1161006657806336568abe1461013757806341e0c7d41461014a57806391d148541461017c578063a217fddf1461018f578063d547741f1461019757600080fd5b806301ffc9a7146100a35780631fb072ad146100cb578063248a9ca3146100e0578063252aa054146101115780632f2ff15d14610124575b600080fd5b6100b66100b13660046108d0565b6101aa565b60405190151581526020015b60405180910390f35b6100de6100d9366004610916565b6101e1565b005b6101036100ee366004610952565b60009081526020819052604090206001015490565b6040519081526020016100c2565b6100de61011f366004610981565b61024d565b6100de610132366004610a32565b61034b565b6100de610145366004610a32565b610370565b61016f6040518060400160405280600681526020016576312e302e3160d01b81525081565b6040516100c29190610a82565b6100b661018a366004610a32565b6103ea565b610103600081565b6100de6101a5366004610a32565b610413565b60006001600160e01b03198216637965db0b60e01b14806101db57506301ffc9a760e01b6001600160e01b03198316145b92915050565b6101ec600383610438565b1561022a5760405162461bcd60e51b81526020600482015260096024820152681393d517d193d5539160ba1b60448201526064015b60405180910390fd5b61023560038361045d565b50801561024957610247600583610472565b505b5050565b610258600333610438565b61028e5760405162461bcd60e51b81526020600482015260076024820152661054141316515160ca1b6044820152606401610221565b610299600533610438565b6102d55760405162461bcd60e51b815260206004820152600d60248201526c105555121153951250d0551151609a1b6044820152606401610221565b6102e0600333610472565b503360009081526001602052604090206102fa8282610b3d565b507f113ac73c4b8d72095669fea6acb2b8936417cd59e74aada2561eb85655c17cb76103266003610487565b6103306005610487565b6040805192835260208301919091520160405180910390a150565b60008281526020819052604090206001015461036681610491565b610247838361049e565b6001600160a01b03811633146103e05760405162461bcd60e51b815260206004820152602f60248201527f416363657373436f6e74726f6c3a2063616e206f6e6c792072656e6f756e636560448201526e103937b632b9903337b91039b2b63360891b6064820152608401610221565b6102498282610522565b6000918252602082815260408084206001600160a01b0393909316845291905290205460ff1690565b60008281526020819052604090206001015461042e81610491565b6102478383610522565b6001600160a01b038116600090815260018301602052604081205415155b9392505050565b6000610456836001600160a01b038416610587565b6000610456836001600160a01b03841661067a565b60006101db825490565b61049b81336106c9565b50565b6104a882826103ea565b610249576000828152602081815260408083206001600160a01b03851684529091529020805460ff191660011790556104de3390565b6001600160a01b0316816001600160a01b0316837f2f8788117e7eff1d82e926ec794901d17c78024a50270940304540a733656f0d60405160405180910390a45050565b61052c82826103ea565b15610249576000828152602081815260408083206001600160a01b0385168085529252808320805460ff1916905551339285917ff6391f5c32d9c69d2a47ea670b442974b53935d1edc7fd64eb21e047a839171b9190a45050565b600081815260018301602052604081205480156106705760006105ab600183610c13565b85549091506000906105bf90600190610c13565b90508181146106245760008660000182815481106105df576105df610c26565b906000526020600020015490508087600001848154811061060257610602610c26565b6000918252602080832090910192909255918252600188019052604090208390555b855486908061063557610635610c3c565b6001900381819060005260206000200160009055905585600101600086815260200190815260200160002060009055600193505050506101db565b60009150506101db565b60008181526001830160205260408120546106c1575081546001818101845560008481526020808220909301849055845484825282860190935260409020919091556101db565b5060006101db565b6106d382826103ea565b610249576106e081610722565b6106eb836020610734565b6040516020016106fc929190610c52565b60408051601f198184030181529082905262461bcd60e51b825261022191600401610a82565b60606101db6001600160a01b03831660145b60606000610743836002610cc7565b61074e906002610ce6565b67ffffffffffffffff8111156107665761076661096b565b6040519080825280601f01601f191660200182016040528015610790576020820181803683370190505b509050600360fc1b816000815181106107ab576107ab610c26565b60200101906001600160f81b031916908160001a905350600f60fb1b816001815181106107da576107da610c26565b60200101906001600160f81b031916908160001a90535060006107fe846002610cc7565b610809906001610ce6565b90505b6001811115610881576f181899199a1a9b1b9c1cb0b131b232b360811b85600f166010811061083d5761083d610c26565b1a60f81b82828151811061085357610853610c26565b60200101906001600160f81b031916908160001a90535060049490941c9361087a81610cf9565b905061080c565b5083156104565760405162461bcd60e51b815260206004820181905260248201527f537472696e67733a20686578206c656e67746820696e73756666696369656e746044820152606401610221565b6000602082840312156108e257600080fd5b81356001600160e01b03198116811461045657600080fd5b80356001600160a01b038116811461091157600080fd5b919050565b6000806040838503121561092957600080fd5b610932836108fa565b91506020830135801515811461094757600080fd5b809150509250929050565b60006020828403121561096457600080fd5b5035919050565b634e487b7160e01b600052604160045260246000fd5b60006020828403121561099357600080fd5b813567ffffffffffffffff808211156109ab57600080fd5b818401915084601f8301126109bf57600080fd5b8135818111156109d1576109d161096b565b604051601f8201601f19908116603f011681019083821181831017156109f9576109f961096b565b81604052828152876020848701011115610a1257600080fd5b826020860160208301376000928101602001929092525095945050505050565b60008060408385031215610a4557600080fd5b82359150610a55602084016108fa565b90509250929050565b60005b83811015610a79578181015183820152602001610a61565b50506000910152565b6020815260008251806020840152610aa1816040850160208701610a5e565b601f01601f19169190910160400192915050565b600181811c90821680610ac957607f821691505b602082108103610ae957634e487b7160e01b600052602260045260246000fd5b50919050565b601f82111561024757600081815260208120601f850160051c81016020861015610b165750805b601f850160051c820191505b81811015610b3557828155600101610b22565b505050505050565b815167ffffffffffffffff811115610b5757610b5761096b565b610b6b81610b658454610ab5565b84610aef565b602080601f831160018114610ba05760008415610b885750858301515b600019600386901b1c1916600185901b178555610b35565b600085815260208120601f198616915b82811015610bcf57888601518255948401946001909101908401610bb0565b5085821015610bed5787850151600019600388901b60f8161c191681555b5050505050600190811b01905550565b634e487b7160e01b600052601160045260246000fd5b818103818111156101db576101db610bfd565b634e487b7160e01b600052603260045260246000fd5b634e487b7160e01b600052603160045260246000fd5b7f416363657373436f6e74726f6c3a206163636f756e7420000000000000000000815260008351610c8a816017850160208801610a5e565b7001034b99036b4b9b9b4b733903937b6329607d1b6017918401918201528351610cbb816028840160208801610a5e565b01602801949350505050565b6000816000190483118215151615610ce157610ce1610bfd565b500290565b808201808211156101db576101db610bfd565b600081610d0857610d08610bfd565b50600019019056fea2646970667358221220b3740aba70c254ac5086558e5cb3b2dbc0d2918998365c35fa1d29b87fe8910264736f6c63430008100033",
  "immutableReferences": {},
  "source": "// SPDX-License-Identifier: SimPL-2.0\n\npragma solidity ^0.8.0;\n\nimport \"@openzeppelin/contracts/access/AccessControl.sol\";\nimport \"@openzeppelin/contracts/utils/structs/EnumerableSet.sol\";\n\ncontract TechOrganization is AccessControl {\n    using EnumerableSet for EnumerableSet.AddressSet;\n\n    /** @notice Version of contract */\n    string constant public LASTEST_VERSION = \"v1.0.1\";\n\n    enum OrgStatus { APPLY, PASS, REJECT }\n\n    mapping (address => string) private _infomationURIs;\n    // mapping (address => uint256) private _identityStatus;\n    mapping (address => mapping (address => bool)) private _authorizeUsers;\n\n    EnumerableSet.AddressSet private _applyList;\n    EnumerableSet.AddressSet private _passList;\n\n    event ApplyOrganization(uint256 totalApply, uint256 totalPass);\n\n    constructor() {}\n\n    function applyOrganization(string memory infomationURI) public {\n        require(_applyList.contains(msg.sender), \"APPLYED\");\n        require(_passList.contains(msg.sender), \"AUTHENTICATED\");\n\n        _applyList.add(msg.sender);\n        _infomationURIs[msg.sender] = infomationURI;\n\n        emit ApplyOrganization(_applyList.length(), _passList.length());\n    }\n\n    function verifyApply(address organization, bool isPass) public {\n        require(!_applyList.contains(organization), \"NOT_FOUND\");\n\n        _applyList.remove(organization);\n        if (isPass) _passList.add(organization);\n\n        \n    }\n}",
  "sourcePath": "/Users/cea/Projects/myself/knowlage-dapp/contracts/know-core/TechOrganization.sol",
  "compiler": {
    "name": "solc",
    "version": "0.8.16+commit.07a7930e.Emscripten.clang"
  },
  "schemaVersion": "3.4.9",
  "updatedAt": "2022-12-15T08:49:28.473Z",
  "devdoc": {
    "kind": "dev",
    "methods": {
      "getRoleAdmin(bytes32)": {
        "details": "Returns the admin role that controls `role`. See {grantRole} and {revokeRole}. To change a role's admin, use {_setRoleAdmin}."
      },
      "grantRole(bytes32,address)": {
        "details": "Grants `role` to `account`. If `account` had not been already granted `role`, emits a {RoleGranted} event. Requirements: - the caller must have ``role``'s admin role. May emit a {RoleGranted} event."
      },
      "hasRole(bytes32,address)": {
        "details": "Returns `true` if `account` has been granted `role`."
      },
      "renounceRole(bytes32,address)": {
        "details": "Revokes `role` from the calling account. Roles are often managed via {grantRole} and {revokeRole}: this function's purpose is to provide a mechanism for accounts to lose their privileges if they are compromised (such as when a trusted device is misplaced). If the calling account had been revoked `role`, emits a {RoleRevoked} event. Requirements: - the caller must be `account`. May emit a {RoleRevoked} event."
      },
      "revokeRole(bytes32,address)": {
        "details": "Revokes `role` from `account`. If `account` had been granted `role`, emits a {RoleRevoked} event. Requirements: - the caller must have ``role``'s admin role. May emit a {RoleRevoked} event."
      },
      "supportsInterface(bytes4)": {
        "details": "See {IERC165-supportsInterface}."
      }
    },
    "version": 1
  },
  "userdoc": {
    "kind": "user",
    "methods": {
      "LASTEST_VERSION()": {
        "notice": "Version of contract "
      }
    },
    "version": 1
  }
}