{
  "contractName": "TestSubjectTemplate",
  "abi": [
    {
      "inputs": [
        {
          "internalType": "address[5]",
          "name": "proxys",
          "type": "address[5]"
        },
        {
          "internalType": "string",
          "name": "_subjectURI",
          "type": "string"
        }
      ],
      "stateMutability": "nonpayable",
      "type": "constructor"
    },
    {
      "anonymous": false,
      "inputs": [
        {
          "indexed": false,
          "internalType": "bytes32",
          "name": "subjectId",
          "type": "bytes32"
        },
        {
          "indexed": false,
          "internalType": "address",
          "name": "tuitionToken",
          "type": "address"
        },
        {
          "indexed": false,
          "internalType": "address",
          "name": "ticketToken",
          "type": "address"
        }
      ],
      "name": "AskNewSubject",
      "type": "event"
    },
    {
      "anonymous": false,
      "inputs": [
        {
          "indexed": false,
          "internalType": "address",
          "name": "ticketToken",
          "type": "address"
        },
        {
          "indexed": false,
          "internalType": "uint256",
          "name": "amount",
          "type": "uint256"
        },
        {
          "indexed": false,
          "internalType": "uint256",
          "name": "members",
          "type": "uint256"
        }
      ],
      "name": "ExitSubject",
      "type": "event"
    },
    {
      "anonymous": false,
      "inputs": [
        {
          "indexed": false,
          "internalType": "address",
          "name": "ticketToken",
          "type": "address"
        },
        {
          "indexed": false,
          "internalType": "uint256",
          "name": "members",
          "type": "uint256"
        },
        {
          "indexed": false,
          "internalType": "uint256",
          "name": "teachers",
          "type": "uint256"
        }
      ],
      "name": "JoinSubject",
      "type": "event"
    },
    {
      "anonymous": false,
      "inputs": [
        {
          "indexed": false,
          "internalType": "address",
          "name": "account",
          "type": "address"
        }
      ],
      "name": "Paused",
      "type": "event"
    },
    {
      "anonymous": false,
      "inputs": [
        {
          "indexed": true,
          "internalType": "bytes32",
          "name": "role",
          "type": "bytes32"
        },
        {
          "indexed": true,
          "internalType": "bytes32",
          "name": "previousAdminRole",
          "type": "bytes32"
        },
        {
          "indexed": true,
          "internalType": "bytes32",
          "name": "newAdminRole",
          "type": "bytes32"
        }
      ],
      "name": "RoleAdminChanged",
      "type": "event"
    },
    {
      "anonymous": false,
      "inputs": [
        {
          "indexed": true,
          "internalType": "bytes32",
          "name": "role",
          "type": "bytes32"
        },
        {
          "indexed": true,
          "internalType": "address",
          "name": "account",
          "type": "address"
        },
        {
          "indexed": true,
          "internalType": "address",
          "name": "sender",
          "type": "address"
        }
      ],
      "name": "RoleGranted",
      "type": "event"
    },
    {
      "anonymous": false,
      "inputs": [
        {
          "indexed": true,
          "internalType": "bytes32",
          "name": "role",
          "type": "bytes32"
        },
        {
          "indexed": true,
          "internalType": "address",
          "name": "account",
          "type": "address"
        },
        {
          "indexed": true,
          "internalType": "address",
          "name": "sender",
          "type": "address"
        }
      ],
      "name": "RoleRevoked",
      "type": "event"
    },
    {
      "anonymous": false,
      "inputs": [
        {
          "indexed": false,
          "internalType": "uint256",
          "name": "amount",
          "type": "uint256"
        },
        {
          "indexed": false,
          "internalType": "uint256",
          "name": "fee",
          "type": "uint256"
        },
        {
          "indexed": false,
          "internalType": "address",
          "name": "tuitionToken",
          "type": "address"
        }
      ],
      "name": "SwapReward",
      "type": "event"
    },
    {
      "anonymous": false,
      "inputs": [
        {
          "indexed": false,
          "internalType": "address",
          "name": "account",
          "type": "address"
        }
      ],
      "name": "Unpaused",
      "type": "event"
    },
    {
      "anonymous": false,
      "inputs": [
        {
          "indexed": false,
          "internalType": "uint256",
          "name": "members",
          "type": "uint256"
        },
        {
          "indexed": false,
          "internalType": "uint256",
          "name": "coursewareURIs",
          "type": "uint256"
        }
      ],
      "name": "UploadCourseware",
      "type": "event"
    },
    {
      "anonymous": false,
      "inputs": [
        {
          "indexed": false,
          "internalType": "uint256",
          "name": "leftTickets",
          "type": "uint256"
        },
        {
          "indexed": false,
          "internalType": "uint256",
          "name": "knowAmount",
          "type": "uint256"
        }
      ],
      "name": "VoteTo",
      "type": "event"
    },
    {
      "inputs": [],
      "name": "ADMIN_ROLE",
      "outputs": [
        {
          "internalType": "bytes32",
          "name": "",
          "type": "bytes32"
        }
      ],
      "stateMutability": "view",
      "type": "function"
    },
    {
      "inputs": [],
      "name": "DEFAULT_ADMIN_ROLE",
      "outputs": [
        {
          "internalType": "bytes32",
          "name": "",
          "type": "bytes32"
        }
      ],
      "stateMutability": "view",
      "type": "function"
    },
    {
      "inputs": [],
      "name": "LASTEST_VERSION",
      "outputs": [
        {
          "internalType": "string",
          "name": "",
          "type": "string"
        }
      ],
      "stateMutability": "view",
      "type": "function"
    },
    {
      "inputs": [],
      "name": "blackListProxy",
      "outputs": [
        {
          "internalType": "contract BalckListProxy",
          "name": "",
          "type": "address"
        }
      ],
      "stateMutability": "view",
      "type": "function"
    },
    {
      "inputs": [
        {
          "internalType": "bytes32",
          "name": "role",
          "type": "bytes32"
        }
      ],
      "name": "getRoleAdmin",
      "outputs": [
        {
          "internalType": "bytes32",
          "name": "",
          "type": "bytes32"
        }
      ],
      "stateMutability": "view",
      "type": "function"
    },
    {
      "inputs": [
        {
          "internalType": "bytes32",
          "name": "role",
          "type": "bytes32"
        },
        {
          "internalType": "address",
          "name": "account",
          "type": "address"
        }
      ],
      "name": "grantRole",
      "outputs": [],
      "stateMutability": "nonpayable",
      "type": "function"
    },
    {
      "inputs": [
        {
          "internalType": "bytes32",
          "name": "role",
          "type": "bytes32"
        },
        {
          "internalType": "address",
          "name": "account",
          "type": "address"
        }
      ],
      "name": "hasRole",
      "outputs": [
        {
          "internalType": "bool",
          "name": "",
          "type": "bool"
        }
      ],
      "stateMutability": "view",
      "type": "function"
    },
    {
      "inputs": [],
      "name": "paused",
      "outputs": [
        {
          "internalType": "bool",
          "name": "",
          "type": "bool"
        }
      ],
      "stateMutability": "view",
      "type": "function"
    },
    {
      "inputs": [],
      "name": "receiveFeeProxy",
      "outputs": [
        {
          "internalType": "contract ReceiveFeeProxy",
          "name": "",
          "type": "address"
        }
      ],
      "stateMutability": "view",
      "type": "function"
    },
    {
      "inputs": [
        {
          "internalType": "bytes32",
          "name": "role",
          "type": "bytes32"
        },
        {
          "internalType": "address",
          "name": "account",
          "type": "address"
        }
      ],
      "name": "renounceRole",
      "outputs": [],
      "stateMutability": "nonpayable",
      "type": "function"
    },
    {
      "inputs": [
        {
          "internalType": "bytes32",
          "name": "role",
          "type": "bytes32"
        },
        {
          "internalType": "address",
          "name": "account",
          "type": "address"
        }
      ],
      "name": "revokeRole",
      "outputs": [],
      "stateMutability": "nonpayable",
      "type": "function"
    },
    {
      "inputs": [],
      "name": "subjectURI",
      "outputs": [
        {
          "internalType": "string",
          "name": "",
          "type": "string"
        }
      ],
      "stateMutability": "view",
      "type": "function"
    },
    {
      "inputs": [
        {
          "internalType": "bytes4",
          "name": "interfaceId",
          "type": "bytes4"
        }
      ],
      "name": "supportsInterface",
      "outputs": [
        {
          "internalType": "bool",
          "name": "",
          "type": "bool"
        }
      ],
      "stateMutability": "view",
      "type": "function"
    },
    {
      "inputs": [],
      "name": "ticketERC20Template",
      "outputs": [
        {
          "internalType": "address",
          "name": "",
          "type": "address"
        }
      ],
      "stateMutability": "view",
      "type": "function"
    },
    {
      "inputs": [],
      "name": "tokenProxy",
      "outputs": [
        {
          "internalType": "contract TokenProxy",
          "name": "",
          "type": "address"
        }
      ],
      "stateMutability": "view",
      "type": "function"
    },
    {
      "inputs": [],
      "name": "transferProxy",
      "outputs": [
        {
          "internalType": "contract TransferProxy",
          "name": "",
          "type": "address"
        }
      ],
      "stateMutability": "view",
      "type": "function"
    },
    {
      "inputs": [
        {
          "internalType": "bytes32",
          "name": "subjectId",
          "type": "bytes32"
        }
      ],
      "name": "getSubjectDetail",
      "outputs": [
        {
          "internalType": "string",
          "name": "uri",
          "type": "string"
        },
        {
          "internalType": "address[3]",
          "name": "addrs",
          "type": "address[3]"
        },
        {
          "internalType": "uint256[6]",
          "name": "settings",
          "type": "uint256[6]"
        },
        {
          "internalType": "address[]",
          "name": "members",
          "type": "address[]"
        },
        {
          "internalType": "address[]",
          "name": "teachers",
          "type": "address[]"
        }
      ],
      "stateMutability": "view",
      "type": "function"
    },
    {
      "inputs": [
        {
          "internalType": "bytes32",
          "name": "subjectId",
          "type": "bytes32"
        },
        {
          "internalType": "address",
          "name": "teacher",
          "type": "address"
        }
      ],
      "name": "getSubjectCourseware",
      "outputs": [
        {
          "internalType": "string",
          "name": "uri",
          "type": "string"
        },
        {
          "internalType": "bytes32[]",
          "name": "free",
          "type": "bytes32[]"
        },
        {
          "internalType": "bytes32[]",
          "name": "other",
          "type": "bytes32[]"
        }
      ],
      "stateMutability": "view",
      "type": "function"
    },
    {
      "inputs": [
        {
          "internalType": "bool",
          "name": "status",
          "type": "bool"
        }
      ],
      "name": "togglePause",
      "outputs": [],
      "stateMutability": "nonpayable",
      "type": "function"
    },
    {
      "inputs": [
        {
          "internalType": "address",
          "name": "tuitionToken",
          "type": "address"
        },
        {
          "internalType": "uint256[5]",
          "name": "parms",
          "type": "uint256[5]"
        },
        {
          "internalType": "string",
          "name": "descriptionURI",
          "type": "string"
        }
      ],
      "name": "askNewSubject",
      "outputs": [],
      "stateMutability": "payable",
      "type": "function"
    },
    {
      "inputs": [
        {
          "internalType": "bytes32",
          "name": "subjectId",
          "type": "bytes32"
        },
        {
          "internalType": "uint256",
          "name": "shares",
          "type": "uint256"
        }
      ],
      "name": "joinSubject",
      "outputs": [],
      "stateMutability": "payable",
      "type": "function"
    },
    {
      "inputs": [
        {
          "internalType": "bytes32",
          "name": "subjectId",
          "type": "bytes32"
        }
      ],
      "name": "exitSubject",
      "outputs": [],
      "stateMutability": "payable",
      "type": "function"
    },
    {
      "inputs": [
        {
          "internalType": "bytes32",
          "name": "subjectId",
          "type": "bytes32"
        },
        {
          "internalType": "string",
          "name": "descriptionURI",
          "type": "string"
        },
        {
          "internalType": "bytes32[]",
          "name": "freeCoursewareURIs",
          "type": "bytes32[]"
        },
        {
          "internalType": "bytes32[]",
          "name": "otherCoursewareURIs",
          "type": "bytes32[]"
        },
        {
          "internalType": "bool",
          "name": "isFreeWhenEnd",
          "type": "bool"
        }
      ],
      "name": "uploadCourseware",
      "outputs": [],
      "stateMutability": "nonpayable",
      "type": "function"
    },
    {
      "inputs": [
        {
          "internalType": "bytes32",
          "name": "subjectId",
          "type": "bytes32"
        },
        {
          "internalType": "address",
          "name": "teacher",
          "type": "address"
        },
        {
          "internalType": "uint256",
          "name": "ticket",
          "type": "uint256"
        }
      ],
      "name": "voteTo",
      "outputs": [],
      "stateMutability": "nonpayable",
      "type": "function"
    },
    {
      "inputs": [
        {
          "internalType": "bytes32",
          "name": "subjectId",
          "type": "bytes32"
        },
        {
          "internalType": "uint256",
          "name": "amount",
          "type": "uint256"
        }
      ],
      "name": "swapReward",
      "outputs": [],
      "stateMutability": "nonpayable",
      "type": "function"
    }
  ],
  "bytecode": "0x60806040523480156200001157600080fd5b5060405162003a9a38038062003a9a8339810160408190526200003491620002ac565b6001805460ff191690556200006a7fa49807205ce4d355092ef5a8a18f56e8913cf4a201fbe287825b095693c21775336200010a565b620000776000336200010a565b6006620000858282620003e3565b50508051600180546001600160a01b0392831661010002610100600160a81b03199091161790556020820151600280546001600160a01b031990811692841692909217905560408301516003805483169184169190911790556060830151600480548316918416919091179055608090920151600580549093169116179055620004af565b6000828152602081815260408083206001600160a01b038516845290915290205460ff16620001a7576000828152602081815260408083206001600160a01b03851684529091529020805460ff19166001179055620001663390565b6001600160a01b0316816001600160a01b0316837f2f8788117e7eff1d82e926ec794901d17c78024a50270940304540a733656f0d60405160405180910390a45b5050565b634e487b7160e01b600052604160045260246000fd5b60405160a081016001600160401b0381118282101715620001e657620001e6620001ab565b60405290565b604051601f8201601f191681016001600160401b0381118282101715620002175762000217620001ab565b604052919050565b600082601f8301126200023157600080fd5b81516001600160401b038111156200024d576200024d620001ab565b602062000263601f8301601f19168201620001ec565b82815285828487010111156200027857600080fd5b60005b83811015620002985785810183015182820184015282016200027b565b506000928101909101919091529392505050565b60008060c08385031215620002c057600080fd5b83601f840112620002d057600080fd5b620002da620001c1565b8060a0850186811115620002ed57600080fd5b855b81811015620003205780516001600160a01b0381168114620003115760008081fd5b845260209384019301620002ef565b505190935090506001600160401b038111156200033c57600080fd5b6200034a858286016200021f565b9150509250929050565b600181811c908216806200036957607f821691505b6020821081036200038a57634e487b7160e01b600052602260045260246000fd5b50919050565b601f821115620003de57600081815260208120601f850160051c81016020861015620003b95750805b601f850160051c820191505b81811015620003da57828155600101620003c5565b5050505b505050565b81516001600160401b03811115620003ff57620003ff620001ab565b620004178162000410845462000354565b8462000390565b602080601f8311600181146200044f5760008415620004365750858301515b600019600386901b1c1916600185901b178555620003da565b600085815260208120601f198616915b8281101562000480578886015182559484019460019091019084016200045f565b50858210156200049f5787850151600019600388901b60f8161c191681555b5050505050600190811b01905550565b6135db80620004bf6000396000f3fe6080604052600436106101665760003560e01c806357d159c6116100d15780637f11d33f1161008a578063b03499b011610064578063b03499b01461045c578063be0742cb1461047c578063d547741f1461049c578063d7eb79f4146104bc57600080fd5b80637f11d33f1461040257806391d1485414610427578063a217fddf1461044757600080fd5b806357d159c6146103325780635c975abb146103525780636e667db31461036a578063747f02d01461038a57806375b238fc1461039d5780637b811680146103d157600080fd5b8063248a9ca311610123578063248a9ca31461024f5780632f2ff15d1461028d57806336568abe146102ad57806341e0c7d4146102cd578063423ab485146102ff5780634f7304701461031f57600080fd5b806301ffc9a71461016b578063105b2ba2146101a057806311c2e128146101d857806311d7aa8a146101ed57806319596cd51461020d578063225118ba1461022d575b600080fd5b34801561017757600080fd5b5061018b610186366004612ca1565b6104eb565b60405190151581526020015b60405180910390f35b3480156101ac57600080fd5b506005546101c0906001600160a01b031681565b6040516001600160a01b039091168152602001610197565b6101eb6101e6366004612ccb565b610522565b005b3480156101f957600080fd5b506004546101c0906001600160a01b031681565b34801561021957600080fd5b506003546101c0906001600160a01b031681565b34801561023957600080fd5b5061024261096f565b6040516101979190612d3d565b34801561025b57600080fd5b5061027f61026a366004612d50565b60009081526020819052604090206001015490565b604051908152602001610197565b34801561029957600080fd5b506101eb6102a8366004612d7e565b6109fd565b3480156102b957600080fd5b506101eb6102c8366004612d7e565b610a27565b3480156102d957600080fd5b506102426040518060400160405280600681526020016576312e302e3160d01b81525081565b34801561030b57600080fd5b506101eb61031a366004612dae565b610aa5565b6101eb61032d366004612ec6565b610ef1565b34801561033e57600080fd5b506101eb61034d366004612f6f565b61137f565b34801561035e57600080fd5b5060015460ff1661018b565b34801561037657600080fd5b506002546101c0906001600160a01b031681565b6101eb610398366004612d50565b6113bf565b3480156103a957600080fd5b5061027f7fa49807205ce4d355092ef5a8a18f56e8913cf4a201fbe287825b095693c2177581565b3480156103dd57600080fd5b506103f16103ec366004612d50565b6116b7565b604051610197959493929190612fd0565b34801561040e57600080fd5b506001546101c09061010090046001600160a01b031681565b34801561043357600080fd5b5061018b610442366004612d7e565b611969565b34801561045357600080fd5b5061027f600081565b34801561046857600080fd5b506101eb610477366004612ccb565b611992565b34801561048857600080fd5b506101eb6104973660046130f5565b611dae565b3480156104a857600080fd5b506101eb6104b7366004612d7e565b61209b565b3480156104c857600080fd5b506104dc6104d7366004612d7e565b6120c0565b604051610197939291906131cc565b60006001600160e01b03198216637965db0b60e01b148061051c57506301ffc9a760e01b6001600160e01b03198316145b92915050565b6003546040805163557887a160e11b815290516000926001600160a01b03169163aaf10f429160048083019260209291908290030181865afa15801561056c573d6000803e3d6000fd5b505050506040513d601f19601f82011682018060405250810190610590919061320f565b90506001600160a01b03811663b36d6919336040516001600160e01b031960e084901b1681526001600160a01b039091166004820152602401602060405180830381865afa1580156105e6573d6000803e3d6000fd5b505050506040513d601f19601f8201168201806040525081019061060a919061322c565b156106305760405162461bcd60e51b815260040161062790613249565b60405180910390fd5b60015460ff16156106535760405162461bcd60e51b81526004016106279061326d565b600082116106945760405162461bcd60e51b815260206004820152600e60248201526d494e56414c49445f53484152455360901b6044820152606401610627565b61069f60078461233d565b6106bb5760405162461bcd60e51b81526004016106279061328d565b6000838152600960205260409020600381015415806106e1575080600301548160040154105b6107165760405162461bcd60e51b8152600401610627906020808252600490820152631195531360e21b604082015260600190565b60058101541561088c576005810154600084610732578161073c565b61073c8286612358565b8354909150610757906001600160a01b0316335b3084612364565b6107945760405162461bcd60e51b815260206004820152600e60248201526d1514905394d1915497d19052531160921b6044820152606401610627565b60018301546001600160a01b0316156108305760018301546001600160a01b03168063a9059cbb336040516001600160e01b031960e084901b1681526001600160a01b039091166004820152602481018590526044016020604051808303816000875af1158015610809573d6000803e3d6000fd5b505050506040513d601f19601f8201168201806040525081019061082d919061322c565b50505b600483015461083f9086612446565b60048401556000868152600960209081526040808320338452600f0190915281205461086b9083612446565b6000888152600960209081526040808320338452600f019091529020555050505b610899600a820133612452565b50336000908152600e820160205260409020546108b7908490612446565b336000818152600e8401602052604081208390559194506108f8918691600b91905b6001600160a01b03168152602081019190915260400160002090612467565b5060018101547f69b95071146e8e4f0782a283e5409a82fe6577e70e17bbb38355383b021306fb906001600160a01b0316610935600a8401612473565b61094184600c01612473565b604080516001600160a01b03909416845260208401929092529082015260600160405180910390a150505050565b6006805461097c906132b1565b80601f01602080910402602001604051908101604052809291908181526020018280546109a8906132b1565b80156109f55780601f106109ca576101008083540402835291602001916109f5565b820191906000526020600020905b8154815290600101906020018083116109d857829003601f168201915b505050505081565b600082815260208190526040902060010154610a188161247d565b610a22838361248a565b505050565b6001600160a01b0381163314610a975760405162461bcd60e51b815260206004820152602f60248201527f416363657373436f6e74726f6c3a2063616e206f6e6c792072656e6f756e636560448201526e103937b632b9903337b91039b2b63360891b6064820152608401610627565b610aa1828261250e565b5050565b6003546040805163557887a160e11b815290516000926001600160a01b03169163aaf10f429160048083019260209291908290030181865afa158015610aef573d6000803e3d6000fd5b505050506040513d601f19601f82011682018060405250810190610b13919061320f565b90506001600160a01b03811663b36d6919336040516001600160e01b031960e084901b1681526001600160a01b039091166004820152602401602060405180830381865afa158015610b69573d6000803e3d6000fd5b505050506040513d601f19601f82011682018060405250810190610b8d919061322c565b15610baa5760405162461bcd60e51b815260040161062790613249565b60015460ff1615610bcd5760405162461bcd60e51b81526004016106279061326d565b610bd860078561233d565b610bf45760405162461bcd60e51b81526004016106279061328d565b6000848152600960205260409020610c11335b600a830190612573565b610c485760405162461bcd60e51b81526020600482015260086024820152672727aa2fa527a4a760c11b6044820152606401610627565b336000908152600f82016020526040902054610c945760405162461bcd60e51b815260206004820152600b60248201526a151250d2d15514d7d3d55560aa1b6044820152606401610627565b336000908152600f820160205260409020546001600160a01b038516158015610cbb575083155b15610db4576000610cce83600c01612473565b9050610ce681610ce084612710612358565b90612595565b915060005b81811015610d2d57610d00600c8501826125a1565b8454909750610d1a906001600160a01b0316338986612364565b5080610d2581613301565b915050610ceb565b50336000818152600f85016020526040902054610d4a91906125ad565b336000908152600f8401602052604081208190557f2facdae94aa92b3c39fb9c489bcfac242d193416fbbd614ce9bf4ed19a7f440a90610d9683610d9086612710612595565b90612358565b6040805192835260208301919091520160405180910390a150610ee9565b610dc1600c830186612573565b610e025760405162461bcd60e51b8152602060048201526012602482015271544541434845525f4e4f545f45584953545360701b6044820152606401610627565b600084118015610e125750808411155b610e505760405162461bcd60e51b815260206004820152600f60248201526e494e56414c49445f5449434b45545360881b6044820152606401610627565b8154610e72906001600160a01b03163387610e6d88612710612358565b612364565b50610e7d33856125ad565b336000908152600f83016020526040902054610e9a90829061331a565b336000908152600f840160209081526040918290208390558151928352820186905280517f2facdae94aa92b3c39fb9c489bcfac242d193416fbbd614ce9bf4ed19a7f440a9281900390910190a15b505050505050565b6003546040805163557887a160e11b815290516000926001600160a01b03169163aaf10f429160048083019260209291908290030181865afa158015610f3b573d6000803e3d6000fd5b505050506040513d601f19601f82011682018060405250810190610f5f919061320f565b90506001600160a01b03811663b36d6919336040516001600160e01b031960e084901b1681526001600160a01b039091166004820152602401602060405180830381865afa158015610fb5573d6000803e3d6000fd5b505050506040513d601f19601f82011682018060405250810190610fd9919061322c565b15610ff65760405162461bcd60e51b815260040161062790613249565b60015460ff16156110195760405162461bcd60e51b81526004016106279061326d565b608083015161105b5760405162461bcd60e51b815260206004820152600e60248201526d494e56414c49445f53484152455360901b6044820152606401610627565b60008483604051602001611070929190613343565b60408051808303601f19018152918152815160209283012060008181526009845282902080546001600160a01b03199081166001600160a01b038b161782556002820180543392168217905588516003830155608089015160048301559388015160058201559187015160068301556060870151600783015592506110fa91600a90910190612452565b5060808401516000828152600960209081526040808320338452600e01825290912091909155840151156112ef57608084015160009061113e576020850151611151565b6080850151602086015161115191612358565b905061115d8633610750565b61119a5760405162461bcd60e51b815260206004820152600e60248201526d1514905394d1915497d19052531160921b6044820152606401610627565b6005546111af906001600160a01b031661268f565b6000838152600960205260409081902060010180546001600160a01b0319166001600160a01b039390931692831790555163cd6dc68760e01b81523060048201526a52b7d2dcc80cd2e40000006024820152819063cd6dc68790604401600060405180830381600087803b15801561122657600080fd5b505af115801561123a573d6000803e3d6000fd5b50505050806001600160a01b031663a9059cbb6112543390565b61126085612710612358565b6040516001600160e01b031960e085901b1681526001600160a01b03909216600483015260248201526044016020604051808303816000875af11580156112ab573d6000803e3d6000fd5b505050506040513d601f19601f820116820180604052508101906112cf919061322c565b50506000828152600960209081526040808320338452600f019091529020555b6112fd81600a6000336108d9565b5061130c81600b6000336108d9565b50611318600782612467565b506000818152600960209081526040918290206001015482518481526001600160a01b038981169382019390935291168183015290517ff86dd263da3cbcb66b765236602805adf7b32c5486bb8be8bc6985402f170ca79181900360600190a15050505050565b7fa49807205ce4d355092ef5a8a18f56e8913cf4a201fbe287825b095693c217756113a98161247d565b81156113b757610aa1612729565b610aa161277d565b6003546040805163557887a160e11b815290516000926001600160a01b03169163aaf10f429160048083019260209291908290030181865afa158015611409573d6000803e3d6000fd5b505050506040513d601f19601f8201168201806040525081019061142d919061320f565b90506001600160a01b03811663b36d6919336040516001600160e01b031960e084901b1681526001600160a01b039091166004820152602401602060405180830381865afa158015611483573d6000803e3d6000fd5b505050506040513d601f19601f820116820180604052508101906114a7919061322c565b156114c45760405162461bcd60e51b815260040161062790613249565b60015460ff16156114e75760405162461bcd60e51b81526004016106279061326d565b6114f260078361233d565b61150e5760405162461bcd60e51b81526004016106279061328d565b600082815260096020526040812061152533610c07565b61155c5760405162461bcd60e51b81526020600482015260086024820152672727aa2fa527a4a760c11b6044820152606401610627565b60058101541561161b5761159b816005015482600e01600061157b3390565b6001600160a01b0316815260208101919091526040016000205490612358565b60018201549092506115be906001600160a01b03163330610e6d86612710612358565b6115fb5760405162461bcd60e51b815260206004820152600e60248201526d1253959053125117d51250d2d15560921b6044820152606401610627565b8054611612906001600160a01b0316303385612364565b61161b57600080fd5b611628600a8201336127b6565b50336000908152600b6020526040902061164290856127cb565b50336000908152600e820160205260409020546004820154611663916127d7565b6004820155336000908152600e8201602052604081205560018101547f1ed432da3a887c0ce4a2225ec6121096dfbddca6f79c7a58c5ab5b2f800ed2fa906001600160a01b031683610941600a8501612473565b60606116c1612be7565b6116c9612c05565b6060806009600087815260200190815260200160002060090180546116ed906132b1565b80601f0160208091040260200160405190810160405280929190818152602001828054611719906132b1565b80156117665780601f1061173b57610100808354040283529160200191611766565b820191906000526020600020905b81548152906001019060200180831161174957829003601f168201915b505050600089815260096020818152604080842080546001600160a01b039081168d52600182015481168d8501526002820154168c83015260038101548b5260048101548b8401526005810154918b0191909152600681015460608b0152600781015460808b0152600881015460a08b01528c8452919052939850926117f19250600a019050612473565b90508067ffffffffffffffff81111561180c5761180c612de6565b604051908082528060200260200182016040528015611835578160200160208202803683370190505b50925060005b8181101561189a57600088815260096020526040902061185e90600a01826125a1565b8482815181106118705761187061332d565b6001600160a01b03909216602092830291909101909101528061189281613301565b91505061183b565b5060008781526009602052604090206118b590600c01612473565b90508067ffffffffffffffff8111156118d0576118d0612de6565b6040519080825280602002602001820160405280156118f9578160200160208202803683370190505b50915060005b8181101561195e57600088815260096020526040902061192290600c01826125a1565b8382815181106119345761193461332d565b6001600160a01b03909216602092830291909101909101528061195681613301565b9150506118ff565b505091939590929450565b6000918252602082815260408084206001600160a01b0393909316845291905290205460ff1690565b6003546040805163557887a160e11b815290516000926001600160a01b03169163aaf10f429160048083019260209291908290030181865afa1580156119dc573d6000803e3d6000fd5b505050506040513d601f19601f82011682018060405250810190611a00919061320f565b90506001600160a01b03811663b36d6919336040516001600160e01b031960e084901b1681526001600160a01b039091166004820152602401602060405180830381865afa158015611a56573d6000803e3d6000fd5b505050506040513d601f19601f82011682018060405250810190611a7a919061322c565b15611a975760405162461bcd60e51b815260040161062790613249565b60015460ff1615611aba5760405162461bcd60e51b81526004016106279061326d565b611ac560078461233d565b611ae15760405162461bcd60e51b81526004016106279061328d565b600083815260096020526040902060068101544210611b2c5760405162461bcd60e51b81526020600482015260076024820152661393d517d1539160ca1b6044820152606401610627565b611b39600c820133612573565b611b7a5760405162461bcd60e51b8152602060048201526012602482015271544541434845525f4e4f545f45584953545360701b6044820152606401610627565b60008311611bbb5760405162461bcd60e51b815260206004820152600e60248201526d1253959053125117d05353d5539560921b6044820152606401610627565b6001810154611bdb906001600160a01b03163330610e6d87612710612358565b611c185760405162461bcd60e51b815260206004820152600e60248201526d1253959053125117d51250d2d15560921b6044820152606401610627565b6000600460009054906101000a90046001600160a01b03166001600160a01b031663aaf10f426040518163ffffffff1660e01b8152600401602060405180830381865afa158015611c6d573d6000803e3d6000fd5b505050506040513d601f19601f82011682018060405250810190611c91919061320f565b9050600080826001600160a01b03166398aca9226040518163ffffffff1660e01b81526004016040805180830381865afa158015611cd3573d6000803e3d6000fd5b505050506040513d601f19601f82011682018060405250810190611cf7919061337b565b90925090506000611d0e82610ce089612710612358565b8554909150611d2c906001600160a01b03163033610e6d8b866127d7565b508454611d44906001600160a01b0316308584612364565b50611d4f33886125ad565b7fd1512bc414025eba1e89821afbb4a0c7eb82feedddf362500cb6e0517ae71a35611d7a88836127d7565b865460408051928352602083018590526001600160a01b039091169082015260600160405180910390a15050505050505050565b6003546040805163557887a160e11b815290516000926001600160a01b03169163aaf10f429160048083019260209291908290030181865afa158015611df8573d6000803e3d6000fd5b505050506040513d601f19601f82011682018060405250810190611e1c919061320f565b90506001600160a01b03811663b36d6919336040516001600160e01b031960e084901b1681526001600160a01b039091166004820152602401602060405180830381865afa158015611e72573d6000803e3d6000fd5b505050506040513d601f19601f82011682018060405250810190611e96919061322c565b15611eb35760405162461bcd60e51b815260040161062790613249565b60015460ff1615611ed65760405162461bcd60e51b81526004016106279061326d565b611ee160078761233d565b611efd5760405162461bcd60e51b81526004016106279061328d565b336000908152600c60205260409020611f16908761233d565b15611f70576000868152600d602090815260408083203384529091528120611f4391600190910190612c23565b6000868152600d602090815260408083203384529091528120611f6b91600290910190612c23565b611fc0565b611f7e86600c6000336108d9565b50611f9a336000888152600960205260409020600c0190612452565b506000868152600d602090815260408083203384529091529020611fbe86826133ef565b505b6000868152600d60209081526040808320338452825290912060058101805460ff19168515151790558551611ffd92600190920191870190612c41565b506000868152600d602090815260408083203384528252909120845161202b92600290920191860190612c41565b5060008351855161203c91906134af565b60008881526009602052604090209091507f0ae69ab16381c95d20f2f4bde4d6a0484d4f18e6a3148d455f3444a0e6fe78dc9061207b90600a01612473565b60408051918252602082018490520160405180910390a150505050505050565b6000828152602081905260409020600101546120b68161247d565b610a22838361250e565b6000828152600d602090815260408083206001600160a01b03851684529091529020805460609182918291906120f5906132b1565b80601f0160208091040260200160405190810160405280929190818152602001828054612121906132b1565b801561216e5780601f106121435761010080835404028352916020019161216e565b820191906000526020600020905b81548152906001019060200180831161215157829003601f168201915b5050506000888152600d602090815260408083206001600160a01b038b168452825291829020600101805483518184028101840190945280845295985091949193509091508301828280156121e257602002820191906000526020600020905b8154815260200190600101908083116121ce575b50505060008881526009602052604090206006015492945050504210156122a6576000858152600d602090815260408083206001600160a01b038816845290915290206005015460ff16156122a1576000858152600d602090815260408083206001600160a01b03881684528252918290206002018054835181840281018401909452808452909183018282801561229957602002820191906000526020600020905b815481526020019060010190808311612285575b505050505090505b612336565b6122c1336000878152600960205260409020600a0190612573565b15612336576000858152600d602090815260408083206001600160a01b03881684528252918290206002018054835181840281018401909452808452909183018282801561232e57602002820191906000526020600020905b81548152602001906001019080831161231a575b505050505090505b9250925092565b600081815260018301602052604081205415155b9392505050565b600061235182846134c2565b60006001600160a01b0385166123b4576040516001600160a01b0385169083156108fc029084906000818181858888f193505050501580156123aa573d6000803e3d6000fd5b506001905061243e565b600254604051630aed65f560e11b81526001600160a01b0387811660048301528681166024830152858116604483015260648201859052909116906315dacbea906084016020604051808303816000875af1158015612417573d6000803e3d6000fd5b505050506040513d601f19601f8201168201806040525081019061243b919061322c565b90505b949350505050565b600061235182846134af565b6000612351836001600160a01b0384166127e3565b600061235183836127e3565b600061051c825490565b6124878133612832565b50565b6124948282611969565b610aa1576000828152602081815260408083206001600160a01b03851684529091529020805460ff191660011790556124ca3390565b6001600160a01b0316816001600160a01b0316837f2f8788117e7eff1d82e926ec794901d17c78024a50270940304540a733656f0d60405160405180910390a45050565b6125188282611969565b15610aa1576000828152602081815260408083206001600160a01b0385168085529252808320805460ff1916905551339285917ff6391f5c32d9c69d2a47ea670b442974b53935d1edc7fd64eb21e047a839171b9190a45050565b6001600160a01b03811660009081526001830160205260408120541515612351565b600061235182846134e1565b6000612351838361288b565b600060018054906101000a90046001600160a01b03166001600160a01b031663aaf10f426040518163ffffffff1660e01b8152600401602060405180830381865afa158015612600573d6000803e3d6000fd5b505050506040513d601f19601f82011682018060405250810190612624919061320f565b6040516308934a5f60e31b81526001600160a01b038581166004830152602482018590529192509082169063449a52f890604401600060405180830381600087803b15801561267257600080fd5b505af1158015612686573d6000803e3d6000fd5b50505050505050565b6000763d602d80600a3d3981f3363d3d373d3d3d363d730000008260601b60e81c176000526e5af43d82803e903d91602b57fd5bf38260781b17602052603760096000f090506001600160a01b0381166127245760405162461bcd60e51b8152602060048201526016602482015275115490cc4c4d8dce8818dc99585d194819985a5b195960521b6044820152606401610627565b919050565b6127316128b5565b6001805460ff1916811790557f62e78cea01bee320cd4e420270b5ea74000d11b0c9f74754ebdbfc544b05a258335b6040516001600160a01b03909116815260200160405180910390a1565b6127856128fd565b6001805460ff191690557f5db9ee0a495bf2e6ff9c91a7834c1ba4fdd244a5e8aa4e537bd38aeae4b073aa33612760565b6000612351836001600160a01b038416612946565b60006123518383612946565b6000612351828461331a565b600081815260018301602052604081205461282a5750815460018181018455600084815260208082209093018490558454848252828601909352604090209190915561051c565b50600061051c565b61283c8282611969565b610aa15761284981612a39565b612854836020612a4b565b604051602001612865929190613503565b60408051601f198184030181529082905262461bcd60e51b825261062791600401612d3d565b60008260000182815481106128a2576128a261332d565b9060005260206000200154905092915050565b60015460ff16156128fb5760405162461bcd60e51b815260206004820152601060248201526f14185d5cd8589b194e881c185d5cd95960821b6044820152606401610627565b565b60015460ff166128fb5760405162461bcd60e51b815260206004820152601460248201527314185d5cd8589b194e881b9bdd081c185d5cd95960621b6044820152606401610627565b60008181526001830160205260408120548015612a2f57600061296a60018361331a565b855490915060009061297e9060019061331a565b90508181146129e357600086600001828154811061299e5761299e61332d565b90600052602060002001549050808760000184815481106129c1576129c161332d565b6000918252602080832090910192909255918252600188019052604090208390555b85548690806129f4576129f4613578565b60019003818190600052602060002001600090559055856001016000868152602001908152602001600020600090556001935050505061051c565b600091505061051c565b606061051c6001600160a01b03831660145b60606000612a5a8360026134c2565b612a659060026134af565b67ffffffffffffffff811115612a7d57612a7d612de6565b6040519080825280601f01601f191660200182016040528015612aa7576020820181803683370190505b509050600360fc1b81600081518110612ac257612ac261332d565b60200101906001600160f81b031916908160001a905350600f60fb1b81600181518110612af157612af161332d565b60200101906001600160f81b031916908160001a9053506000612b158460026134c2565b612b209060016134af565b90505b6001811115612b98576f181899199a1a9b1b9c1cb0b131b232b360811b85600f1660108110612b5457612b5461332d565b1a60f81b828281518110612b6a57612b6a61332d565b60200101906001600160f81b031916908160001a90535060049490941c93612b918161358e565b9050612b23565b5083156123515760405162461bcd60e51b815260206004820181905260248201527f537472696e67733a20686578206c656e67746820696e73756666696369656e746044820152606401610627565b60405180606001604052806003906020820280368337509192915050565b6040518060c001604052806006906020820280368337509192915050565b50805460008255906000526020600020908101906124879190612c8c565b828054828255906000526020600020908101928215612c7c579160200282015b82811115612c7c578251825591602001919060010190612c61565b50612c88929150612c8c565b5090565b5b80821115612c885760008155600101612c8d565b600060208284031215612cb357600080fd5b81356001600160e01b03198116811461235157600080fd5b60008060408385031215612cde57600080fd5b50508035926020909101359150565b60005b83811015612d08578181015183820152602001612cf0565b50506000910152565b60008151808452612d29816020860160208601612ced565b601f01601f19169290920160200192915050565b6020815260006123516020830184612d11565b600060208284031215612d6257600080fd5b5035919050565b6001600160a01b038116811461248757600080fd5b60008060408385031215612d9157600080fd5b823591506020830135612da381612d69565b809150509250929050565b600080600060608486031215612dc357600080fd5b833592506020840135612dd581612d69565b929592945050506040919091013590565b634e487b7160e01b600052604160045260246000fd5b60405160a0810167ffffffffffffffff81118282101715612e1f57612e1f612de6565b60405290565b604051601f8201601f1916810167ffffffffffffffff81118282101715612e4e57612e4e612de6565b604052919050565b600082601f830112612e6757600080fd5b813567ffffffffffffffff811115612e8157612e81612de6565b612e94601f8201601f1916602001612e25565b818152846020838601011115612ea957600080fd5b816020850160208301376000918101602001919091529392505050565b600080600060e08486031215612edb57600080fd5b8335612ee681612d69565b92506020603f85018613612ef957600080fd5b612f01612dfc565b8060c0870188811115612f1357600080fd5b8388015b81811015612f2e5780358452928401928401612f17565b509094503591505067ffffffffffffffff811115612f4b57600080fd5b612f5786828701612e56565b9150509250925092565b801515811461248757600080fd5b600060208284031215612f8157600080fd5b813561235181612f61565b600081518084526020808501945080840160005b83811015612fc55781516001600160a01b031687529582019590820190600101612fa0565b509495945050505050565b6000610180808352612fe481840189612d11565b905060208084018860005b60038110156130155781516001600160a01b031683529183019190830190600101612fef565b505050608084018760005b600681101561303d57815183529183019190830190600101613020565b505050508281036101408401526130548186612f8c565b90508281036101608401526130698185612f8c565b98975050505050505050565b600082601f83011261308657600080fd5b8135602067ffffffffffffffff8211156130a2576130a2612de6565b8160051b6130b1828201612e25565b92835284810182019282810190878511156130cb57600080fd5b83870192505b848310156130ea578235825291830191908301906130d1565b979650505050505050565b600080600080600060a0868803121561310d57600080fd5b85359450602086013567ffffffffffffffff8082111561312c57600080fd5b61313889838a01612e56565b9550604088013591508082111561314e57600080fd5b61315a89838a01613075565b9450606088013591508082111561317057600080fd5b5061317d88828901613075565b925050608086013561318e81612f61565b809150509295509295909350565b600081518084526020808501945080840160005b83811015612fc5578151875295820195908201906001016131b0565b6060815260006131df6060830186612d11565b82810360208401526131f1818661319c565b90508281036040840152613205818561319c565b9695505050505050565b60006020828403121561322157600080fd5b815161235181612d69565b60006020828403121561323e57600080fd5b815161235181612f61565b6020808252600a908201526910931050d2d7d31254d560b21b604082015260600190565b60208082526006908201526514105554d15160d21b604082015260600190565b6020808252600a90820152694e4f545f45584953545360b01b604082015260600190565b600181811c908216806132c557607f821691505b6020821081036132e557634e487b7160e01b600052602260045260246000fd5b50919050565b634e487b7160e01b600052601160045260246000fd5b600060018201613313576133136132eb565b5060010190565b8181038181111561051c5761051c6132eb565b634e487b7160e01b600052603260045260246000fd5b6bffffffffffffffffffffffff198360601b1681526000825161336d816014850160208701612ced565b919091016014019392505050565b6000806040838503121561338e57600080fd5b825161339981612d69565b6020939093015192949293505050565b601f821115610a2257600081815260208120601f850160051c810160208610156133d05750805b601f850160051c820191505b81811015610ee9578281556001016133dc565b815167ffffffffffffffff81111561340957613409612de6565b61341d8161341784546132b1565b846133a9565b602080601f831160018114613452576000841561343a5750858301515b600019600386901b1c1916600185901b178555610ee9565b600085815260208120601f198616915b8281101561348157888601518255948401946001909101908401613462565b508582101561349f5787850151600019600388901b60f8161c191681555b5050505050600190811b01905550565b8082018082111561051c5761051c6132eb565b60008160001904831182151516156134dc576134dc6132eb565b500290565b6000826134fe57634e487b7160e01b600052601260045260246000fd5b500490565b7f416363657373436f6e74726f6c3a206163636f756e742000000000000000000081526000835161353b816017850160208801612ced565b7001034b99036b4b9b9b4b733903937b6329607d1b601791840191820152835161356c816028840160208801612ced565b01602801949350505050565b634e487b7160e01b600052603160045260246000fd5b60008161359d5761359d6132eb565b50600019019056fea26469706673582212204bb9dfbb69e50670d7b41d50bd2da78927e84ff3e7d2a2f5bc760d167afbaeda64736f6c63430008100033",
  "immutableReferences": {},
  "source": "// SPDX-License-Identifier: SimPL-2.0\n\npragma solidity ^0.8.0;\n\nimport \"../know-token/KnowlageToken.sol\";\nimport \"../know-proxy/TokenProxy.sol\";\nimport \"../know-proxy/BlackListProxy.sol\";\nimport \"../know-proxy/TransferProxy.sol\";\nimport \"../know-proxy/ReceiveFeeProxy.sol\";\nimport \"../know-template/TicketERC20Template.sol\";\nimport \"../know-interface/IReceiver.sol\";\nimport \"../know-interface/IBlackList.sol\";\n\nimport \"@openzeppelin/contracts/access/AccessControl.sol\";\nimport \"@openzeppelin/contracts/security/Pausable.sol\";\n\nimport \"@openzeppelin/contracts/token/ERC20/IERC20.sol\";\nimport \"@openzeppelin/contracts/utils/structs/EnumerableSet.sol\";\nimport \"@openzeppelin/contracts/utils/math/SafeMath.sol\";\nimport \"@openzeppelin/contracts/proxy/Clones.sol\";\n\n/**\n * @title Major Factory Contract\n * @notice HorseRace is a NFT horse racing metaverse based on pylogon\n * @notice ....\n *\n * @notice Website: https://horse-racing.io/\n * @notice Docs: https://horse-racing.gitbook.io/horse-racing-docs/\n * \n * @dev Version: v1.0.1\n */\ncontract TestSubjectTemplate is AccessControl, Pausable {\n    using SafeMath for uint256;\n    using EnumerableSet for EnumerableSet.Bytes32Set;\n    using EnumerableSet for EnumerableSet.AddressSet;\n\n    struct Subject {\n        /** @notice  */\n        address tuitionToken;\n        address ticketToken;\n        address creater;\n        uint256 totalShares;\n        uint256 joinShares;\n        uint256 uintTuitionAmount;\n        uint256 endTime;\n        uint256 freeTime;\n        uint256 status;\n        string descriptionURI;\n        EnumerableSet.AddressSet members;\n        EnumerableSet.AddressSet teachers;\n        mapping (address => uint256) shares;\n        mapping (address => uint256) tickets;\n    }\n\n    struct Courseware {\n        string descriptionURI;\n        bytes32[] freeCoursewareURIs;\n        bytes32[] otherCoursewareURIs;\n        uint256 reports;\n        uint256 status;\n        bool isFreeWhenEnd;\n    }\n\n    /** @notice Version of contract */\n    string constant public LASTEST_VERSION = \"v1.0.1\";\n\n    /** @notice The role of access control - (admin role) */\n    bytes32 constant public ADMIN_ROLE = keccak256(\"ADMIN_ROLE\");\n\n    /** @notice Address of token proxy contract - For subject mint token */\n    TokenProxy public tokenProxy;\n\n    /** @notice Address of transfer proxy contract - For subject transfer token */\n    TransferProxy public transferProxy;\n\n    /** @notice Address of black list proxy contract - For subject black list */\n    BalckListProxy public blackListProxy;\n\n    /** @notice Address of fee receiver proxy contract - For subject transfer fee */\n    ReceiveFeeProxy public receiveFeeProxy;\n\n    /** @notice Address of ticket lp token contract - For subject transfer ticket token */\n    address public ticketERC20Template;\n\n    string public subjectURI;\n\n    EnumerableSet.Bytes32Set private _subjectIds;\n\n    mapping (bytes32 => Subject) private _subjects;\n\n    mapping (address => EnumerableSet.Bytes32Set) private _applys;\n    mapping (address => EnumerableSet.Bytes32Set) private _joineds;\n\n    mapping (address => EnumerableSet.Bytes32Set) private _teaching;\n    mapping (bytes32 => mapping (address => Courseware)) private _coursewares;\n\n    event AskNewSubject(bytes32 subjectId, address tuitionToken, address ticketToken);\n    event JoinSubject(address ticketToken, uint256 members, uint256 teachers);\n    event ExitSubject(address ticketToken, uint256 amount, uint256 members);\n    event UploadCourseware(uint256 members, uint256 coursewareURIs);\n    event VoteTo(uint256 leftTickets, uint256 knowAmount);\n    event SwapReward(uint256 amount, uint256 fee, address tuitionToken);\n\n    constructor(address[5] memory proxys, string memory _subjectURI) {\n        _grantRole(ADMIN_ROLE, _msgSender());\n        _grantRole(DEFAULT_ADMIN_ROLE, _msgSender());\n\n        subjectURI = _subjectURI;\n\n        tokenProxy = TokenProxy(payable(proxys[0]));\n        transferProxy = TransferProxy(proxys[1]);\n        blackListProxy = BalckListProxy(payable(proxys[2]));\n        receiveFeeProxy = ReceiveFeeProxy(payable(proxys[3]));\n        ticketERC20Template = proxys[4];\n    }\n\n    function _transfer(\n        address tuitionToken, address from, address to, uint256 amount\n    ) private returns (bool) {\n        if (tuitionToken == address(0)) {\n            // require(msg.value >= amount, \"INVALID_AMOUNT\");\n            payable(from).transfer(amount);\n            return true;\n        } else {\n            return transferProxy.transferFrom(tuitionToken, from, to, amount);\n        }\n    }\n\n    function _mintKnowToken(address account, uint256 amount) private {\n        address token = tokenProxy.getImplementation();\n        KnowlageToken(token).mintTo(account, amount);\n    }\n\n    modifier isBlackList() {\n        address blackList = blackListProxy.getImplementation();\n        require(!IBlackList(blackList).isBlackList(_msgSender()), \"BLACK_LIST\");\n        require(!paused(), \"PAUSED\");\n\n        _;\n    }\n\n    function getSubjectDetail(bytes32 subjectId) public view returns (\n        string memory uri, address[3] memory addrs, uint256[6] memory settings,\n        address[] memory members, address[] memory teachers\n    ) {\n        uri = _subjects[subjectId].descriptionURI;\n\n        addrs[0] = _subjects[subjectId].tuitionToken;\n        addrs[1] = _subjects[subjectId].ticketToken;\n        addrs[2] = _subjects[subjectId].creater;\n\n        settings[0] = _subjects[subjectId].totalShares;\n        settings[1] = _subjects[subjectId].joinShares;\n        settings[2] = _subjects[subjectId].uintTuitionAmount;\n        settings[3] = _subjects[subjectId].endTime;\n        settings[4] = _subjects[subjectId].freeTime;\n        settings[5] = _subjects[subjectId].status;\n\n        uint256 length = _subjects[subjectId].members.length();\n        members = new address[](length);\n\n        for (uint256 index = 0; index < length; index++) {\n            members[index] = _subjects[subjectId].members.at(index);\n        }\n\n        length = _subjects[subjectId].teachers.length();\n        teachers = new address[](length);\n\n        for (uint256 index = 0; index < length; index++) {\n            teachers[index] = _subjects[subjectId].teachers.at(index);\n        }\n    }\n\n    function getSubjectCourseware(\n        bytes32 subjectId, address teacher\n    ) public view returns (string memory uri, bytes32[] memory free, bytes32[] memory other) {\n        uri = _coursewares[subjectId][teacher].descriptionURI;\n        free = _coursewares[subjectId][teacher].freeCoursewareURIs;\n\n        if (_subjects[subjectId].endTime > block.timestamp) {\n            if (_coursewares[subjectId][teacher].isFreeWhenEnd)\n                other =  _coursewares[subjectId][teacher].otherCoursewareURIs;\n        } else {\n            if (_subjects[subjectId].members.contains(_msgSender()))\n                other =  _coursewares[subjectId][teacher].otherCoursewareURIs;\n        }\n    }\n\n    function togglePause(bool status) public onlyRole(ADMIN_ROLE) {\n        if (status) _pause();\n        else _unpause();\n    }\n\n    function askNewSubject(\n        address tuitionToken, uint256[5] memory parms, string memory descriptionURI\n    ) public payable isBlackList {\n        require(parms[4] > 0, \"INVALID_SHARES\");\n\n        bytes32 subjectId = keccak256(abi.encodePacked(tuitionToken, descriptionURI));\n\n        _subjects[subjectId].tuitionToken = tuitionToken;\n        _subjects[subjectId].creater = _msgSender();\n        _subjects[subjectId].totalShares = parms[0];\n        _subjects[subjectId].joinShares = parms[4];\n        _subjects[subjectId].uintTuitionAmount = parms[1];\n        _subjects[subjectId].endTime = parms[2];\n        _subjects[subjectId].freeTime = parms[3];\n        _subjects[subjectId].members.add(_msgSender());\n        _subjects[subjectId].shares[_msgSender()] = parms[4];\n\n        if (parms[1] > 0) {\n            uint256 tuitionAmount = parms[4] > 0 ? parms[1].mul(parms[4]) : parms[1];\n            require(_transfer(tuitionToken, _msgSender(), address(this), tuitionAmount), \"TRANSFER_FAILD\");\n\n            _subjects[subjectId].ticketToken = Clones.clone(ticketERC20Template);\n            TicketERC20Template ticket = TicketERC20Template(_subjects[subjectId].ticketToken);\n            ticket.initialize(address(this), 100000000e18);\n            ticket.transfer(_msgSender(), tuitionAmount.mul(10000));\n            _subjects[subjectId].tickets[_msgSender()] = tuitionAmount;\n        }\n\n        _applys[_msgSender()].add(subjectId);\n        _joineds[_msgSender()].add(subjectId);\n        _subjectIds.add(subjectId);\n\n        emit AskNewSubject(subjectId, tuitionToken, _subjects[subjectId].ticketToken);\n    }\n\n    function joinSubject(bytes32 subjectId, uint256 shares) public payable isBlackList {\n        require(shares > 0, \"INVALID_SHARES\");\n        require(_subjectIds.contains(subjectId), \"NOT_EXISTS\");\n\n        Subject storage subject = _subjects[subjectId];\n        require(subject.totalShares == 0 || subject.joinShares < subject.totalShares, \"FULL\");\n\n        if (subject.uintTuitionAmount > 0) {\n            uint256 uintAmount = subject.uintTuitionAmount;\n            uint256 tuitionAmount = shares > 0 ? uintAmount.mul(shares) : uintAmount;\n\n            require(_transfer(\n                subject.tuitionToken, _msgSender(), address(this), tuitionAmount\n            ), \"TRANSFER_FAILD\");\n\n            if (subject.ticketToken != address(0)) {\n                TicketERC20Template ticketToken = TicketERC20Template(subject.ticketToken);\n                ticketToken.transfer(_msgSender(), tuitionAmount);\n            }\n\n            subject.joinShares = subject.joinShares.add(shares);\n            uint256 ticket = _subjects[subjectId].tickets[_msgSender()].add(tuitionAmount);\n            _subjects[subjectId].tickets[_msgSender()] = ticket;\n        }\n\n        subject.members.add(_msgSender());\n        shares = shares.add(subject.shares[_msgSender()]);\n        subject.shares[_msgSender()] = shares;\n        _joineds[_msgSender()].add(subjectId);\n\n        emit JoinSubject(subject.ticketToken, subject.members.length(), subject.teachers.length());\n    }\n\n    function exitSubject(bytes32 subjectId) public payable isBlackList {\n        require(_subjectIds.contains(subjectId), \"NOT_EXISTS\");\n\n        uint256 amount;\n        Subject storage subject = _subjects[subjectId];\n        require(subject.members.contains(_msgSender()), \"NOT_JOIN\");\n\n        if (subject.uintTuitionAmount > 0) {\n            amount = subject.shares[_msgSender()].mul(subject.uintTuitionAmount);\n\n            require(_transfer(\n                subject.ticketToken, _msgSender(), address(this), amount.mul(10000)\n            ), \"INVALID_TICKET\");\n\n            require(_transfer(subject.tuitionToken, address(this), _msgSender(), amount));\n        }\n\n        subject.members.remove(_msgSender());\n        _joineds[_msgSender()].remove(subjectId);\n\n        subject.joinShares = subject.joinShares.sub(subject.shares[_msgSender()]);\n        delete subject.shares[_msgSender()];\n\n        emit ExitSubject(subject.ticketToken, amount, subject.members.length());\n    }\n\n    function uploadCourseware(\n        bytes32 subjectId, string memory descriptionURI, bytes32[] memory freeCoursewareURIs,\n        bytes32[] memory otherCoursewareURIs, bool isFreeWhenEnd\n    ) public isBlackList {\n        require(_subjectIds.contains(subjectId), \"NOT_EXISTS\");\n        \n        if (_teaching[_msgSender()].contains(subjectId)) {\n            delete _coursewares[subjectId][_msgSender()].freeCoursewareURIs;\n            delete _coursewares[subjectId][_msgSender()].otherCoursewareURIs;\n        } else {\n            _teaching[_msgSender()].add(subjectId);\n            _subjects[subjectId].teachers.add(_msgSender());\n            _coursewares[subjectId][_msgSender()].descriptionURI = descriptionURI;\n        }\n\n        _coursewares[subjectId][_msgSender()].isFreeWhenEnd = isFreeWhenEnd;\n        _coursewares[subjectId][_msgSender()].freeCoursewareURIs = freeCoursewareURIs;\n        _coursewares[subjectId][_msgSender()].otherCoursewareURIs = otherCoursewareURIs;\n\n        uint256 coursewareURIs = freeCoursewareURIs.length + otherCoursewareURIs.length;\n\n        emit UploadCourseware(_subjects[subjectId].members.length(), coursewareURIs);\n    }\n\n    function voteTo(bytes32 subjectId, address teacher, uint256 ticket) public isBlackList {\n        require(_subjectIds.contains(subjectId), \"NOT_EXISTS\");\n\n        Subject storage subject = _subjects[subjectId];\n        require(subject.members.contains(_msgSender()), \"NOT_JOIN\");\n        require(subject.tickets[_msgSender()] > 0, \"TICKETS_OUT\");\n\n        uint256 amount = subject.tickets[_msgSender()];\n        \n        if (teacher == address(0) && ticket == 0) {\n            uint256 teachers = subject.teachers.length();\n            amount = amount.mul(10000).div(teachers);\n\n            for (uint256 index = 0; index < teachers; index++) {\n                teacher = subject.teachers.at(index);\n                _transfer(subject.tuitionToken, _msgSender(), teacher, amount);\n            }\n\n            _mintKnowToken(_msgSender(), subject.tickets[_msgSender()]);\n            subject.tickets[_msgSender()] = 0;\n\n            emit VoteTo(0, amount.div(10000).mul(teachers));\n        } else {\n            require(subject.teachers.contains(teacher), \"TEACHER_NOT_EXISTS\");\n            require(ticket > 0 && ticket <= amount, \"INVALID_TICKETS\");\n\n            _transfer(subject.tuitionToken, _msgSender(), teacher, ticket.mul(10000));\n\n            _mintKnowToken(_msgSender(), ticket);\n            subject.tickets[_msgSender()] = subject.tickets[_msgSender()] - amount;\n\n            emit VoteTo(subject.tickets[_msgSender()], ticket);\n        }\n    }\n\n    function swapReward(bytes32 subjectId, uint256 amount) public isBlackList {\n        require(_subjectIds.contains(subjectId), \"NOT_EXISTS\");\n\n        Subject storage subject = _subjects[subjectId];\n        require(subject.endTime > block.timestamp, \"NOT_END\");\n        require(subject.teachers.contains(_msgSender()), \"TEACHER_NOT_EXISTS\");\n        require(amount > 0, \"INVALID_AMOUNT\");\n\n        require(_transfer(\n            subject.ticketToken, _msgSender(), address(this), amount.mul(10000)\n        ), \"INVALID_TICKET\");\n\n        address receivePro = receiveFeeProxy.getImplementation();\n        (address to, uint256 rate) = IReceiver(receivePro).getReceiver();\n        uint256 fee = amount.mul(10000).div(rate);\n\n        _transfer(subject.tuitionToken, address(this), _msgSender(), amount.sub(fee));\n        _transfer(subject.tuitionToken, address(this), to, fee);\n        _mintKnowToken(_msgSender(), amount);\n\n        emit SwapReward(amount.sub(fee), fee, subject.tuitionToken);\n    }\n}",
  "sourcePath": "/Users/cea/Projects/myself/knowlage-dapp/contracts/know-template/TestSubjectTemplate.sol",
  "compiler": {
    "name": "solc",
    "version": "0.8.16+commit.07a7930e.Emscripten.clang"
  },
  "schemaVersion": "3.4.9",
  "updatedAt": "2022-12-15T08:49:28.507Z",
  "devdoc": {
    "details": "Version: v1.0.1",
    "kind": "dev",
    "methods": {
      "getRoleAdmin(bytes32)": {
        "details": "Returns the admin role that controls `role`. See {grantRole} and {revokeRole}. To change a role's admin, use {_setRoleAdmin}."
      },
      "grantRole(bytes32,address)": {
        "details": "Grants `role` to `account`. If `account` had not been already granted `role`, emits a {RoleGranted} event. Requirements: - the caller must have ``role``'s admin role. May emit a {RoleGranted} event."
      },
      "hasRole(bytes32,address)": {
        "details": "Returns `true` if `account` has been granted `role`."
      },
      "paused()": {
        "details": "Returns true if the contract is paused, and false otherwise."
      },
      "renounceRole(bytes32,address)": {
        "details": "Revokes `role` from the calling account. Roles are often managed via {grantRole} and {revokeRole}: this function's purpose is to provide a mechanism for accounts to lose their privileges if they are compromised (such as when a trusted device is misplaced). If the calling account had been revoked `role`, emits a {RoleRevoked} event. Requirements: - the caller must be `account`. May emit a {RoleRevoked} event."
      },
      "revokeRole(bytes32,address)": {
        "details": "Revokes `role` from `account`. If `account` had been granted `role`, emits a {RoleRevoked} event. Requirements: - the caller must have ``role``'s admin role. May emit a {RoleRevoked} event."
      },
      "supportsInterface(bytes4)": {
        "details": "See {IERC165-supportsInterface}."
      }
    },
    "title": "Major Factory Contract",
    "version": 1
  },
  "userdoc": {
    "kind": "user",
    "methods": {
      "ADMIN_ROLE()": {
        "notice": "The role of access control - (admin role) "
      },
      "LASTEST_VERSION()": {
        "notice": "Version of contract "
      },
      "blackListProxy()": {
        "notice": "Address of black list proxy contract - For subject black list "
      },
      "receiveFeeProxy()": {
        "notice": "Address of fee receiver proxy contract - For subject transfer fee "
      },
      "ticketERC20Template()": {
        "notice": "Address of ticket lp token contract - For subject transfer ticket token "
      },
      "tokenProxy()": {
        "notice": "Address of token proxy contract - For subject mint token "
      },
      "transferProxy()": {
        "notice": "Address of transfer proxy contract - For subject transfer token "
      }
    },
    "notice": "HorseRace is a NFT horse racing metaverse based on pylogon....Website: https://horse-racing.io/Docs: https://horse-racing.gitbook.io/horse-racing-docs/ ",
    "version": 1
  }
}