{
  "contractName": "TicketERC20Template",
  "abi": [
    {
      "anonymous": false,
      "inputs": [
        {
          "indexed": true,
          "internalType": "address",
          "name": "owner",
          "type": "address"
        },
        {
          "indexed": true,
          "internalType": "address",
          "name": "spender",
          "type": "address"
        },
        {
          "indexed": false,
          "internalType": "uint256",
          "name": "value",
          "type": "uint256"
        }
      ],
      "name": "Approval",
      "type": "event"
    },
    {
      "anonymous": false,
      "inputs": [
        {
          "indexed": false,
          "internalType": "uint8",
          "name": "version",
          "type": "uint8"
        }
      ],
      "name": "Initialized",
      "type": "event"
    },
    {
      "anonymous": false,
      "inputs": [
        {
          "indexed": true,
          "internalType": "address",
          "name": "from",
          "type": "address"
        },
        {
          "indexed": true,
          "internalType": "address",
          "name": "to",
          "type": "address"
        },
        {
          "indexed": false,
          "internalType": "uint256",
          "name": "value",
          "type": "uint256"
        }
      ],
      "name": "Transfer",
      "type": "event"
    },
    {
      "inputs": [],
      "name": "LASTEST_VERSION",
      "outputs": [
        {
          "internalType": "string",
          "name": "",
          "type": "string"
        }
      ],
      "stateMutability": "view",
      "type": "function",
      "constant": true
    },
    {
      "inputs": [],
      "name": "MINT_ROLE",
      "outputs": [
        {
          "internalType": "bytes32",
          "name": "",
          "type": "bytes32"
        }
      ],
      "stateMutability": "view",
      "type": "function",
      "constant": true
    },
    {
      "inputs": [
        {
          "internalType": "address",
          "name": "owner",
          "type": "address"
        },
        {
          "internalType": "address",
          "name": "spender",
          "type": "address"
        }
      ],
      "name": "allowance",
      "outputs": [
        {
          "internalType": "uint256",
          "name": "",
          "type": "uint256"
        }
      ],
      "stateMutability": "view",
      "type": "function",
      "constant": true
    },
    {
      "inputs": [
        {
          "internalType": "address",
          "name": "spender",
          "type": "address"
        },
        {
          "internalType": "uint256",
          "name": "amount",
          "type": "uint256"
        }
      ],
      "name": "approve",
      "outputs": [
        {
          "internalType": "bool",
          "name": "",
          "type": "bool"
        }
      ],
      "stateMutability": "nonpayable",
      "type": "function"
    },
    {
      "inputs": [
        {
          "internalType": "address",
          "name": "account",
          "type": "address"
        }
      ],
      "name": "balanceOf",
      "outputs": [
        {
          "internalType": "uint256",
          "name": "",
          "type": "uint256"
        }
      ],
      "stateMutability": "view",
      "type": "function",
      "constant": true
    },
    {
      "inputs": [],
      "name": "decimals",
      "outputs": [
        {
          "internalType": "uint8",
          "name": "",
          "type": "uint8"
        }
      ],
      "stateMutability": "view",
      "type": "function",
      "constant": true
    },
    {
      "inputs": [
        {
          "internalType": "address",
          "name": "spender",
          "type": "address"
        },
        {
          "internalType": "uint256",
          "name": "subtractedValue",
          "type": "uint256"
        }
      ],
      "name": "decreaseAllowance",
      "outputs": [
        {
          "internalType": "bool",
          "name": "",
          "type": "bool"
        }
      ],
      "stateMutability": "nonpayable",
      "type": "function"
    },
    {
      "inputs": [
        {
          "internalType": "address",
          "name": "spender",
          "type": "address"
        },
        {
          "internalType": "uint256",
          "name": "addedValue",
          "type": "uint256"
        }
      ],
      "name": "increaseAllowance",
      "outputs": [
        {
          "internalType": "bool",
          "name": "",
          "type": "bool"
        }
      ],
      "stateMutability": "nonpayable",
      "type": "function"
    },
    {
      "inputs": [],
      "name": "name",
      "outputs": [
        {
          "internalType": "string",
          "name": "",
          "type": "string"
        }
      ],
      "stateMutability": "view",
      "type": "function",
      "constant": true
    },
    {
      "inputs": [],
      "name": "symbol",
      "outputs": [
        {
          "internalType": "string",
          "name": "",
          "type": "string"
        }
      ],
      "stateMutability": "view",
      "type": "function",
      "constant": true
    },
    {
      "inputs": [],
      "name": "totalSupply",
      "outputs": [
        {
          "internalType": "uint256",
          "name": "",
          "type": "uint256"
        }
      ],
      "stateMutability": "view",
      "type": "function",
      "constant": true
    },
    {
      "inputs": [
        {
          "internalType": "address",
          "name": "to",
          "type": "address"
        },
        {
          "internalType": "uint256",
          "name": "amount",
          "type": "uint256"
        }
      ],
      "name": "transfer",
      "outputs": [
        {
          "internalType": "bool",
          "name": "",
          "type": "bool"
        }
      ],
      "stateMutability": "nonpayable",
      "type": "function"
    },
    {
      "inputs": [
        {
          "internalType": "address",
          "name": "from",
          "type": "address"
        },
        {
          "internalType": "address",
          "name": "to",
          "type": "address"
        },
        {
          "internalType": "uint256",
          "name": "amount",
          "type": "uint256"
        }
      ],
      "name": "transferFrom",
      "outputs": [
        {
          "internalType": "bool",
          "name": "",
          "type": "bool"
        }
      ],
      "stateMutability": "nonpayable",
      "type": "function"
    },
    {
      "inputs": [
        {
          "internalType": "address",
          "name": "admin",
          "type": "address"
        },
        {
          "internalType": "uint256",
          "name": "amount",
          "type": "uint256"
        }
      ],
      "name": "initialize",
      "outputs": [],
      "stateMutability": "nonpayable",
      "type": "function"
    }
  ],
  "bytecode": "0x608060405234801561001057600080fd5b50610cfe806100206000396000f3fe608060405234801561001057600080fd5b50600436106100ea5760003560e01c806370a082311161008c578063a9059cbb11610066578063a9059cbb146101e0578063cd6dc687146101f3578063dd62ed3e14610208578063e9a9c8501461021b57600080fd5b806370a082311461019c57806395d89b41146101c5578063a457c2d7146101cd57600080fd5b806323b872dd116100c857806323b872dd14610142578063313ce56714610155578063395093511461016457806341e0c7d41461017757600080fd5b806306fdde03146100ef578063095ea7b31461010d57806318160ddd14610130575b600080fd5b6100f7610242565b60405161010491906109d9565b60405180910390f35b61012061011b366004610a43565b6102d4565b6040519015158152602001610104565b6035545b604051908152602001610104565b610120610150366004610a6d565b6102ee565b60405160128152602001610104565b610120610172366004610a43565b610312565b6100f76040518060400160405280600681526020016576312e302e3160d01b81525081565b6101346101aa366004610aa9565b6001600160a01b031660009081526033602052604090205490565b6100f7610334565b6101206101db366004610a43565b610343565b6101206101ee366004610a43565b6103c3565b610206610201366004610a43565b6103d1565b005b610134610216366004610acb565b61052f565b6101347f154c00819833dac601ee5ddded6fda79d9d8b506b911b3dbd54cdb95fe6c368681565b60606036805461025190610afe565b80601f016020809104026020016040519081016040528092919081815260200182805461027d90610afe565b80156102ca5780601f1061029f576101008083540402835291602001916102ca565b820191906000526020600020905b8154815290600101906020018083116102ad57829003601f168201915b5050505050905090565b6000336102e281858561055a565b60019150505b92915050565b6000336102fc85828561067e565b6103078585856106f8565b506001949350505050565b6000336102e2818585610325838361052f565b61032f9190610b38565b61055a565b60606037805461025190610afe565b60003381610351828661052f565b9050838110156103b65760405162461bcd60e51b815260206004820152602560248201527f45524332303a2064656372656173656420616c6c6f77616e63652062656c6f77604482015264207a65726f60d81b60648201526084015b60405180910390fd5b610307828686840361055a565b6000336102e28185856106f8565b600054610100900460ff16158080156103f15750600054600160ff909116105b8061040b5750303b15801561040b575060005460ff166001145b61046e5760405162461bcd60e51b815260206004820152602e60248201527f496e697469616c697a61626c653a20636f6e747261637420697320616c72656160448201526d191e481a5b9a5d1a585b1a5e995960921b60648201526084016103ad565b6000805460ff191660011790558015610491576000805461ff0019166101001790555b6104da6040518060400160405280600b81526020016a2a34b1b5b2ba2a37b5b2b760a91b8152506040518060400160405280600481526020016304a544c560e41b8152506108a3565b6104e483836108d8565b801561052a576000805461ff0019169055604051600181527f7f26b83ff96e1f2b6a682f133852f6798a09c465da95921460cefb38474024989060200160405180910390a15b505050565b6001600160a01b03918216600090815260346020908152604080832093909416825291909152205490565b6001600160a01b0383166105bc5760405162461bcd60e51b8152602060048201526024808201527f45524332303a20617070726f76652066726f6d20746865207a65726f206164646044820152637265737360e01b60648201526084016103ad565b6001600160a01b03821661061d5760405162461bcd60e51b815260206004820152602260248201527f45524332303a20617070726f766520746f20746865207a65726f206164647265604482015261737360f01b60648201526084016103ad565b6001600160a01b0383811660008181526034602090815260408083209487168084529482529182902085905590518481527f8c5be1e5ebec7d5bd14f71427d1e84f3dd0314c0f7b2291e5b200ac8c7c3b925910160405180910390a3505050565b600061068a848461052f565b905060001981146106f257818110156106e55760405162461bcd60e51b815260206004820152601d60248201527f45524332303a20696e73756666696369656e7420616c6c6f77616e636500000060448201526064016103ad565b6106f2848484840361055a565b50505050565b6001600160a01b03831661075c5760405162461bcd60e51b815260206004820152602560248201527f45524332303a207472616e736665722066726f6d20746865207a65726f206164604482015264647265737360d81b60648201526084016103ad565b6001600160a01b0382166107be5760405162461bcd60e51b815260206004820152602360248201527f45524332303a207472616e7366657220746f20746865207a65726f206164647260448201526265737360e81b60648201526084016103ad565b6001600160a01b038316600090815260336020526040902054818110156108365760405162461bcd60e51b815260206004820152602660248201527f45524332303a207472616e7366657220616d6f756e7420657863656564732062604482015265616c616e636560d01b60648201526084016103ad565b6001600160a01b0380851660008181526033602052604080822086860390559286168082529083902080548601905591517fddf252ad1be2c89b69c2b068fc378daa952ba7f163c4a11628f55a4df523b3ef906108969086815260200190565b60405180910390a36106f2565b600054610100900460ff166108ca5760405162461bcd60e51b81526004016103ad90610b59565b6108d48282610999565b5050565b6001600160a01b03821661092e5760405162461bcd60e51b815260206004820152601f60248201527f45524332303a206d696e7420746f20746865207a65726f20616464726573730060448201526064016103ad565b80603560008282546109409190610b38565b90915550506001600160a01b0382166000818152603360209081526040808320805486019055518481527fddf252ad1be2c89b69c2b068fc378daa952ba7f163c4a11628f55a4df523b3ef910160405180910390a35050565b600054610100900460ff166109c05760405162461bcd60e51b81526004016103ad90610b59565b60366109cc8382610c08565b50603761052a8282610c08565b600060208083528351808285015260005b81811015610a06578581018301518582016040015282016109ea565b506000604082860101526040601f19601f8301168501019250505092915050565b80356001600160a01b0381168114610a3e57600080fd5b919050565b60008060408385031215610a5657600080fd5b610a5f83610a27565b946020939093013593505050565b600080600060608486031215610a8257600080fd5b610a8b84610a27565b9250610a9960208501610a27565b9150604084013590509250925092565b600060208284031215610abb57600080fd5b610ac482610a27565b9392505050565b60008060408385031215610ade57600080fd5b610ae783610a27565b9150610af560208401610a27565b90509250929050565b600181811c90821680610b1257607f821691505b602082108103610b3257634e487b7160e01b600052602260045260246000fd5b50919050565b808201808211156102e857634e487b7160e01b600052601160045260246000fd5b6020808252602b908201527f496e697469616c697a61626c653a20636f6e7472616374206973206e6f74206960408201526a6e697469616c697a696e6760a81b606082015260800190565b634e487b7160e01b600052604160045260246000fd5b601f82111561052a57600081815260208120601f850160051c81016020861015610be15750805b601f850160051c820191505b81811015610c0057828155600101610bed565b505050505050565b815167ffffffffffffffff811115610c2257610c22610ba4565b610c3681610c308454610afe565b84610bba565b602080601f831160018114610c6b5760008415610c535750858301515b600019600386901b1c1916600185901b178555610c00565b600085815260208120601f198616915b82811015610c9a57888601518255948401946001909101908401610c7b565b5085821015610cb85787850151600019600388901b60f8161c191681555b5050505050600190811b0190555056fea2646970667358221220515a64de45a08b4d9142ca5abfeb468591deb7c2fb93b5d50e1a716217734b4864736f6c63430008100033",
  "immutableReferences": {},
  "source": "// SPDX-License-Identifier: SimPL-2.0\n\npragma solidity ^0.8.0;\n\nimport \"@openzeppelin/contracts-upgradeable/token/ERC20/ERC20Upgradeable.sol\";\n// import \"@openzeppelin/contracts/proxy/utils/Initializable.sol\";\nimport \"@openzeppelin/contracts/access/AccessControl.sol\";\n\n/**\n * @title Major Factory Contract\n * @notice HorseRace is a NFT horse racing metaverse based on pylogon\n * @notice ....\n *\n * @notice Website: https://horse-racing.io/\n * @notice Docs: https://horse-racing.gitbook.io/horse-racing-docs/\n * \n * @dev Version: v1.0.1\n */\ncontract TicketERC20Template is ERC20Upgradeable {\n    /** @notice Version of contract */\n    string constant public LASTEST_VERSION = \"v1.0.1\";\n\n    /** @notice The role of access control - (mint role) */\n    bytes32 constant public MINT_ROLE = keccak256(\"MINT_ROLE\");\n\n    function initialize(address admin, uint256 amount) public initializer {\n        __ERC20_init(\"TicketToken\", \"JTLP\");\n        _mint(admin, amount);\n    }\n}",
  "sourcePath": "/Users/cea/Projects/myself/knowlage-dapp/contracts/know-template/TicketERC20Template.sol",
  "compiler": {
    "name": "solc",
    "version": "0.8.16+commit.07a7930e.Emscripten.clang"
  },
  "schemaVersion": "3.4.9",
  "updatedAt": "2022-12-15T08:49:32.618Z",
  "networkType": "ethereum",
  "devdoc": {
    "details": "Version: v1.0.1",
    "kind": "dev",
    "methods": {
      "allowance(address,address)": {
        "details": "See {IERC20-allowance}."
      },
      "approve(address,uint256)": {
        "details": "See {IERC20-approve}. NOTE: If `amount` is the maximum `uint256`, the allowance is not updated on `transferFrom`. This is semantically equivalent to an infinite approval. Requirements: - `spender` cannot be the zero address."
      },
      "balanceOf(address)": {
        "details": "See {IERC20-balanceOf}."
      },
      "decimals()": {
        "details": "Returns the number of decimals used to get its user representation. For example, if `decimals` equals `2`, a balance of `505` tokens should be displayed to a user as `5.05` (`505 / 10 ** 2`). Tokens usually opt for a value of 18, imitating the relationship between Ether and Wei. This is the value {ERC20} uses, unless this function is overridden; NOTE: This information is only used for _display_ purposes: it in no way affects any of the arithmetic of the contract, including {IERC20-balanceOf} and {IERC20-transfer}."
      },
      "decreaseAllowance(address,uint256)": {
        "details": "Atomically decreases the allowance granted to `spender` by the caller. This is an alternative to {approve} that can be used as a mitigation for problems described in {IERC20-approve}. Emits an {Approval} event indicating the updated allowance. Requirements: - `spender` cannot be the zero address. - `spender` must have allowance for the caller of at least `subtractedValue`."
      },
      "increaseAllowance(address,uint256)": {
        "details": "Atomically increases the allowance granted to `spender` by the caller. This is an alternative to {approve} that can be used as a mitigation for problems described in {IERC20-approve}. Emits an {Approval} event indicating the updated allowance. Requirements: - `spender` cannot be the zero address."
      },
      "name()": {
        "details": "Returns the name of the token."
      },
      "symbol()": {
        "details": "Returns the symbol of the token, usually a shorter version of the name."
      },
      "totalSupply()": {
        "details": "See {IERC20-totalSupply}."
      },
      "transfer(address,uint256)": {
        "details": "See {IERC20-transfer}. Requirements: - `to` cannot be the zero address. - the caller must have a balance of at least `amount`."
      },
      "transferFrom(address,address,uint256)": {
        "details": "See {IERC20-transferFrom}. Emits an {Approval} event indicating the updated allowance. This is not required by the EIP. See the note at the beginning of {ERC20}. NOTE: Does not update the allowance if the current allowance is the maximum `uint256`. Requirements: - `from` and `to` cannot be the zero address. - `from` must have a balance of at least `amount`. - the caller must have allowance for ``from``'s tokens of at least `amount`."
      }
    },
    "title": "Major Factory Contract",
    "version": 1
  },
  "userdoc": {
    "kind": "user",
    "methods": {
      "LASTEST_VERSION()": {
        "notice": "Version of contract "
      },
      "MINT_ROLE()": {
        "notice": "The role of access control - (mint role) "
      }
    },
    "notice": "HorseRace is a NFT horse racing metaverse based on pylogon....Website: https://horse-racing.io/Docs: https://horse-racing.gitbook.io/horse-racing-docs/ ",
    "version": 1
  }
}