{
  "contractName": "BlackList",
  "abi": [
    {
      "inputs": [],
      "stateMutability": "nonpayable",
      "type": "constructor"
    },
    {
      "anonymous": false,
      "inputs": [
        {
          "indexed": true,
          "internalType": "bytes32",
          "name": "role",
          "type": "bytes32"
        },
        {
          "indexed": true,
          "internalType": "bytes32",
          "name": "previousAdminRole",
          "type": "bytes32"
        },
        {
          "indexed": true,
          "internalType": "bytes32",
          "name": "newAdminRole",
          "type": "bytes32"
        }
      ],
      "name": "RoleAdminChanged",
      "type": "event"
    },
    {
      "anonymous": false,
      "inputs": [
        {
          "indexed": true,
          "internalType": "bytes32",
          "name": "role",
          "type": "bytes32"
        },
        {
          "indexed": true,
          "internalType": "address",
          "name": "account",
          "type": "address"
        },
        {
          "indexed": true,
          "internalType": "address",
          "name": "sender",
          "type": "address"
        }
      ],
      "name": "RoleGranted",
      "type": "event"
    },
    {
      "anonymous": false,
      "inputs": [
        {
          "indexed": true,
          "internalType": "bytes32",
          "name": "role",
          "type": "bytes32"
        },
        {
          "indexed": true,
          "internalType": "address",
          "name": "account",
          "type": "address"
        },
        {
          "indexed": true,
          "internalType": "address",
          "name": "sender",
          "type": "address"
        }
      ],
      "name": "RoleRevoked",
      "type": "event"
    },
    {
      "inputs": [],
      "name": "ADMIN_ROLE",
      "outputs": [
        {
          "internalType": "bytes32",
          "name": "",
          "type": "bytes32"
        }
      ],
      "stateMutability": "view",
      "type": "function",
      "constant": true
    },
    {
      "inputs": [],
      "name": "DEFAULT_ADMIN_ROLE",
      "outputs": [
        {
          "internalType": "bytes32",
          "name": "",
          "type": "bytes32"
        }
      ],
      "stateMutability": "view",
      "type": "function",
      "constant": true
    },
    {
      "inputs": [],
      "name": "LASTEST_VERSION",
      "outputs": [
        {
          "internalType": "string",
          "name": "",
          "type": "string"
        }
      ],
      "stateMutability": "view",
      "type": "function",
      "constant": true
    },
    {
      "inputs": [
        {
          "internalType": "bytes32",
          "name": "role",
          "type": "bytes32"
        }
      ],
      "name": "getRoleAdmin",
      "outputs": [
        {
          "internalType": "bytes32",
          "name": "",
          "type": "bytes32"
        }
      ],
      "stateMutability": "view",
      "type": "function",
      "constant": true
    },
    {
      "inputs": [
        {
          "internalType": "bytes32",
          "name": "role",
          "type": "bytes32"
        },
        {
          "internalType": "address",
          "name": "account",
          "type": "address"
        }
      ],
      "name": "grantRole",
      "outputs": [],
      "stateMutability": "nonpayable",
      "type": "function"
    },
    {
      "inputs": [
        {
          "internalType": "bytes32",
          "name": "role",
          "type": "bytes32"
        },
        {
          "internalType": "address",
          "name": "account",
          "type": "address"
        }
      ],
      "name": "hasRole",
      "outputs": [
        {
          "internalType": "bool",
          "name": "",
          "type": "bool"
        }
      ],
      "stateMutability": "view",
      "type": "function",
      "constant": true
    },
    {
      "inputs": [
        {
          "internalType": "bytes32",
          "name": "role",
          "type": "bytes32"
        },
        {
          "internalType": "address",
          "name": "account",
          "type": "address"
        }
      ],
      "name": "renounceRole",
      "outputs": [],
      "stateMutability": "nonpayable",
      "type": "function"
    },
    {
      "inputs": [
        {
          "internalType": "bytes32",
          "name": "role",
          "type": "bytes32"
        },
        {
          "internalType": "address",
          "name": "account",
          "type": "address"
        }
      ],
      "name": "revokeRole",
      "outputs": [],
      "stateMutability": "nonpayable",
      "type": "function"
    },
    {
      "inputs": [
        {
          "internalType": "bytes4",
          "name": "interfaceId",
          "type": "bytes4"
        }
      ],
      "name": "supportsInterface",
      "outputs": [
        {
          "internalType": "bool",
          "name": "",
          "type": "bool"
        }
      ],
      "stateMutability": "view",
      "type": "function",
      "constant": true
    },
    {
      "inputs": [
        {
          "internalType": "address",
          "name": "account",
          "type": "address"
        }
      ],
      "name": "addBlackList",
      "outputs": [],
      "stateMutability": "nonpayable",
      "type": "function"
    },
    {
      "inputs": [
        {
          "internalType": "address",
          "name": "account",
          "type": "address"
        }
      ],
      "name": "removeBlackList",
      "outputs": [],
      "stateMutability": "nonpayable",
      "type": "function"
    },
    {
      "inputs": [
        {
          "internalType": "address",
          "name": "account",
          "type": "address"
        }
      ],
      "name": "isBlackList",
      "outputs": [
        {
          "internalType": "bool",
          "name": "",
          "type": "bool"
        }
      ],
      "stateMutability": "view",
      "type": "function",
      "constant": true
    }
  ],
  "bytecode": "0x608060405234801561001057600080fd5b5061003b7fa49807205ce4d355092ef5a8a18f56e8913cf4a201fbe287825b095693c2177533610040565b6100df565b6000828152602081815260408083206001600160a01b038516845290915290205460ff166100db576000828152602081815260408083206001600160a01b03851684529091529020805460ff1916600117905561009a3390565b6001600160a01b0316816001600160a01b0316837f2f8788117e7eff1d82e926ec794901d17c78024a50270940304540a733656f0d60405160405180910390a45b5050565b61091a806100ee6000396000f3fe608060405234801561001057600080fd5b50600436106100b45760003560e01c806375b238fc1161007157806375b238fc1461017f57806391d14854146101a6578063a217fddf146101b9578063b36d6919146101c1578063d547741f146101ed578063e4997dc51461020057600080fd5b806301ffc9a7146100b95780630ecb93c0146100e1578063248a9ca3146100f65780632f2ff15d1461012757806336568abe1461013a57806341e0c7d41461014d575b600080fd5b6100cc6100c73660046106e7565b610213565b60405190151581526020015b60405180910390f35b6100f46100ef36600461072d565b61024a565b005b610119610104366004610748565b60009081526020819052604090206001015490565b6040519081526020016100d8565b6100f4610135366004610761565b61029c565b6100f4610148366004610761565b6102c6565b6101726040518060400160405280600681526020016576312e302e3160d01b81525081565b6040516100d891906107b1565b6101197fa49807205ce4d355092ef5a8a18f56e8913cf4a201fbe287825b095693c2177581565b6100cc6101b4366004610761565b610349565b610119600081565b6100cc6101cf36600461072d565b6001600160a01b031660009081526001602052604090205460ff1690565b6100f46101fb366004610761565b610372565b6100f461020e36600461072d565b610397565b60006001600160e01b03198216637965db0b60e01b148061024457506301ffc9a760e01b6001600160e01b03198316145b92915050565b7fa49807205ce4d355092ef5a8a18f56e8913cf4a201fbe287825b095693c21775610274816103e3565b506001600160a01b03166000908152600160208190526040909120805460ff19169091179055565b6000828152602081905260409020600101546102b7816103e3565b6102c183836103f0565b505050565b6001600160a01b038116331461033b5760405162461bcd60e51b815260206004820152602f60248201527f416363657373436f6e74726f6c3a2063616e206f6e6c792072656e6f756e636560448201526e103937b632b9903337b91039b2b63360891b60648201526084015b60405180910390fd5b6103458282610474565b5050565b6000918252602082815260408084206001600160a01b0393909316845291905290205460ff1690565b60008281526020819052604090206001015461038d816103e3565b6102c18383610474565b7fa49807205ce4d355092ef5a8a18f56e8913cf4a201fbe287825b095693c217756103c1816103e3565b506001600160a01b03166000908152600160205260409020805460ff19169055565b6103ed81336104d9565b50565b6103fa8282610349565b610345576000828152602081815260408083206001600160a01b03851684529091529020805460ff191660011790556104303390565b6001600160a01b0316816001600160a01b0316837f2f8788117e7eff1d82e926ec794901d17c78024a50270940304540a733656f0d60405160405180910390a45050565b61047e8282610349565b15610345576000828152602081815260408083206001600160a01b0385168085529252808320805460ff1916905551339285917ff6391f5c32d9c69d2a47ea670b442974b53935d1edc7fd64eb21e047a839171b9190a45050565b6104e38282610349565b610345576104f081610532565b6104fb836020610544565b60405160200161050c9291906107e4565b60408051601f198184030181529082905262461bcd60e51b8252610332916004016107b1565b60606102446001600160a01b03831660145b6060600061055383600261086f565b61055e90600261088e565b67ffffffffffffffff811115610576576105766108a1565b6040519080825280601f01601f1916602001820160405280156105a0576020820181803683370190505b509050600360fc1b816000815181106105bb576105bb6108b7565b60200101906001600160f81b031916908160001a905350600f60fb1b816001815181106105ea576105ea6108b7565b60200101906001600160f81b031916908160001a905350600061060e84600261086f565b61061990600161088e565b90505b6001811115610691576f181899199a1a9b1b9c1cb0b131b232b360811b85600f166010811061064d5761064d6108b7565b1a60f81b828281518110610663576106636108b7565b60200101906001600160f81b031916908160001a90535060049490941c9361068a816108cd565b905061061c565b5083156106e05760405162461bcd60e51b815260206004820181905260248201527f537472696e67733a20686578206c656e67746820696e73756666696369656e746044820152606401610332565b9392505050565b6000602082840312156106f957600080fd5b81356001600160e01b0319811681146106e057600080fd5b80356001600160a01b038116811461072857600080fd5b919050565b60006020828403121561073f57600080fd5b6106e082610711565b60006020828403121561075a57600080fd5b5035919050565b6000806040838503121561077457600080fd5b8235915061078460208401610711565b90509250929050565b60005b838110156107a8578181015183820152602001610790565b50506000910152565b60208152600082518060208401526107d081604085016020870161078d565b601f01601f19169190910160400192915050565b7f416363657373436f6e74726f6c3a206163636f756e742000000000000000000081526000835161081c81601785016020880161078d565b7001034b99036b4b9b9b4b733903937b6329607d1b601791840191820152835161084d81602884016020880161078d565b01602801949350505050565b634e487b7160e01b600052601160045260246000fd5b600081600019048311821515161561088957610889610859565b500290565b8082018082111561024457610244610859565b634e487b7160e01b600052604160045260246000fd5b634e487b7160e01b600052603260045260246000fd5b6000816108dc576108dc610859565b50600019019056fea264697066735822122028443e94333ccb08a3c404d8c3a9adccff2fe17d9bb9a32f0c3be50f4d6f2f8064736f6c63430008100033",
  "immutableReferences": {},
  "source": "// SPDX-License-Identifier: SimPL-2.0\n\npragma solidity ^0.8.0;\n\nimport \"../know-interface/IBlackList.sol\";\nimport \"@openzeppelin/contracts/access/AccessControl.sol\";\n\n/**\n * @title Major Factory Contract\n * @notice HorseRace is a NFT horse racing metaverse based on pylogon\n * @notice ....\n *\n * @notice Website: https://horse-racing.io/\n * @notice Docs: https://horse-racing.gitbook.io/horse-racing-docs/\n * \n * @dev Version: v1.0.1\n */\ncontract BlackList is AccessControl, IBlackList {\n    /** @notice Version of contract */\n    string constant public LASTEST_VERSION = \"v1.0.1\";\n\n    /** @notice The role of access control - (admin role) */\n    bytes32 constant public ADMIN_ROLE = keccak256(\"ADMIN_ROLE\");\n\n    mapping (address => bool) private _blackList;\n\n    constructor() {\n        _grantRole(ADMIN_ROLE, _msgSender());\n    }\n\n    function addBlackList(address account) public onlyRole(ADMIN_ROLE) {\n        _blackList[account] = true;\n    }\n\n    function removeBlackList(address account) public onlyRole(ADMIN_ROLE) {\n        _blackList[account] = false;\n    }\n\n    function isBlackList(address account) override public view returns (bool) {\n        return _blackList[account];\n    }\n}",
  "sourcePath": "/Users/cea/Projects/myself/knowlage-dapp/contracts/know-core/BlackList.sol",
  "compiler": {
    "name": "solc",
    "version": "0.8.16+commit.07a7930e.Emscripten.clang"
  },
  "schemaVersion": "3.4.9",
  "updatedAt": "2022-12-15T08:49:31.194Z",
  "networkType": "ethereum",
  "devdoc": {
    "details": "Version: v1.0.1",
    "kind": "dev",
    "methods": {
      "getRoleAdmin(bytes32)": {
        "details": "Returns the admin role that controls `role`. See {grantRole} and {revokeRole}. To change a role's admin, use {_setRoleAdmin}."
      },
      "grantRole(bytes32,address)": {
        "details": "Grants `role` to `account`. If `account` had not been already granted `role`, emits a {RoleGranted} event. Requirements: - the caller must have ``role``'s admin role. May emit a {RoleGranted} event."
      },
      "hasRole(bytes32,address)": {
        "details": "Returns `true` if `account` has been granted `role`."
      },
      "renounceRole(bytes32,address)": {
        "details": "Revokes `role` from the calling account. Roles are often managed via {grantRole} and {revokeRole}: this function's purpose is to provide a mechanism for accounts to lose their privileges if they are compromised (such as when a trusted device is misplaced). If the calling account had been revoked `role`, emits a {RoleRevoked} event. Requirements: - the caller must be `account`. May emit a {RoleRevoked} event."
      },
      "revokeRole(bytes32,address)": {
        "details": "Revokes `role` from `account`. If `account` had been granted `role`, emits a {RoleRevoked} event. Requirements: - the caller must have ``role``'s admin role. May emit a {RoleRevoked} event."
      },
      "supportsInterface(bytes4)": {
        "details": "See {IERC165-supportsInterface}."
      }
    },
    "title": "Major Factory Contract",
    "version": 1
  },
  "userdoc": {
    "kind": "user",
    "methods": {
      "ADMIN_ROLE()": {
        "notice": "The role of access control - (admin role) "
      },
      "LASTEST_VERSION()": {
        "notice": "Version of contract "
      }
    },
    "notice": "HorseRace is a NFT horse racing metaverse based on pylogon....Website: https://horse-racing.io/Docs: https://horse-racing.gitbook.io/horse-racing-docs/ ",
    "version": 1
  }
}